{
  "_format": "hh-sol-artifact-1",
  "contractName": "Campaign",
  "sourceName": "contracts/Campaign.sol",
  "abi": [
    {
      "inputs": [
        {
          "internalType": "string[]",
          "name": "_candidateNames",
          "type": "string[]"
        },
        {
          "internalType": "uint256",
          "name": "_durationInMinutes",
          "type": "uint256"
        },
        {
          "internalType": "address",
          "name": "_creator",
          "type": "address"
        },
        {
          "internalType": "uint256",
          "name": "_campaign_number",
          "type": "uint256"
        },
        {
          "internalType": "string",
          "name": "_campaign_name",
          "type": "string"
        },
        {
          "internalType": "string",
          "name": "_campaign_description",
          "type": "string"
        },
        {
          "internalType": "uint256",
          "name": "startTime",
          "type": "uint256"
        },
        {
          "internalType": "string",
          "name": "_date",
          "type": "string"
        },
        {
          "internalType": "address[]",
          "name": "_eligible",
          "type": "address[]"
        }
      ],
      "stateMutability": "nonpayable",
      "type": "constructor"
    },
    {
      "anonymous": false,
      "inputs": [
        {
          "indexed": false,
          "internalType": "uint256",
          "name": "candidateIndex",
          "type": "uint256"
        },
        {
          "indexed": false,
          "internalType": "uint256",
          "name": "newVoteCount",
          "type": "uint256"
        }
      ],
      "name": "VoteCast",
      "type": "event"
    },
    {
      "inputs": [
        {
          "internalType": "string",
          "name": "_name",
          "type": "string"
        }
      ],
      "name": "addCandidate",
      "outputs": [],
      "stateMutability": "nonpayable",
      "type": "function"
    },
    {
      "inputs": [],
      "name": "campaign_description",
      "outputs": [
        {
          "internalType": "string",
          "name": "",
          "type": "string"
        }
      ],
      "stateMutability": "view",
      "type": "function"
    },
    {
      "inputs": [],
      "name": "campaign_duration",
      "outputs": [
        {
          "internalType": "uint256",
          "name": "",
          "type": "uint256"
        }
      ],
      "stateMutability": "view",
      "type": "function"
    },
    {
      "inputs": [],
      "name": "campaign_name",
      "outputs": [
        {
          "internalType": "string",
          "name": "",
          "type": "string"
        }
      ],
      "stateMutability": "view",
      "type": "function"
    },
    {
      "inputs": [],
      "name": "campaign_number",
      "outputs": [
        {
          "internalType": "uint256",
          "name": "",
          "type": "uint256"
        }
      ],
      "stateMutability": "view",
      "type": "function"
    },
    {
      "inputs": [
        {
          "internalType": "uint256",
          "name": "",
          "type": "uint256"
        }
      ],
      "name": "candidates",
      "outputs": [
        {
          "internalType": "string",
          "name": "name",
          "type": "string"
        },
        {
          "internalType": "uint256",
          "name": "voteCount",
          "type": "uint256"
        }
      ],
      "stateMutability": "view",
      "type": "function"
    },
    {
      "inputs": [],
      "name": "date",
      "outputs": [
        {
          "internalType": "string",
          "name": "",
          "type": "string"
        }
      ],
      "stateMutability": "view",
      "type": "function"
    },
    {
      "inputs": [
        {
          "internalType": "uint256",
          "name": "",
          "type": "uint256"
        }
      ],
      "name": "eligible",
      "outputs": [
        {
          "internalType": "address",
          "name": "",
          "type": "address"
        }
      ],
      "stateMutability": "view",
      "type": "function"
    },
    {
      "inputs": [],
      "name": "getAllVotesOfCandidates",
      "outputs": [
        {
          "components": [
            {
              "internalType": "string",
              "name": "name",
              "type": "string"
            },
            {
              "internalType": "uint256",
              "name": "voteCount",
              "type": "uint256"
            }
          ],
          "internalType": "struct Campaign.Candidate[]",
          "name": "",
          "type": "tuple[]"
        }
      ],
      "stateMutability": "view",
      "type": "function"
    },
    {
      "inputs": [],
      "name": "getCampaignDate",
      "outputs": [
        {
          "internalType": "string",
          "name": "",
          "type": "string"
        }
      ],
      "stateMutability": "view",
      "type": "function"
    },
    {
      "inputs": [],
      "name": "getCampaignDescription",
      "outputs": [
        {
          "internalType": "string",
          "name": "",
          "type": "string"
        }
      ],
      "stateMutability": "view",
      "type": "function"
    },
    {
      "inputs": [],
      "name": "getCampaignDuration",
      "outputs": [
        {
          "internalType": "uint256",
          "name": "",
          "type": "uint256"
        }
      ],
      "stateMutability": "view",
      "type": "function"
    },
    {
      "inputs": [],
      "name": "getCampaignName",
      "outputs": [
        {
          "internalType": "string",
          "name": "",
          "type": "string"
        }
      ],
      "stateMutability": "view",
      "type": "function"
    },
    {
      "inputs": [],
      "name": "getCampaignNumber",
      "outputs": [
        {
          "internalType": "uint256",
          "name": "",
          "type": "uint256"
        }
      ],
      "stateMutability": "view",
      "type": "function"
    },
    {
      "inputs": [],
      "name": "getCampaignOwner",
      "outputs": [
        {
          "internalType": "address",
          "name": "",
          "type": "address"
        }
      ],
      "stateMutability": "view",
      "type": "function"
    },
    {
      "inputs": [
        {
          "internalType": "uint256",
          "name": "index",
          "type": "uint256"
        }
      ],
      "name": "getCandidate",
      "outputs": [
        {
          "internalType": "string",
          "name": "",
          "type": "string"
        },
        {
          "internalType": "uint256",
          "name": "",
          "type": "uint256"
        }
      ],
      "stateMutability": "view",
      "type": "function"
    },
    {
      "inputs": [],
      "name": "getCandidatesCount",
      "outputs": [
        {
          "internalType": "uint256",
          "name": "",
          "type": "uint256"
        }
      ],
      "stateMutability": "view",
      "type": "function"
    },
    {
      "inputs": [],
      "name": "getEndTime",
      "outputs": [
        {
          "internalType": "uint256",
          "name": "",
          "type": "uint256"
        }
      ],
      "stateMutability": "view",
      "type": "function"
    },
    {
      "inputs": [],
      "name": "getRemainingTime",
      "outputs": [
        {
          "internalType": "uint256",
          "name": "",
          "type": "uint256"
        }
      ],
      "stateMutability": "view",
      "type": "function"
    },
    {
      "inputs": [],
      "name": "getStartTime",
      "outputs": [
        {
          "internalType": "uint256",
          "name": "",
          "type": "uint256"
        }
      ],
      "stateMutability": "view",
      "type": "function"
    },
    {
      "inputs": [],
      "name": "getVotersCount",
      "outputs": [
        {
          "internalType": "uint256",
          "name": "",
          "type": "uint256"
        }
      ],
      "stateMutability": "view",
      "type": "function"
    },
    {
      "inputs": [],
      "name": "getVotingStatus",
      "outputs": [
        {
          "internalType": "bool",
          "name": "",
          "type": "bool"
        }
      ],
      "stateMutability": "view",
      "type": "function"
    },
    {
      "inputs": [
        {
          "internalType": "address",
          "name": "voter",
          "type": "address"
        }
      ],
      "name": "isEligibleVoter",
      "outputs": [
        {
          "internalType": "bool",
          "name": "",
          "type": "bool"
        }
      ],
      "stateMutability": "view",
      "type": "function"
    },
    {
      "inputs": [
        {
          "internalType": "address",
          "name": "_address",
          "type": "address"
        }
      ],
      "name": "isOwner",
      "outputs": [
        {
          "internalType": "bool",
          "name": "",
          "type": "bool"
        }
      ],
      "stateMutability": "view",
      "type": "function"
    },
    {
      "inputs": [
        {
          "internalType": "address",
          "name": "_address",
          "type": "address"
        }
      ],
      "name": "isVoted",
      "outputs": [
        {
          "internalType": "bool",
          "name": "",
          "type": "bool"
        }
      ],
      "stateMutability": "view",
      "type": "function"
    },
    {
      "inputs": [],
      "name": "owner",
      "outputs": [
        {
          "internalType": "address",
          "name": "",
          "type": "address"
        }
      ],
      "stateMutability": "view",
      "type": "function"
    },
    {
      "inputs": [
        {
          "internalType": "uint256",
          "name": "_candidateIndex",
          "type": "uint256"
        }
      ],
      "name": "vote",
      "outputs": [],
      "stateMutability": "nonpayable",
      "type": "function"
    },
    {
      "inputs": [
        {
          "internalType": "address",
          "name": "",
          "type": "address"
        }
      ],
      "name": "voters",
      "outputs": [
        {
          "internalType": "bool",
          "name": "",
          "type": "bool"
        }
      ],
      "stateMutability": "view",
      "type": "function"
    },
    {
      "inputs": [],
      "name": "votingEnd",
      "outputs": [
        {
          "internalType": "uint256",
          "name": "",
          "type": "uint256"
        }
      ],
      "stateMutability": "view",
      "type": "function"
    },
    {
      "inputs": [],
      "name": "votingStart",
      "outputs": [
        {
          "internalType": "uint256",
          "name": "",
          "type": "uint256"
        }
      ],
      "stateMutability": "view",
      "type": "function"
    }
  ],
  "bytecode": "0x608060405260006005556040518060400160405280600d81526020017f43616d706169676e204e616d6500000000000000000000000000000000000000815250600690816200004f9190620005ef565b506040518060400160405280601481526020017f43616d706169676e204465736372697074696f6e00000000000000000000000081525060079081620000969190620005ef565b5060006008556040518060400160405280600481526020017f446174650000000000000000000000000000000000000000000000000000000081525060099081620000e29190620005ef565b50348015620000f057600080fd5b5060405162002c4438038062002c44833981810160405281019062000116919062000aa2565b60005b8951811015620001bb57600060405180604001604052808c848151811062000146576200014562000c1c565b5b60200260200101518152602001600081525090806001815401808255809150506001900390600052602060002090600202016000909190919091506000820151816000019081620001989190620005ef565b506020820151816001015550508080620001b29062000c7a565b91505062000119565b50856005819055508460069081620001d49190620005ef565b508360079081620001e69190620005ef565b508760088190555086600160006101000a81548173ffffffffffffffffffffffffffffffffffffffff021916908373ffffffffffffffffffffffffffffffffffffffff16021790555082600381905550603c8862000245919062000cc7565b8362000252919062000d12565b6004819055508160099081620002699190620005ef565b506001600260008973ffffffffffffffffffffffffffffffffffffffff1673ffffffffffffffffffffffffffffffffffffffff16815260200190815260200160002060006101000a81548160ff02191690831515021790555060005b81518110156200036557600a828281518110620002e757620002e662000c1c565b5b60200260200101519080600181540180825580915050600190039060005260206000200160009091909190916101000a81548173ffffffffffffffffffffffffffffffffffffffff021916908373ffffffffffffffffffffffffffffffffffffffff16021790555080806200035c9062000c7a565b915050620002c5565b5050505050505050505062000d4d565b600081519050919050565b7f4e487b7100000000000000000000000000000000000000000000000000000000600052604160045260246000fd5b7f4e487b7100000000000000000000000000000000000000000000000000000000600052602260045260246000fd5b60006002820490506001821680620003f757607f821691505b6020821081036200040d576200040c620003af565b5b50919050565b60008190508160005260206000209050919050565b60006020601f8301049050919050565b600082821b905092915050565b600060088302620004777fffffffffffffffffffffffffffffffffffffffffffffffffffffffffffffffff8262000438565b62000483868362000438565b95508019841693508086168417925050509392505050565b6000819050919050565b6000819050919050565b6000620004d0620004ca620004c4846200049b565b620004a5565b6200049b565b9050919050565b6000819050919050565b620004ec83620004af565b62000504620004fb82620004d7565b84845462000445565b825550505050565b600090565b6200051b6200050c565b62000528818484620004e1565b505050565b5b8181101562000550576200054460008262000511565b6001810190506200052e565b5050565b601f8211156200059f57620005698162000413565b620005748462000428565b8101602085101562000584578190505b6200059c620005938562000428565b8301826200052d565b50505b505050565b600082821c905092915050565b6000620005c460001984600802620005a4565b1980831691505092915050565b6000620005df8383620005b1565b9150826002028217905092915050565b620005fa8262000375565b67ffffffffffffffff81111562000616576200061562000380565b5b620006228254620003de565b6200062f82828562000554565b600060209050601f83116001811462000667576000841562000652578287015190505b6200065e8582620005d1565b865550620006ce565b601f198416620006778662000413565b60005b82811015620006a1578489015182556001820191506020850194506020810190506200067a565b86831015620006c15784890151620006bd601f891682620005b1565b8355505b6001600288020188555050505b505050505050565b6000604051905090565b600080fd5b600080fd5b600080fd5b6000601f19601f8301169050919050565b6200070b82620006ef565b810181811067ffffffffffffffff821117156200072d576200072c62000380565b5b80604052505050565b600062000742620006d6565b905062000750828262000700565b919050565b600067ffffffffffffffff82111562000773576200077262000380565b5b602082029050602081019050919050565b600080fd5b600080fd5b600067ffffffffffffffff821115620007ac57620007ab62000380565b5b620007b782620006ef565b9050602081019050919050565b60005b83811015620007e4578082015181840152602081019050620007c7565b60008484015250505050565b60006200080762000801846200078e565b62000736565b90508281526020810184848401111562000826576200082562000789565b5b62000833848285620007c4565b509392505050565b600082601f830112620008535762000852620006ea565b5b815162000865848260208601620007f0565b91505092915050565b6000620008856200087f8462000755565b62000736565b90508083825260208201905060208402830185811115620008ab57620008aa62000784565b5b835b81811015620008f957805167ffffffffffffffff811115620008d457620008d3620006ea565b5b808601620008e389826200083b565b85526020850194505050602081019050620008ad565b5050509392505050565b600082601f8301126200091b576200091a620006ea565b5b81516200092d8482602086016200086e565b91505092915050565b62000941816200049b565b81146200094d57600080fd5b50565b600081519050620009618162000936565b92915050565b600073ffffffffffffffffffffffffffffffffffffffff82169050919050565b6000620009948262000967565b9050919050565b620009a68162000987565b8114620009b257600080fd5b50565b600081519050620009c6816200099b565b92915050565b600067ffffffffffffffff821115620009ea57620009e962000380565b5b602082029050602081019050919050565b600062000a1262000a0c84620009cc565b62000736565b9050808382526020820190506020840283018581111562000a385762000a3762000784565b5b835b8181101562000a65578062000a508882620009b5565b84526020840193505060208101905062000a3a565b5050509392505050565b600082601f83011262000a875762000a86620006ea565b5b815162000a99848260208601620009fb565b91505092915050565b60008060008060008060008060006101208a8c03121562000ac85762000ac7620006e0565b5b60008a015167ffffffffffffffff81111562000ae95762000ae8620006e5565b5b62000af78c828d0162000903565b995050602062000b0a8c828d0162000950565b985050604062000b1d8c828d01620009b5565b975050606062000b308c828d0162000950565b96505060808a015167ffffffffffffffff81111562000b545762000b53620006e5565b5b62000b628c828d016200083b565b95505060a08a015167ffffffffffffffff81111562000b865762000b85620006e5565b5b62000b948c828d016200083b565b94505060c062000ba78c828d0162000950565b93505060e08a015167ffffffffffffffff81111562000bcb5762000bca620006e5565b5b62000bd98c828d016200083b565b9250506101008a015167ffffffffffffffff81111562000bfe5762000bfd620006e5565b5b62000c0c8c828d0162000a6f565b9150509295985092959850929598565b7f4e487b7100000000000000000000000000000000000000000000000000000000600052603260045260246000fd5b7f4e487b7100000000000000000000000000000000000000000000000000000000600052601160045260246000fd5b600062000c87826200049b565b91507fffffffffffffffffffffffffffffffffffffffffffffffffffffffffffffffff820362000cbc5762000cbb62000c4b565b5b600182019050919050565b600062000cd4826200049b565b915062000ce1836200049b565b925082820262000cf1816200049b565b9150828204841483151762000d0b5762000d0a62000c4b565b5b5092915050565b600062000d1f826200049b565b915062000d2c836200049b565b925082820190508082111562000d475762000d4662000c4b565b5b92915050565b611ee78062000d5d6000396000f3fe608060405234801561001057600080fd5b50600436106101da5760003560e01c8063776898c811610104578063a3ec138d116100a2578063c0f2a77711610071578063c0f2a77714610555578063c828371e14610573578063cbff75cb14610591578063efb98bcf146105c1576101da565b8063a3ec138d146104cb578063ac0a42fd146104fb578063bb9aa28f14610519578063c094f58514610537576101da565b806385a38635116100de57806385a3863514610453578063885e7c62146104715780638da5cb5b1461048f57806390a9ab90146104ad576101da565b8063776898c8146103e75780637bc25483146104175780637cd9eb4b14610435576101da565b806335b8e8201161017c578063462e91ec1161014b578063462e91ec14610371578063581c281c1461038d5780635e06280b146103ab57806374d8c643146103c9576101da565b806335b8e820146102d45780634137e733146103055780634225e7f414610323578063439f5ac214610353576101da565b8063101158af116101b8578063101158af146102375780632f54bf6e14610255578063323046b1146102855780633477ee2e146102a3576101da565b80630121b93f146101df57806304098338146101fb5780630574f59014610219575b600080fd5b6101f960048036038101906101f491906112d2565b6105df565b005b610203610830565b604051610210919061130e565b60405180910390f35b610221610836565b60405161022e91906113b9565b60405180910390f35b61023f6108c4565b60405161024c919061130e565b60405180910390f35b61026f600480360381019061026a9190611439565b6108ca565b60405161027c9190611481565b60405180910390f35b61028d610924565b60405161029a91906113b9565b60405180910390f35b6102bd60048036038101906102b891906112d2565b6109b2565b6040516102cb92919061149c565b60405180910390f35b6102ee60048036038101906102e991906112d2565b610a6e565b6040516102fc92919061149c565b60405180910390f35b61030d610b98565b60405161031a91906113b9565b60405180910390f35b61033d60048036038101906103389190611439565b610c26565b60405161034a9190611481565b60405180910390f35b61035b610cd4565b604051610368919061130e565b60405180910390f35b61038b60048036038101906103869190611601565b610cde565b005b610395610dd4565b6040516103a29190611481565b60405180910390f35b6103b3610dee565b6040516103c09190611659565b60405180910390f35b6103d1610e18565b6040516103de91906113b9565b60405180910390f35b61040160048036038101906103fc91906112d2565b610eaa565b60405161040e9190611659565b60405180910390f35b61041f610ee9565b60405161042c919061130e565b60405180910390f35b61043d610ef3565b60405161044a91906113b9565b60405180910390f35b61045b610f85565b604051610468919061130e565b60405180910390f35b610479610f8b565b60405161048691906113b9565b60405180910390f35b61049761101d565b6040516104a49190611659565b60405180910390f35b6104b5611043565b6040516104c291906117cc565b60405180910390f35b6104e560048036038101906104e09190611439565b61113e565b6040516104f29190611481565b60405180910390f35b61050361115e565b604051610510919061130e565b60405180910390f35b610521611164565b60405161052e919061130e565b60405180910390f35b61053f611170565b60405161054c919061130e565b60405180910390f35b61055d61117a565b60405161056a919061130e565b60405180910390f35b61057b6111df565b604051610588919061130e565b60405180910390f35b6105ab60048036038101906105a69190611439565b6111e9565b6040516105b89190611481565b60405180910390f35b6105c961123f565b6040516105d6919061130e565b60405180910390f35b600354421015610624576040517f08c379a000000000000000000000000000000000000000000000000000000000815260040161061b9061183a565b60405180910390fd5b6004544210610668576040517f08c379a000000000000000000000000000000000000000000000000000000000815260040161065f906118a6565b60405180910390fd5b600260003373ffffffffffffffffffffffffffffffffffffffff1673ffffffffffffffffffffffffffffffffffffffff16815260200190815260200160002060009054906101000a900460ff16156106f5576040517f08c379a00000000000000000000000000000000000000000000000000000000081526004016106ec90611912565b60405180910390fd5b600080549050811061073c576040517f08c379a00000000000000000000000000000000000000000000000000000000081526004016107339061197e565b60405180910390fd5b600081815481106107505761074f61199e565b5b90600052602060002090600202016001016000815480929190610772906119fc565b91905055506001600260003373ffffffffffffffffffffffffffffffffffffffff1673ffffffffffffffffffffffffffffffffffffffff16815260200190815260200160002060006101000a81548160ff0219169083151502179055507fc31875ef3ed5138b71a0c1da7e494bc4d2ba4f567084ea481ec9c45f3a93948b81600083815481106108055761080461199e565b5b906000526020600020906002020160010154604051610825929190611a44565b60405180910390a150565b60085481565b6007805461084390611a9c565b80601f016020809104026020016040519081016040528092919081815260200182805461086f90611a9c565b80156108bc5780601f10610891576101008083540402835291602001916108bc565b820191906000526020600020905b81548152906001019060200180831161089f57829003601f168201915b505050505081565b60035481565b6000600160009054906101000a900473ffffffffffffffffffffffffffffffffffffffff1673ffffffffffffffffffffffffffffffffffffffff168273ffffffffffffffffffffffffffffffffffffffff16149050919050565b6009805461093190611a9c565b80601f016020809104026020016040519081016040528092919081815260200182805461095d90611a9c565b80156109aa5780601f1061097f576101008083540402835291602001916109aa565b820191906000526020600020905b81548152906001019060200180831161098d57829003601f168201915b505050505081565b600081815481106109c257600080fd5b90600052602060002090600202016000915090508060000180546109e590611a9c565b80601f0160208091040260200160405190810160405280929190818152602001828054610a1190611a9c565b8015610a5e5780601f10610a3357610100808354040283529160200191610a5e565b820191906000526020600020905b815481529060010190602001808311610a4157829003601f168201915b5050505050908060010154905082565b6060600080805490508310610ab8576040517f08c379a0000000000000000000000000000000000000000000000000000000008152600401610aaf90611b19565b60405180910390fd5b60008381548110610acc57610acb61199e565b5b906000526020600020906002020160000160008481548110610af157610af061199e565b5b906000526020600020906002020160010154818054610b0f90611a9c565b80601f0160208091040260200160405190810160405280929190818152602001828054610b3b90611a9c565b8015610b885780601f10610b5d57610100808354040283529160200191610b88565b820191906000526020600020905b815481529060010190602001808311610b6b57829003601f168201915b5050505050915091509150915091565b60068054610ba590611a9c565b80601f0160208091040260200160405190810160405280929190818152602001828054610bd190611a9c565b8015610c1e5780601f10610bf357610100808354040283529160200191610c1e565b820191906000526020600020905b815481529060010190602001808311610c0157829003601f168201915b505050505081565b600080600090505b600a80549050811015610cc9578273ffffffffffffffffffffffffffffffffffffffff16600a8281548110610c6657610c6561199e565b5b9060005260206000200160009054906101000a900473ffffffffffffffffffffffffffffffffffffffff1673ffffffffffffffffffffffffffffffffffffffff1603610cb6576001915050610ccf565b8080610cc1906119fc565b915050610c2e565b50600090505b919050565b6000600454905090565b600160009054906101000a900473ffffffffffffffffffffffffffffffffffffffff1673ffffffffffffffffffffffffffffffffffffffff163373ffffffffffffffffffffffffffffffffffffffff1614610d6e576040517f08c379a0000000000000000000000000000000000000000000000000000000008152600401610d6590611bab565b60405180910390fd5b60006040518060400160405280838152602001600081525090806001815401808255809150506001900390600052602060002090600202016000909190919091506000820151816000019081610dc49190611d77565b5060208201518160010155505050565b60006003544210158015610de9575060045442105b905090565b6000600160009054906101000a900473ffffffffffffffffffffffffffffffffffffffff16905090565b606060078054610e2790611a9c565b80601f0160208091040260200160405190810160405280929190818152602001828054610e5390611a9c565b8015610ea05780601f10610e7557610100808354040283529160200191610ea0565b820191906000526020600020905b815481529060010190602001808311610e8357829003601f168201915b5050505050905090565b600a8181548110610eba57600080fd5b906000526020600020016000915054906101000a900473ffffffffffffffffffffffffffffffffffffffff1681565b6000600854905090565b606060098054610f0290611a9c565b80601f0160208091040260200160405190810160405280929190818152602001828054610f2e90611a9c565b8015610f7b5780601f10610f5057610100808354040283529160200191610f7b565b820191906000526020600020905b815481529060010190602001808311610f5e57829003601f168201915b5050505050905090565b60045481565b606060068054610f9a90611a9c565b80601f0160208091040260200160405190810160405280929190818152602001828054610fc690611a9c565b80156110135780601f10610fe857610100808354040283529160200191611013565b820191906000526020600020905b815481529060010190602001808311610ff657829003601f168201915b5050505050905090565b600160009054906101000a900473ffffffffffffffffffffffffffffffffffffffff1681565b60606000805480602002602001604051908101604052809291908181526020016000905b82821015611135578382906000526020600020906002020160405180604001604052908160008201805461109a90611a9c565b80601f01602080910402602001604051908101604052809291908181526020018280546110c690611a9c565b80156111135780601f106110e857610100808354040283529160200191611113565b820191906000526020600020905b8154815290600101906020018083116110f657829003601f168201915b5050505050815260200160018201548152505081526020019060010190611067565b50505050905090565b60026020528060005260406000206000915054906101000a900460ff1681565b60055481565b60008080549050905090565b6000600554905090565b6000806000905060005b6000805490508110156111d757600081815481106111a5576111a461199e565b5b906000526020600020906002020160010154826111c29190611e49565b915080806111cf906119fc565b915050611184565b508091505090565b6000600354905090565b6000600260008373ffffffffffffffffffffffffffffffffffffffff1673ffffffffffffffffffffffffffffffffffffffff16815260200190815260200160002060009054906101000a900460ff169050919050565b600060045442106112535760009050611285565b6003544210156112745760035460045461126d9190611e7d565b9050611285565b426004546112829190611e7d565b90505b90565b6000604051905090565b600080fd5b600080fd5b6000819050919050565b6112af8161129c565b81146112ba57600080fd5b50565b6000813590506112cc816112a6565b92915050565b6000602082840312156112e8576112e7611292565b5b60006112f6848285016112bd565b91505092915050565b6113088161129c565b82525050565b600060208201905061132360008301846112ff565b92915050565b600081519050919050565b600082825260208201905092915050565b60005b83811015611363578082015181840152602081019050611348565b60008484015250505050565b6000601f19601f8301169050919050565b600061138b82611329565b6113958185611334565b93506113a5818560208601611345565b6113ae8161136f565b840191505092915050565b600060208201905081810360008301526113d38184611380565b905092915050565b600073ffffffffffffffffffffffffffffffffffffffff82169050919050565b6000611406826113db565b9050919050565b611416816113fb565b811461142157600080fd5b50565b6000813590506114338161140d565b92915050565b60006020828403121561144f5761144e611292565b5b600061145d84828501611424565b91505092915050565b60008115159050919050565b61147b81611466565b82525050565b60006020820190506114966000830184611472565b92915050565b600060408201905081810360008301526114b68185611380565b90506114c560208301846112ff565b9392505050565b600080fd5b600080fd5b7f4e487b7100000000000000000000000000000000000000000000000000000000600052604160045260246000fd5b61150e8261136f565b810181811067ffffffffffffffff8211171561152d5761152c6114d6565b5b80604052505050565b6000611540611288565b905061154c8282611505565b919050565b600067ffffffffffffffff82111561156c5761156b6114d6565b5b6115758261136f565b9050602081019050919050565b82818337600083830152505050565b60006115a461159f84611551565b611536565b9050828152602081018484840111156115c0576115bf6114d1565b5b6115cb848285611582565b509392505050565b600082601f8301126115e8576115e76114cc565b5b81356115f8848260208601611591565b91505092915050565b60006020828403121561161757611616611292565b5b600082013567ffffffffffffffff81111561163557611634611297565b5b611641848285016115d3565b91505092915050565b611653816113fb565b82525050565b600060208201905061166e600083018461164a565b92915050565b600081519050919050565b600082825260208201905092915050565b6000819050602082019050919050565b600082825260208201905092915050565b60006116bc82611329565b6116c681856116a0565b93506116d6818560208601611345565b6116df8161136f565b840191505092915050565b6116f38161129c565b82525050565b6000604083016000830151848203600086015261171682826116b1565b915050602083015161172b60208601826116ea565b508091505092915050565b600061174283836116f9565b905092915050565b6000602082019050919050565b600061176282611674565b61176c818561167f565b93508360208202850161177e85611690565b8060005b858110156117ba578484038952815161179b8582611736565b94506117a68361174a565b925060208a01995050600181019050611782565b50829750879550505050505092915050565b600060208201905081810360008301526117e68184611757565b905092915050565b7f566f74696e6720686173206e6f742073746172746564207965742e0000000000600082015250565b6000611824601b83611334565b915061182f826117ee565b602082019050919050565b6000602082019050818103600083015261185381611817565b9050919050565b7f566f74696e672068617320656e6465642e000000000000000000000000000000600082015250565b6000611890601183611334565b915061189b8261185a565b602082019050919050565b600060208201905081810360008301526118bf81611883565b9050919050565b7f596f75206861766520616c726561647920766f7465642e000000000000000000600082015250565b60006118fc601783611334565b9150611907826118c6565b602082019050919050565b6000602082019050818103600083015261192b816118ef565b9050919050565b7f496e76616c69642063616e64696461746520696e6465782e0000000000000000600082015250565b6000611968601883611334565b915061197382611932565b602082019050919050565b600060208201905081810360008301526119978161195b565b9050919050565b7f4e487b7100000000000000000000000000000000000000000000000000000000600052603260045260246000fd5b7f4e487b7100000000000000000000000000000000000000000000000000000000600052601160045260246000fd5b6000611a078261129c565b91507fffffffffffffffffffffffffffffffffffffffffffffffffffffffffffffffff8203611a3957611a386119cd565b5b600182019050919050565b6000604082019050611a5960008301856112ff565b611a6660208301846112ff565b9392505050565b7f4e487b7100000000000000000000000000000000000000000000000000000000600052602260045260246000fd5b60006002820490506001821680611ab457607f821691505b602082108103611ac757611ac6611a6d565b5b50919050565b7f496e76616c696420696e64657800000000000000000000000000000000000000600082015250565b6000611b03600d83611334565b9150611b0e82611acd565b602082019050919050565b60006020820190508181036000830152611b3281611af6565b9050919050565b7f4f6e6c79206f776e65722063616e2063616c6c20746869732066756e6374696f60008201527f6e00000000000000000000000000000000000000000000000000000000000000602082015250565b6000611b95602183611334565b9150611ba082611b39565b604082019050919050565b60006020820190508181036000830152611bc481611b88565b9050919050565b60008190508160005260206000209050919050565b60006020601f8301049050919050565b600082821b905092915050565b600060088302611c2d7fffffffffffffffffffffffffffffffffffffffffffffffffffffffffffffffff82611bf0565b611c378683611bf0565b95508019841693508086168417925050509392505050565b6000819050919050565b6000611c74611c6f611c6a8461129c565b611c4f565b61129c565b9050919050565b6000819050919050565b611c8e83611c59565b611ca2611c9a82611c7b565b848454611bfd565b825550505050565b600090565b611cb7611caa565b611cc2818484611c85565b505050565b5b81811015611ce657611cdb600082611caf565b600181019050611cc8565b5050565b601f821115611d2b57611cfc81611bcb565b611d0584611be0565b81016020851015611d14578190505b611d28611d2085611be0565b830182611cc7565b50505b505050565b600082821c905092915050565b6000611d4e60001984600802611d30565b1980831691505092915050565b6000611d678383611d3d565b9150826002028217905092915050565b611d8082611329565b67ffffffffffffffff811115611d9957611d986114d6565b5b611da38254611a9c565b611dae828285611cea565b600060209050601f831160018114611de15760008415611dcf578287015190505b611dd98582611d5b565b865550611e41565b601f198416611def86611bcb565b60005b82811015611e1757848901518255600182019150602085019450602081019050611df2565b86831015611e345784890151611e30601f891682611d3d565b8355505b6001600288020188555050505b505050505050565b6000611e548261129c565b9150611e5f8361129c565b9250828201905080821115611e7757611e766119cd565b5b92915050565b6000611e888261129c565b9150611e938361129c565b9250828203905081811115611eab57611eaa6119cd565b5b9291505056fea2646970667358221220656eb5b5da732889129dcbfba74757d111a4711117c517ea5e98f8ee07a57c6a64736f6c63430008110033",
  "linkReferences": {},
  "deployedLinkReferences": {}
}