{
    "_format": "hh-sol-artifact-1",
    "contractName": "CampaignFactory",
    "sourceName": "contracts/CampaignFactory.sol",
    "abi": [
        {
            "anonymous": false,
            "inputs": [
                {
                    "indexed": false,
                    "internalType": "address",
                    "name": "campaignAddress",
                    "type": "address"
                },
                {
                    "indexed": false,
                    "internalType": "address",
                    "name": "creator",
                    "type": "address"
                }
            ],
            "name": "CampaignCreated",
            "type": "event"
        },
        {
            "inputs": [
                {
                    "internalType": "string[]",
                    "name": "_candidateNames",
                    "type": "string[]"
                },
                {
                    "internalType": "uint256",
                    "name": "_durationInMinutes",
                    "type": "uint256"
                },
                {
                    "internalType": "string",
                    "name": "_campaign_name",
                    "type": "string"
                },
                {
                    "internalType": "string",
                    "name": "_campaign_description",
                    "type": "string"
                },
                {
                    "internalType": "uint256",
                    "name": "startTime",
                    "type": "uint256"
                }
            ],
            "name": "createCampaign",
            "outputs": [],
            "stateMutability": "nonpayable",
            "type": "function"
        },
        {
            "inputs": [
                {
                    "internalType": "uint256",
                    "name": "",
                    "type": "uint256"
                }
            ],
            "name": "deployedCampaigns",
            "outputs": [
                {
                    "internalType": "contract Campaign",
                    "name": "",
                    "type": "address"
                }
            ],
            "stateMutability": "view",
            "type": "function"
        },
        {
            "inputs": [],
            "name": "getDeployedCampaignsDetails",
            "outputs": [
                {
                    "internalType": "address[]",
                    "name": "addresses",
                    "type": "address[]"
                },
                {
                    "internalType": "uint256[]",
                    "name": "ids",
                    "type": "uint256[]"
                },
                {
                    "internalType": "address[]",
                    "name": "managers",
                    "type": "address[]"
                },
                {
                    "internalType": "string[][]",
                    "name": "candidateNames",
                    "type": "string[][]"
                },
                {
                    "internalType": "uint256[][]",
                    "name": "voteCounts",
                    "type": "uint256[][]"
                },
                {
                    "internalType": "bool[]",
                    "name": "votingStatus",
                    "type": "bool[]"
                },
                {
                    "internalType": "uint256[]",
                    "name": "campaign_duration",
                    "type": "uint256[]"
                },
                {
                    "internalType": "string[]",
                    "name": "campaign_name",
                    "type": "string[]"
                },
                {
                    "internalType": "string[]",
                    "name": "campaign_description",
                    "type": "string[]"
                },
                {
                    "internalType": "uint256[]",
                    "name": "votingStart",
                    "type": "uint256[]"
                },
                {
                    "internalType": "uint256[]",
                    "name": "votingEnd",
                    "type": "uint256[]"
                }
            ],
            "stateMutability": "view",
            "type": "function"
        }
    ],
    "bytecode": "0x6080604052600060015534801561001557600080fd5b50613e62806100256000396000f3fe60806040523480156200001157600080fd5b5060043610620000465760003560e01c806311b42418146200004b578063339d50a5146200006b578063a8a35d8214620000a1575b600080fd5b62000069600480360381019062000063919062000fb9565b620000cd565b005b6200008960048036038101906200008391906200109e565b620001d8565b6040516200009891906200115b565b60405180910390f35b620000ab62000218565b604051620000c49b9a9998979695949392919062001808565b60405180910390f35b6000858533600154878787604051620000e69062000cfe565b620000f897969594939291906200198a565b604051809103906000f08015801562000115573d6000803e3d6000fd5b509050600160008154809291906200012d9062001a4b565b91905055506000819080600181540180825580915050600190039060005260206000200160009091909190916101000a81548173ffffffffffffffffffffffffffffffffffffffff021916908373ffffffffffffffffffffffffffffffffffffffff1602179055507f6056366dba45431fd6a8854ad9f2594942b02c4f2c3f6fbc329b3079b027b8b48133604051620001c892919062001a98565b60405180910390a1505050505050565b60008181548110620001e957600080fd5b906000526020600020016000915054906101000a900473ffffffffffffffffffffffffffffffffffffffff1681565b60608060608060608060608060608060606000808054905090508067ffffffffffffffff8111156200024f576200024e62000d36565b5b6040519080825280602002602001820160405280156200027e5781602001602082028036833780820191505090505b509b508067ffffffffffffffff8111156200029e576200029d62000d36565b5b604051908082528060200260200182016040528015620002cd5781602001602082028036833780820191505090505b509a508067ffffffffffffffff811115620002ed57620002ec62000d36565b5b6040519080825280602002602001820160405280156200031c5781602001602082028036833780820191505090505b5099508067ffffffffffffffff8111156200033c576200033b62000d36565b5b6040519080825280602002602001820160405280156200037157816020015b60608152602001906001900390816200035b5790505b5098508067ffffffffffffffff81111562000391576200039062000d36565b5b604051908082528060200260200182016040528015620003c657816020015b6060815260200190600190039081620003b05790505b5097508067ffffffffffffffff811115620003e657620003e562000d36565b5b604051908082528060200260200182016040528015620004155781602001602082028036833780820191505090505b5096508067ffffffffffffffff81111562000435576200043462000d36565b5b604051908082528060200260200182016040528015620004645781602001602082028036833780820191505090505b5095508067ffffffffffffffff81111562000484576200048362000d36565b5b604051908082528060200260200182016040528015620004b957816020015b6060815260200190600190039081620004a35790505b5094508067ffffffffffffffff811115620004d957620004d862000d36565b5b6040519080825280602002602001820160405280156200050e57816020015b6060815260200190600190039081620004f85790505b5093508067ffffffffffffffff8111156200052e576200052d62000d36565b5b6040519080825280602002602001820160405280156200055d5781602001602082028036833780820191505090505b5092508067ffffffffffffffff8111156200057d576200057c62000d36565b5b604051908082528060200260200182016040528015620005ac5781602001602082028036833780820191505090505b50915060005b8181101562000cef576000808281548110620005d357620005d262001ac5565b5b9060005260206000200160009054906101000a900473ffffffffffffffffffffffffffffffffffffffff169050808e838151811062000617576200061662001ac5565b5b602002602001019073ffffffffffffffffffffffffffffffffffffffff16908173ffffffffffffffffffffffffffffffffffffffff16815250508073ffffffffffffffffffffffffffffffffffffffff1663ac0a42fd6040518163ffffffff1660e01b8152600401602060405180830381865afa1580156200069d573d6000803e3d6000fd5b505050506040513d601f19601f82011682018060405250810190620006c3919062001b0b565b8d8381518110620006d957620006d862001ac5565b5b6020026020010181815250508073ffffffffffffffffffffffffffffffffffffffff16634137e7336040518163ffffffff1660e01b8152600401600060405180830381865afa15801562000731573d6000803e3d6000fd5b505050506040513d6000823e3d601f19601f820116820180604052508101906200075c919062001bbb565b87838151811062000772576200077162001ac5565b5b60200260200101819052508073ffffffffffffffffffffffffffffffffffffffff16630574f5906040518163ffffffff1660e01b8152600401600060405180830381865afa158015620007c9573d6000803e3d6000fd5b505050506040513d6000823e3d601f19601f82011682018060405250810190620007f4919062001bbb565b8683815181106200080a576200080962001ac5565b5b60200260200101819052508073ffffffffffffffffffffffffffffffffffffffff1663040983386040518163ffffffff1660e01b8152600401602060405180830381865afa15801562000861573d6000803e3d6000fd5b505050506040513d601f19601f8201168201806040525081019062000887919062001b0b565b8883815181106200089d576200089c62001ac5565b5b6020026020010181815250508073ffffffffffffffffffffffffffffffffffffffff1663101158af6040518163ffffffff1660e01b8152600401602060405180830381865afa158015620008f5573d6000803e3d6000fd5b505050506040513d601f19601f820116820180604052508101906200091b919062001b0b565b85838151811062000931576200093062001ac5565b5b6020026020010181815250508073ffffffffffffffffffffffffffffffffffffffff166385a386356040518163ffffffff1660e01b8152600401602060405180830381865afa15801562000989573d6000803e3d6000fd5b505050506040513d601f19601f82011682018060405250810190620009af919062001b0b565b848381518110620009c557620009c462001ac5565b5b60200260200101818152505060008173ffffffffffffffffffffffffffffffffffffffff166390a9ab906040518163ffffffff1660e01b8152600401600060405180830381865afa15801562000a1f573d6000803e3d6000fd5b505050506040513d6000823e3d601f19601f8201168201806040525081019062000a4a919062001d85565b9050805167ffffffffffffffff81111562000a6a5762000a6962000d36565b5b60405190808252806020026020018201604052801562000a9f57816020015b606081526020019060019003908162000a895790505b508c848151811062000ab65762000ab562001ac5565b5b6020026020010181905250805167ffffffffffffffff81111562000adf5762000ade62000d36565b5b60405190808252806020026020018201604052801562000b0e5781602001602082028036833780820191505090505b508b848151811062000b255762000b2462001ac5565b5b60200260200101819052508173ffffffffffffffffffffffffffffffffffffffff16638da5cb5b6040518163ffffffff1660e01b8152600401602060405180830381865afa15801562000b7c573d6000803e3d6000fd5b505050506040513d601f19601f8201168201806040525081019062000ba2919062001e07565b8d848151811062000bb85762000bb762001ac5565b5b602002602001019073ffffffffffffffffffffffffffffffffffffffff16908173ffffffffffffffffffffffffffffffffffffffff168152505060005b815181101562000cd65781818151811062000c155762000c1462001ac5565b5b6020026020010151600001518d858151811062000c375762000c3662001ac5565b5b6020026020010151828151811062000c545762000c5362001ac5565b5b602002602001018190525081818151811062000c755762000c7462001ac5565b5b6020026020010151602001518c858151811062000c975762000c9662001ac5565b5b6020026020010151828151811062000cb45762000cb362001ac5565b5b602002602001018181525050808062000ccd9062001a4b565b91505062000bf5565b505050808062000ce69062001a4b565b915050620005b2565b5050909192939495969798999a565b611ff38062001e3a83390190565b6000604051905090565b600080fd5b600080fd5b600080fd5b6000601f19601f8301169050919050565b7f4e487b7100000000000000000000000000000000000000000000000000000000600052604160045260246000fd5b62000d708262000d25565b810181811067ffffffffffffffff8211171562000d925762000d9162000d36565b5b80604052505050565b600062000da762000d0c565b905062000db5828262000d65565b919050565b600067ffffffffffffffff82111562000dd85762000dd762000d36565b5b602082029050602081019050919050565b600080fd5b600080fd5b600067ffffffffffffffff82111562000e115762000e1062000d36565b5b62000e1c8262000d25565b9050602081019050919050565b82818337600083830152505050565b600062000e4f62000e498462000df3565b62000d9b565b90508281526020810184848401111562000e6e5762000e6d62000dee565b5b62000e7b84828562000e29565b509392505050565b600082601f83011262000e9b5762000e9a62000d20565b5b813562000ead84826020860162000e38565b91505092915050565b600062000ecd62000ec78462000dba565b62000d9b565b9050808382526020820190506020840283018581111562000ef35762000ef262000de9565b5b835b8181101562000f4157803567ffffffffffffffff81111562000f1c5762000f1b62000d20565b5b80860162000f2b898262000e83565b8552602085019450505060208101905062000ef5565b5050509392505050565b600082601f83011262000f635762000f6262000d20565b5b813562000f7584826020860162000eb6565b91505092915050565b6000819050919050565b62000f938162000f7e565b811462000f9f57600080fd5b50565b60008135905062000fb38162000f88565b92915050565b600080600080600060a0868803121562000fd85762000fd762000d16565b5b600086013567ffffffffffffffff81111562000ff95762000ff862000d1b565b5b620010078882890162000f4b565b95505060206200101a8882890162000fa2565b945050604086013567ffffffffffffffff8111156200103e576200103d62000d1b565b5b6200104c8882890162000e83565b935050606086013567ffffffffffffffff81111562001070576200106f62000d1b565b5b6200107e8882890162000e83565b9250506080620010918882890162000fa2565b9150509295509295909350565b600060208284031215620010b757620010b662000d16565b5b6000620010c78482850162000fa2565b91505092915050565b600073ffffffffffffffffffffffffffffffffffffffff82169050919050565b6000819050919050565b60006200111b620011156200110f84620010d0565b620010f0565b620010d0565b9050919050565b60006200112f82620010fa565b9050919050565b6000620011438262001122565b9050919050565b620011558162001136565b82525050565b60006020820190506200117260008301846200114a565b92915050565b600081519050919050565b600082825260208201905092915050565b6000819050602082019050919050565b6000620011b182620010d0565b9050919050565b620011c381620011a4565b82525050565b6000620011d78383620011b8565b60208301905092915050565b6000602082019050919050565b6000620011fd8262001178565b62001209818562001183565b9350620012168362001194565b8060005b838110156200124d578151620012318882620011c9565b97506200123e83620011e3565b9250506001810190506200121a565b5085935050505092915050565b600081519050919050565b600082825260208201905092915050565b6000819050602082019050919050565b620012918162000f7e565b82525050565b6000620012a5838362001286565b60208301905092915050565b6000602082019050919050565b6000620012cb826200125a565b620012d7818562001265565b9350620012e48362001276565b8060005b838110156200131b578151620012ff888262001297565b97506200130c83620012b1565b925050600181019050620012e8565b5085935050505092915050565b600081519050919050565b600082825260208201905092915050565b6000819050602082019050919050565b600081519050919050565b600082825260208201905092915050565b6000819050602082019050919050565b600081519050919050565b600082825260208201905092915050565b60005b83811015620013bc5780820151818401526020810190506200139f565b60008484015250505050565b6000620013d58262001380565b620013e181856200138b565b9350620013f38185602086016200139c565b620013fe8162000d25565b840191505092915050565b6000620014178383620013c8565b905092915050565b6000602082019050919050565b6000620014398262001354565b6200144581856200135f565b935083602082028501620014598562001370565b8060005b858110156200149b578484038952815162001479858262001409565b945062001486836200141f565b925060208a019950506001810190506200145d565b50829750879550505050505092915050565b6000620014bb83836200142c565b905092915050565b6000602082019050919050565b6000620014dd8262001328565b620014e9818562001333565b935083602082028501620014fd8562001344565b8060005b858110156200153f57848403895281516200151d8582620014ad565b94506200152a83620014c3565b925060208a0199505060018101905062001501565b50829750879550505050505092915050565b600081519050919050565b600082825260208201905092915050565b6000819050602082019050919050565b600082825260208201905092915050565b60006200159b826200125a565b620015a781856200157d565b9350620015b48362001276565b8060005b83811015620015eb578151620015cf888262001297565b9750620015dc83620012b1565b925050600181019050620015b8565b5085935050505092915050565b60006200160683836200158e565b905092915050565b6000602082019050919050565b6000620016288262001551565b6200163481856200155c565b93508360208202850162001648856200156d565b8060005b858110156200168a5784840389528151620016688582620015f8565b945062001675836200160e565b925060208a019950506001810190506200164c565b50829750879550505050505092915050565b600081519050919050565b600082825260208201905092915050565b6000819050602082019050919050565b60008115159050919050565b620016df81620016c8565b82525050565b6000620016f38383620016d4565b60208301905092915050565b6000602082019050919050565b600062001719826200169c565b620017258185620016a7565b93506200173283620016b8565b8060005b83811015620017695781516200174d8882620016e5565b97506200175a83620016ff565b92505060018101905062001736565b5085935050505092915050565b600082825260208201905092915050565b6000620017948262001354565b620017a0818562001776565b935083602082028501620017b48562001370565b8060005b85811015620017f65784840389528151620017d4858262001409565b9450620017e1836200141f565b925060208a01995050600181019050620017b8565b50829750879550505050505092915050565b600061016082019050818103600083015262001825818e620011f0565b905081810360208301526200183b818d620012be565b9050818103604083015262001851818c620011f0565b9050818103606083015262001867818b620014d0565b905081810360808301526200187d818a6200161b565b905081810360a08301526200189381896200170c565b905081810360c0830152620018a98188620012be565b905081810360e0830152620018bf818762001787565b9050818103610100830152620018d6818662001787565b9050818103610120830152620018ed8185620012be565b9050818103610140830152620019048184620012be565b90509c9b505050505050505050505050565b620019218162000f7e565b82525050565b6200193281620011a4565b82525050565b600082825260208201905092915050565b6000620019568262001380565b62001962818562001938565b9350620019748185602086016200139c565b6200197f8162000d25565b840191505092915050565b600060e0820190508181036000830152620019a6818a62001787565b9050620019b7602083018962001916565b620019c6604083018862001927565b620019d5606083018762001916565b8181036080830152620019e9818662001949565b905081810360a0830152620019ff818562001949565b905062001a1060c083018462001916565b98975050505050505050565b7f4e487b7100000000000000000000000000000000000000000000000000000000600052601160045260246000fd5b600062001a588262000f7e565b91507fffffffffffffffffffffffffffffffffffffffffffffffffffffffffffffffff820362001a8d5762001a8c62001a1c565b5b600182019050919050565b600060408201905062001aaf600083018562001927565b62001abe602083018462001927565b9392505050565b7f4e487b7100000000000000000000000000000000000000000000000000000000600052603260045260246000fd5b60008151905062001b058162000f88565b92915050565b60006020828403121562001b245762001b2362000d16565b5b600062001b348482850162001af4565b91505092915050565b600062001b5462001b4e8462000df3565b62000d9b565b90508281526020810184848401111562001b735762001b7262000dee565b5b62001b808482856200139c565b509392505050565b600082601f83011262001ba05762001b9f62000d20565b5b815162001bb284826020860162001b3d565b91505092915050565b60006020828403121562001bd45762001bd362000d16565b5b600082015167ffffffffffffffff81111562001bf55762001bf462000d1b565b5b62001c038482850162001b88565b91505092915050565b600067ffffffffffffffff82111562001c2a5762001c2962000d36565b5b602082029050602081019050919050565b600080fd5b600080fd5b60006040828403121562001c5e5762001c5d62001c3b565b5b62001c6a604062000d9b565b9050600082015167ffffffffffffffff81111562001c8d5762001c8c62001c40565b5b62001c9b8482850162001b88565b600083015250602062001cb18482850162001af4565b60208301525092915050565b600062001cd462001cce8462001c0c565b62000d9b565b9050808382526020820190506020840283018581111562001cfa5762001cf962000de9565b5b835b8181101562001d4857805167ffffffffffffffff81111562001d235762001d2262000d20565b5b80860162001d32898262001c45565b8552602085019450505060208101905062001cfc565b5050509392505050565b600082601f83011262001d6a5762001d6962000d20565b5b815162001d7c84826020860162001cbd565b91505092915050565b60006020828403121562001d9e5762001d9d62000d16565b5b600082015167ffffffffffffffff81111562001dbf5762001dbe62000d1b565b5b62001dcd8482850162001d52565b91505092915050565b62001de181620011a4565b811462001ded57600080fd5b50565b60008151905062001e018162001dd6565b92915050565b60006020828403121562001e205762001e1f62000d16565b5b600062001e308482850162001df0565b9150509291505056fe608060405260006005556040518060400160405280600d81526020017f43616d706169676e204e616d6500000000000000000000000000000000000000815250600690816200004f919062000498565b506040518060400160405280601481526020017f43616d706169676e204465736372697074696f6e0000000000000000000000008152506007908162000096919062000498565b506000600855348015620000a957600080fd5b5060405162001ff338038062001ff38339818101604052810190620000cf919062000875565b60005b87518110156200017457600060405180604001604052808a8481518110620000ff57620000fe62000985565b5b6020026020010151815260200160008152509080600181540180825580915050600190039060005260206000209060020201600090919091909150600082015181600001908162000151919062000498565b5060208201518160010155505080806200016b90620009e3565b915050620000d2565b508360058190555082600690816200018d919062000498565b5081600790816200019f919062000498565b508560088190555084600160006101000a81548173ffffffffffffffffffffffffffffffffffffffff021916908373ffffffffffffffffffffffffffffffffffffffff16021790555080600381905550603c86620001fe919062000a30565b816200020b919062000a7b565b6004819055505050505050505062000ab6565b600081519050919050565b7f4e487b7100000000000000000000000000000000000000000000000000000000600052604160045260246000fd5b7f4e487b7100000000000000000000000000000000000000000000000000000000600052602260045260246000fd5b60006002820490506001821680620002a057607f821691505b602082108103620002b657620002b562000258565b5b50919050565b60008190508160005260206000209050919050565b60006020601f8301049050919050565b600082821b905092915050565b600060088302620003207fffffffffffffffffffffffffffffffffffffffffffffffffffffffffffffffff82620002e1565b6200032c8683620002e1565b95508019841693508086168417925050509392505050565b6000819050919050565b6000819050919050565b600062000379620003736200036d8462000344565b6200034e565b62000344565b9050919050565b6000819050919050565b620003958362000358565b620003ad620003a48262000380565b848454620002ee565b825550505050565b600090565b620003c4620003b5565b620003d18184846200038a565b505050565b5b81811015620003f957620003ed600082620003ba565b600181019050620003d7565b5050565b601f82111562000448576200041281620002bc565b6200041d84620002d1565b810160208510156200042d578190505b620004456200043c85620002d1565b830182620003d6565b50505b505050565b600082821c905092915050565b60006200046d600019846008026200044d565b1980831691505092915050565b60006200048883836200045a565b9150826002028217905092915050565b620004a3826200021e565b67ffffffffffffffff811115620004bf57620004be62000229565b5b620004cb825462000287565b620004d8828285620003fd565b600060209050601f831160018114620005105760008415620004fb578287015190505b6200050785826200047a565b86555062000577565b601f1984166200052086620002bc565b60005b828110156200054a5784890151825560018201915060208501945060208101905062000523565b868310156200056a578489015162000566601f8916826200045a565b8355505b6001600288020188555050505b505050505050565b6000604051905090565b600080fd5b600080fd5b600080fd5b6000601f19601f8301169050919050565b620005b48262000598565b810181811067ffffffffffffffff82111715620005d657620005d562000229565b5b80604052505050565b6000620005eb6200057f565b9050620005f98282620005a9565b919050565b600067ffffffffffffffff8211156200061c576200061b62000229565b5b602082029050602081019050919050565b600080fd5b600080fd5b600067ffffffffffffffff82111562000655576200065462000229565b5b620006608262000598565b9050602081019050919050565b60005b838110156200068d57808201518184015260208101905062000670565b60008484015250505050565b6000620006b0620006aa8462000637565b620005df565b905082815260208101848484011115620006cf57620006ce62000632565b5b620006dc8482856200066d565b509392505050565b600082601f830112620006fc57620006fb62000593565b5b81516200070e84826020860162000699565b91505092915050565b60006200072e6200072884620005fe565b620005df565b905080838252602082019050602084028301858111156200075457620007536200062d565b5b835b81811015620007a257805167ffffffffffffffff8111156200077d576200077c62000593565b5b8086016200078c8982620006e4565b8552602085019450505060208101905062000756565b5050509392505050565b600082601f830112620007c457620007c362000593565b5b8151620007d684826020860162000717565b91505092915050565b620007ea8162000344565b8114620007f657600080fd5b50565b6000815190506200080a81620007df565b92915050565b600073ffffffffffffffffffffffffffffffffffffffff82169050919050565b60006200083d8262000810565b9050919050565b6200084f8162000830565b81146200085b57600080fd5b50565b6000815190506200086f8162000844565b92915050565b600080600080600080600060e0888a03121562000897576200089662000589565b5b600088015167ffffffffffffffff811115620008b857620008b76200058e565b5b620008c68a828b01620007ac565b9750506020620008d98a828b01620007f9565b9650506040620008ec8a828b016200085e565b9550506060620008ff8a828b01620007f9565b945050608088015167ffffffffffffffff8111156200092357620009226200058e565b5b620009318a828b01620006e4565b93505060a088015167ffffffffffffffff8111156200095557620009546200058e565b5b620009638a828b01620006e4565b92505060c0620009768a828b01620007f9565b91505092959891949750929550565b7f4e487b7100000000000000000000000000000000000000000000000000000000600052603260045260246000fd5b7f4e487b7100000000000000000000000000000000000000000000000000000000600052601160045260246000fd5b6000620009f08262000344565b91507fffffffffffffffffffffffffffffffffffffffffffffffffffffffffffffffff820362000a255762000a24620009b4565b5b600182019050919050565b600062000a3d8262000344565b915062000a4a8362000344565b925082820262000a5a8162000344565b9150828204841483151762000a745762000a73620009b4565b5b5092915050565b600062000a888262000344565b915062000a958362000344565b925082820190508082111562000ab05762000aaf620009b4565b5b92915050565b61152d8062000ac66000396000f3fe608060405234801561001057600080fd5b50600436106101005760003560e01c8063581c281c11610097578063a3ec138d11610066578063a3ec138d1461027c578063ac0a42fd146102ac578063c828371e146102ca578063efb98bcf146102e857610100565b8063581c281c1461020457806385a38635146102225780638da5cb5b1461024057806390a9ab901461025e57610100565b80633477ee2e116100d35780633477ee2e1461017b5780634137e733146101ac578063439f5ac2146101ca578063462e91ec146101e857610100565b80630121b93f1461010557806304098338146101215780630574f5901461013f578063101158af1461015d575b600080fd5b61011f600480360381019061011a91906109e1565b610306565b005b6101296104f9565b6040516101369190610a1d565b60405180910390f35b6101476104ff565b6040516101549190610ac8565b60405180910390f35b61016561058d565b6040516101729190610a1d565b60405180910390f35b610195600480360381019061019091906109e1565b610593565b6040516101a3929190610aea565b60405180910390f35b6101b461064f565b6040516101c19190610ac8565b60405180910390f35b6101d26106dd565b6040516101df9190610a1d565b60405180910390f35b61020260048036038101906101fd9190610c4f565b6106e7565b005b61020c6107dd565b6040516102199190610cb3565b60405180910390f35b61022a6107f7565b6040516102379190610a1d565b60405180910390f35b6102486107fd565b6040516102559190610d0f565b60405180910390f35b610266610823565b6040516102739190610e82565b60405180910390f35b61029660048036038101906102919190610ed0565b61091e565b6040516102a39190610cb3565b60405180910390f35b6102b461093e565b6040516102c19190610a1d565b60405180910390f35b6102d2610944565b6040516102df9190610a1d565b60405180910390f35b6102f061094e565b6040516102fd9190610a1d565b60405180910390f35b60035442101561034b576040517f08c379a000000000000000000000000000000000000000000000000000000000815260040161034290610f49565b60405180910390fd5b600454421061038f576040517f08c379a000000000000000000000000000000000000000000000000000000000815260040161038690610fb5565b60405180910390fd5b600260003373ffffffffffffffffffffffffffffffffffffffff1673ffffffffffffffffffffffffffffffffffffffff16815260200190815260200160002060009054906101000a900460ff161561041c576040517f08c379a000000000000000000000000000000000000000000000000000000000815260040161041390611021565b60405180910390fd5b6000805490508110610463576040517f08c379a000000000000000000000000000000000000000000000000000000000815260040161045a9061108d565b60405180910390fd5b60008181548110610477576104766110ad565b5b906000526020600020906002020160010160008154809291906104999061110b565b91905055506001600260003373ffffffffffffffffffffffffffffffffffffffff1673ffffffffffffffffffffffffffffffffffffffff16815260200190815260200160002060006101000a81548160ff02191690831515021790555050565b60085481565b6007805461050c90611182565b80601f016020809104026020016040519081016040528092919081815260200182805461053890611182565b80156105855780601f1061055a57610100808354040283529160200191610585565b820191906000526020600020905b81548152906001019060200180831161056857829003601f168201915b505050505081565b60035481565b600081815481106105a357600080fd5b90600052602060002090600202016000915090508060000180546105c690611182565b80601f01602080910402602001604051908101604052809291908181526020018280546105f290611182565b801561063f5780601f106106145761010080835404028352916020019161063f565b820191906000526020600020905b81548152906001019060200180831161062257829003601f168201915b5050505050908060010154905082565b6006805461065c90611182565b80601f016020809104026020016040519081016040528092919081815260200182805461068890611182565b80156106d55780601f106106aa576101008083540402835291602001916106d5565b820191906000526020600020905b8154815290600101906020018083116106b857829003601f168201915b505050505081565b6000600454905090565b600160009054906101000a900473ffffffffffffffffffffffffffffffffffffffff1673ffffffffffffffffffffffffffffffffffffffff163373ffffffffffffffffffffffffffffffffffffffff1614610777576040517f08c379a000000000000000000000000000000000000000000000000000000000815260040161076e90611225565b60405180910390fd5b600060405180604001604052808381526020016000815250908060018154018082558091505060019003906000526020600020906002020160009091909190915060008201518160000190816107cd91906113f1565b5060208201518160010155505050565b600060035442101580156107f2575060045442105b905090565b60045481565b600160009054906101000a900473ffffffffffffffffffffffffffffffffffffffff1681565b60606000805480602002602001604051908101604052809291908181526020016000905b82821015610915578382906000526020600020906002020160405180604001604052908160008201805461087a90611182565b80601f01602080910402602001604051908101604052809291908181526020018280546108a690611182565b80156108f35780601f106108c8576101008083540402835291602001916108f3565b820191906000526020600020905b8154815290600101906020018083116108d657829003601f168201915b5050505050815260200160018201548152505081526020019060010190610847565b50505050905090565b60026020528060005260406000206000915054906101000a900460ff1681565b60055481565b6000600354905090565b600060045442106109625760009050610994565b6003544210156109835760035460045461097c91906114c3565b9050610994565b4260045461099191906114c3565b90505b90565b6000604051905090565b600080fd5b600080fd5b6000819050919050565b6109be816109ab565b81146109c957600080fd5b50565b6000813590506109db816109b5565b92915050565b6000602082840312156109f7576109f66109a1565b5b6000610a05848285016109cc565b91505092915050565b610a17816109ab565b82525050565b6000602082019050610a326000830184610a0e565b92915050565b600081519050919050565b600082825260208201905092915050565b60005b83811015610a72578082015181840152602081019050610a57565b60008484015250505050565b6000601f19601f8301169050919050565b6000610a9a82610a38565b610aa48185610a43565b9350610ab4818560208601610a54565b610abd81610a7e565b840191505092915050565b60006020820190508181036000830152610ae28184610a8f565b905092915050565b60006040820190508181036000830152610b048185610a8f565b9050610b136020830184610a0e565b9392505050565b600080fd5b600080fd5b7f4e487b7100000000000000000000000000000000000000000000000000000000600052604160045260246000fd5b610b5c82610a7e565b810181811067ffffffffffffffff82111715610b7b57610b7a610b24565b5b80604052505050565b6000610b8e610997565b9050610b9a8282610b53565b919050565b600067ffffffffffffffff821115610bba57610bb9610b24565b5b610bc382610a7e565b9050602081019050919050565b82818337600083830152505050565b6000610bf2610bed84610b9f565b610b84565b905082815260208101848484011115610c0e57610c0d610b1f565b5b610c19848285610bd0565b509392505050565b600082601f830112610c3657610c35610b1a565b5b8135610c46848260208601610bdf565b91505092915050565b600060208284031215610c6557610c646109a1565b5b600082013567ffffffffffffffff811115610c8357610c826109a6565b5b610c8f84828501610c21565b91505092915050565b60008115159050919050565b610cad81610c98565b82525050565b6000602082019050610cc86000830184610ca4565b92915050565b600073ffffffffffffffffffffffffffffffffffffffff82169050919050565b6000610cf982610cce565b9050919050565b610d0981610cee565b82525050565b6000602082019050610d246000830184610d00565b92915050565b600081519050919050565b600082825260208201905092915050565b6000819050602082019050919050565b600082825260208201905092915050565b6000610d7282610a38565b610d7c8185610d56565b9350610d8c818560208601610a54565b610d9581610a7e565b840191505092915050565b610da9816109ab565b82525050565b60006040830160008301518482036000860152610dcc8282610d67565b9150506020830151610de16020860182610da0565b508091505092915050565b6000610df88383610daf565b905092915050565b6000602082019050919050565b6000610e1882610d2a565b610e228185610d35565b935083602082028501610e3485610d46565b8060005b85811015610e705784840389528151610e518582610dec565b9450610e5c83610e00565b925060208a01995050600181019050610e38565b50829750879550505050505092915050565b60006020820190508181036000830152610e9c8184610e0d565b905092915050565b610ead81610cee565b8114610eb857600080fd5b50565b600081359050610eca81610ea4565b92915050565b600060208284031215610ee657610ee56109a1565b5b6000610ef484828501610ebb565b91505092915050565b7f566f74696e6720686173206e6f742073746172746564207965742e0000000000600082015250565b6000610f33601b83610a43565b9150610f3e82610efd565b602082019050919050565b60006020820190508181036000830152610f6281610f26565b9050919050565b7f566f74696e672068617320656e6465642e000000000000000000000000000000600082015250565b6000610f9f601183610a43565b9150610faa82610f69565b602082019050919050565b60006020820190508181036000830152610fce81610f92565b9050919050565b7f596f75206861766520616c726561647920766f7465642e000000000000000000600082015250565b600061100b601783610a43565b915061101682610fd5565b602082019050919050565b6000602082019050818103600083015261103a81610ffe565b9050919050565b7f496e76616c69642063616e64696461746520696e6465782e0000000000000000600082015250565b6000611077601883610a43565b915061108282611041565b602082019050919050565b600060208201905081810360008301526110a68161106a565b9050919050565b7f4e487b7100000000000000000000000000000000000000000000000000000000600052603260045260246000fd5b7f4e487b7100000000000000000000000000000000000000000000000000000000600052601160045260246000fd5b6000611116826109ab565b91507fffffffffffffffffffffffffffffffffffffffffffffffffffffffffffffffff8203611148576111476110dc565b5b600182019050919050565b7f4e487b7100000000000000000000000000000000000000000000000000000000600052602260045260246000fd5b6000600282049050600182168061119a57607f821691505b6020821081036111ad576111ac611153565b5b50919050565b7f4f6e6c79206f776e65722063616e2063616c6c20746869732066756e6374696f60008201527f6e00000000000000000000000000000000000000000000000000000000000000602082015250565b600061120f602183610a43565b915061121a826111b3565b604082019050919050565b6000602082019050818103600083015261123e81611202565b9050919050565b60008190508160005260206000209050919050565b60006020601f8301049050919050565b600082821b905092915050565b6000600883026112a77fffffffffffffffffffffffffffffffffffffffffffffffffffffffffffffffff8261126a565b6112b1868361126a565b95508019841693508086168417925050509392505050565b6000819050919050565b60006112ee6112e96112e4846109ab565b6112c9565b6109ab565b9050919050565b6000819050919050565b611308836112d3565b61131c611314826112f5565b848454611277565b825550505050565b600090565b611331611324565b61133c8184846112ff565b505050565b5b8181101561136057611355600082611329565b600181019050611342565b5050565b601f8211156113a55761137681611245565b61137f8461125a565b8101602085101561138e578190505b6113a261139a8561125a565b830182611341565b50505b505050565b600082821c905092915050565b60006113c8600019846008026113aa565b1980831691505092915050565b60006113e183836113b7565b9150826002028217905092915050565b6113fa82610a38565b67ffffffffffffffff81111561141357611412610b24565b5b61141d8254611182565b611428828285611364565b600060209050601f83116001811461145b5760008415611449578287015190505b61145385826113d5565b8655506114bb565b601f19841661146986611245565b60005b828110156114915784890151825560018201915060208501945060208101905061146c565b868310156114ae57848901516114aa601f8916826113b7565b8355505b6001600288020188555050505b505050505050565b60006114ce826109ab565b91506114d9836109ab565b92508282039050818111156114f1576114f06110dc565b5b9291505056fea2646970667358221220f9c0b17ce3d962acbd2311ed8469187020725aabc5346bb29d6bcc23e00aad8d64736f6c63430008110033a26469706673582212201dc3d3f5ed87f2485b72a45679f4cce6baed98a3a632143eeaa5a336ad697b6064736f6c63430008110033",
    "linkReferences": {},
    "deployedLinkReferences": {}
}