{
  "_format": "hh-sol-artifact-1",
  "contractName": "CampaignFactory",
  "sourceName": "contracts/CampaignFactory.sol",
  "abi": [
    {
      "anonymous": false,
      "inputs": [
        {
          "indexed": false,
          "internalType": "address",
          "name": "campaignAddress",
          "type": "address"
        },
        {
          "indexed": false,
          "internalType": "address",
          "name": "creator",
          "type": "address"
        }
      ],
      "name": "CampaignCreated",
      "type": "event"
    },
    {
      "inputs": [
        {
          "internalType": "uint256",
          "name": "",
          "type": "uint256"
        }
      ],
      "name": "campaignMetadata",
      "outputs": [
        {
          "internalType": "uint256",
          "name": "durationInMinutes",
          "type": "uint256"
        },
        {
          "internalType": "string",
          "name": "campaignName",
          "type": "string"
        },
        {
          "internalType": "string",
          "name": "campaignDescription",
          "type": "string"
        },
        {
          "internalType": "uint256",
          "name": "startTime",
          "type": "uint256"
        },
        {
          "internalType": "string",
          "name": "date",
          "type": "string"
        },
        {
          "internalType": "uint256",
          "name": "campaignId",
          "type": "uint256"
        }
      ],
      "stateMutability": "view",
      "type": "function"
    },
    {
      "inputs": [
        {
          "internalType": "string[]",
          "name": "_candidateNames",
          "type": "string[]"
        },
        {
          "internalType": "uint256",
          "name": "_durationInMinutes",
          "type": "uint256"
        },
        {
          "internalType": "string",
          "name": "_campaign_name",
          "type": "string"
        },
        {
          "internalType": "string",
          "name": "_campaign_description",
          "type": "string"
        },
        {
          "internalType": "uint256",
          "name": "startTime",
          "type": "uint256"
        },
        {
          "internalType": "string",
          "name": "date",
          "type": "string"
        }
      ],
      "name": "createCampaign",
      "outputs": [],
      "stateMutability": "nonpayable",
      "type": "function"
    },
    {
      "inputs": [
        {
          "internalType": "uint256",
          "name": "",
          "type": "uint256"
        }
      ],
      "name": "deployedCampaigns",
      "outputs": [
        {
          "internalType": "contract Campaign",
          "name": "",
          "type": "address"
        }
      ],
      "stateMutability": "view",
      "type": "function"
    },
    {
      "inputs": [],
      "name": "getAllCampaigns",
      "outputs": [
        {
          "components": [
            {
              "internalType": "uint256",
              "name": "durationInMinutes",
              "type": "uint256"
            },
            {
              "internalType": "string",
              "name": "campaignName",
              "type": "string"
            },
            {
              "internalType": "string",
              "name": "campaignDescription",
              "type": "string"
            },
            {
              "internalType": "uint256",
              "name": "startTime",
              "type": "uint256"
            },
            {
              "internalType": "string",
              "name": "date",
              "type": "string"
            },
            {
              "internalType": "uint256",
              "name": "campaignId",
              "type": "uint256"
            }
          ],
          "internalType": "struct CampaignFactory.CampaignMetadata[]",
          "name": "",
          "type": "tuple[]"
        }
      ],
      "stateMutability": "view",
      "type": "function"
    },
    {
      "inputs": [
        {
          "internalType": "uint256",
          "name": "_campaignId",
          "type": "uint256"
        }
      ],
      "name": "getCampaignAddressById",
      "outputs": [
        {
          "internalType": "address",
          "name": "",
          "type": "address"
        }
      ],
      "stateMutability": "view",
      "type": "function"
    },
    {
      "inputs": [
        {
          "internalType": "uint256",
          "name": "_campaignId",
          "type": "uint256"
        }
      ],
      "name": "getCampaignById",
      "outputs": [
        {
          "components": [
            {
              "internalType": "uint256",
              "name": "durationInMinutes",
              "type": "uint256"
            },
            {
              "internalType": "string",
              "name": "campaignName",
              "type": "string"
            },
            {
              "internalType": "string",
              "name": "campaignDescription",
              "type": "string"
            },
            {
              "internalType": "uint256",
              "name": "startTime",
              "type": "uint256"
            },
            {
              "internalType": "string",
              "name": "date",
              "type": "string"
            },
            {
              "internalType": "uint256",
              "name": "campaignId",
              "type": "uint256"
            }
          ],
          "internalType": "struct CampaignFactory.CampaignMetadata",
          "name": "",
          "type": "tuple"
        }
      ],
      "stateMutability": "view",
      "type": "function"
    },
    {
      "inputs": [],
      "name": "getCampaignCount",
      "outputs": [
        {
          "internalType": "uint256",
          "name": "",
          "type": "uint256"
        }
      ],
      "stateMutability": "view",
      "type": "function"
    },
    {
      "inputs": [],
      "name": "getDeployedCampaigns",
      "outputs": [
        {
          "internalType": "contract Campaign[]",
          "name": "",
          "type": "address[]"
        }
      ],
      "stateMutability": "view",
      "type": "function"
    }
  ],
  "bytecode": "0x6080604052600060025534801561001557600080fd5b50614552806100256000396000f3fe60806040523480156200001157600080fd5b5060043610620000945760003560e01c80636caa921811620000635780636caa9218146200016257806386cdf60414620001845780639fa2f47214620001a6578063e6ffcaa114620001c65762000094565b8063339d50a514620000995780634acb9d4f14620000cf5780635e8c25e214620000f1578063606965c61462000127575b600080fd5b620000b76004803603810190620000b1919062000c96565b620001fc565b604051620000c6919062000d53565b60405180910390f35b620000d96200023c565b604051620000e8919062000e3e565b60405180910390f35b6200010f600480360381019062000109919062000c96565b620002cc565b6040516200011e919062000e87565b60405180910390f35b6200014560048036038101906200013f919062000c96565b62000360565b604051620001599695949392919062000f4f565b60405180910390f35b6200016c6200055d565b6040516200017b919062000fd1565b60405180910390f35b6200018e62000569565b6040516200019d9190620011c4565b60405180910390f35b620001c46004803603810190620001be919062001435565b620007b6565b005b620001e46004803603810190620001de919062000c96565b6200098c565b604051620001f39190620015f0565b60405180910390f35b600081815481106200020d57600080fd5b906000526020600020016000915054906101000a900473ffffffffffffffffffffffffffffffffffffffff1681565b60606000805480602002602001604051908101604052809291908181526020018280548015620002c257602002820191906000526020600020905b8160009054906101000a900473ffffffffffffffffffffffffffffffffffffffff1673ffffffffffffffffffffffffffffffffffffffff168152602001906001019080831162000277575b5050505050905090565b60008080549050821062000317576040517f08c379a00000000000000000000000000000000000000000000000000000000081526004016200030e9062001664565b60405180910390fd5b600082815481106200032e576200032d62001686565b5b9060005260206000200160009054906101000a900473ffffffffffffffffffffffffffffffffffffffff169050919050565b600181815481106200037157600080fd5b90600052602060002090600602016000915090508060000154908060010180546200039c90620016e4565b80601f0160208091040260200160405190810160405280929190818152602001828054620003ca90620016e4565b80156200041b5780601f10620003ef576101008083540402835291602001916200041b565b820191906000526020600020905b815481529060010190602001808311620003fd57829003601f168201915b5050505050908060020180546200043290620016e4565b80601f01602080910402602001604051908101604052809291908181526020018280546200046090620016e4565b8015620004b15780601f106200048557610100808354040283529160200191620004b1565b820191906000526020600020905b8154815290600101906020018083116200049357829003601f168201915b505050505090806003015490806004018054620004ce90620016e4565b80601f0160208091040260200160405190810160405280929190818152602001828054620004fc90620016e4565b80156200054d5780601f1062000521576101008083540402835291602001916200054d565b820191906000526020600020905b8154815290600101906020018083116200052f57829003601f168201915b5050505050908060050154905086565b60008080549050905090565b60606001805480602002602001604051908101604052809291908181526020016000905b82821015620007ad57838290600052602060002090600602016040518060c001604052908160008201548152602001600182018054620005cd90620016e4565b80601f0160208091040260200160405190810160405280929190818152602001828054620005fb90620016e4565b80156200064c5780601f1062000620576101008083540402835291602001916200064c565b820191906000526020600020905b8154815290600101906020018083116200062e57829003601f168201915b505050505081526020016002820180546200066790620016e4565b80601f01602080910402602001604051908101604052809291908181526020018280546200069590620016e4565b8015620006e65780601f10620006ba57610100808354040283529160200191620006e6565b820191906000526020600020905b815481529060010190602001808311620006c857829003601f168201915b50505050508152602001600382015481526020016004820180546200070b90620016e4565b80601f01602080910402602001604051908101604052809291908181526020018280546200073990620016e4565b80156200078a5780601f106200075e576101008083540402835291602001916200078a565b820191906000526020600020905b8154815290600101906020018083116200076c57829003601f168201915b50505050508152602001600582015481525050815260200190600101906200058d565b50505050905090565b600086863360025488888888604051620007d09062000c03565b620007e3989796959493929190620017e9565b604051809103906000f08015801562000800573d6000803e3d6000fd5b50905060006040518060c001604052808881526020018781526020018681526020018581526020018481526020016002548152509050600260008154809291906200084b90620018c2565b91905055506000829080600181540180825580915050600190039060005260206000200160009091909190916101000a81548173ffffffffffffffffffffffffffffffffffffffff021916908373ffffffffffffffffffffffffffffffffffffffff160217905550600181908060018154018082558091505060019003906000526020600020906006020160009091909190915060008201518160000155602082015181600101908162000900919062001ad7565b50604082015181600201908162000918919062001ad7565b506060820151816003015560808201518160040190816200093a919062001ad7565b5060a0820151816005015550507f6056366dba45431fd6a8854ad9f2594942b02c4f2c3f6fbc329b3079b027b8b482336040516200097a92919062001bbe565b60405180910390a15050505050505050565b6200099662000c11565b6001805490508210620009e0576040517f08c379a0000000000000000000000000000000000000000000000000000000008152600401620009d79062001664565b60405180910390fd5b60018281548110620009f757620009f662001686565b5b90600052602060002090600602016040518060c00160405290816000820154815260200160018201805462000a2c90620016e4565b80601f016020809104026020016040519081016040528092919081815260200182805462000a5a90620016e4565b801562000aab5780601f1062000a7f5761010080835404028352916020019162000aab565b820191906000526020600020905b81548152906001019060200180831162000a8d57829003601f168201915b5050505050815260200160028201805462000ac690620016e4565b80601f016020809104026020016040519081016040528092919081815260200182805462000af490620016e4565b801562000b455780601f1062000b195761010080835404028352916020019162000b45565b820191906000526020600020905b81548152906001019060200180831162000b2757829003601f168201915b505050505081526020016003820154815260200160048201805462000b6a90620016e4565b80601f016020809104026020016040519081016040528092919081815260200182805462000b9890620016e4565b801562000be95780601f1062000bbd5761010080835404028352916020019162000be9565b820191906000526020600020905b81548152906001019060200180831162000bcb57829003601f168201915b505050505081526020016005820154815250509050919050565b6129318062001bec83390190565b6040518060c001604052806000815260200160608152602001606081526020016000815260200160608152602001600081525090565b6000604051905090565b600080fd5b600080fd5b6000819050919050565b62000c708162000c5b565b811462000c7c57600080fd5b50565b60008135905062000c908162000c65565b92915050565b60006020828403121562000caf5762000cae62000c51565b5b600062000cbf8482850162000c7f565b91505092915050565b600073ffffffffffffffffffffffffffffffffffffffff82169050919050565b6000819050919050565b600062000d1362000d0d62000d078462000cc8565b62000ce8565b62000cc8565b9050919050565b600062000d278262000cf2565b9050919050565b600062000d3b8262000d1a565b9050919050565b62000d4d8162000d2e565b82525050565b600060208201905062000d6a600083018462000d42565b92915050565b600081519050919050565b600082825260208201905092915050565b6000819050602082019050919050565b62000da78162000d2e565b82525050565b600062000dbb838362000d9c565b60208301905092915050565b6000602082019050919050565b600062000de18262000d70565b62000ded818562000d7b565b935062000dfa8362000d8c565b8060005b8381101562000e3157815162000e15888262000dad565b975062000e228362000dc7565b92505060018101905062000dfe565b5085935050505092915050565b6000602082019050818103600083015262000e5a818462000dd4565b905092915050565b600062000e6f8262000cc8565b9050919050565b62000e818162000e62565b82525050565b600060208201905062000e9e600083018462000e76565b92915050565b62000eaf8162000c5b565b82525050565b600081519050919050565b600082825260208201905092915050565b60005b8381101562000ef157808201518184015260208101905062000ed4565b60008484015250505050565b6000601f19601f8301169050919050565b600062000f1b8262000eb5565b62000f27818562000ec0565b935062000f3981856020860162000ed1565b62000f448162000efd565b840191505092915050565b600060c08201905062000f66600083018962000ea4565b818103602083015262000f7a818862000f0e565b9050818103604083015262000f90818762000f0e565b905062000fa1606083018662000ea4565b818103608083015262000fb5818562000f0e565b905062000fc660a083018462000ea4565b979650505050505050565b600060208201905062000fe8600083018462000ea4565b92915050565b600081519050919050565b600082825260208201905092915050565b6000819050602082019050919050565b620010258162000c5b565b82525050565b600082825260208201905092915050565b6000620010498262000eb5565b6200105581856200102b565b93506200106781856020860162000ed1565b620010728162000efd565b840191505092915050565b600060c0830160008301516200109760008601826200101a565b5060208301518482036020860152620010b182826200103c565b91505060408301518482036040860152620010cd82826200103c565b9150506060830151620010e460608601826200101a565b5060808301518482036080860152620010fe82826200103c565b91505060a08301516200111560a08601826200101a565b508091505092915050565b60006200112e83836200107d565b905092915050565b6000602082019050919050565b6000620011508262000fee565b6200115c818562000ff9565b93508360208202850162001170856200100a565b8060005b85811015620011b2578484038952815162001190858262001120565b94506200119d8362001136565b925060208a0199505060018101905062001174565b50829750879550505050505092915050565b60006020820190508181036000830152620011e0818462001143565b905092915050565b600080fd5b7f4e487b7100000000000000000000000000000000000000000000000000000000600052604160045260246000fd5b620012278262000efd565b810181811067ffffffffffffffff82111715620012495762001248620011ed565b5b80604052505050565b60006200125e62000c47565b90506200126c82826200121c565b919050565b600067ffffffffffffffff8211156200128f576200128e620011ed565b5b602082029050602081019050919050565b600080fd5b600080fd5b600067ffffffffffffffff821115620012c857620012c7620011ed565b5b620012d38262000efd565b9050602081019050919050565b82818337600083830152505050565b6000620013066200130084620012aa565b62001252565b905082815260208101848484011115620013255762001324620012a5565b5b62001332848285620012e0565b509392505050565b600082601f830112620013525762001351620011e8565b5b813562001364848260208601620012ef565b91505092915050565b6000620013846200137e8462001271565b62001252565b90508083825260208201905060208402830185811115620013aa57620013a9620012a0565b5b835b81811015620013f857803567ffffffffffffffff811115620013d357620013d2620011e8565b5b808601620013e289826200133a565b85526020850194505050602081019050620013ac565b5050509392505050565b600082601f8301126200141a5762001419620011e8565b5b81356200142c8482602086016200136d565b91505092915050565b60008060008060008060c0878903121562001455576200145462000c51565b5b600087013567ffffffffffffffff81111562001476576200147562000c56565b5b6200148489828a0162001402565b96505060206200149789828a0162000c7f565b955050604087013567ffffffffffffffff811115620014bb57620014ba62000c56565b5b620014c989828a016200133a565b945050606087013567ffffffffffffffff811115620014ed57620014ec62000c56565b5b620014fb89828a016200133a565b93505060806200150e89828a0162000c7f565b92505060a087013567ffffffffffffffff81111562001532576200153162000c56565b5b6200154089828a016200133a565b9150509295509295509295565b600060c0830160008301516200156760008601826200101a565b50602083015184820360208601526200158182826200103c565b915050604083015184820360408601526200159d82826200103c565b9150506060830151620015b460608601826200101a565b5060808301518482036080860152620015ce82826200103c565b91505060a0830151620015e560a08601826200101a565b508091505092915050565b600060208201905081810360008301526200160c81846200154d565b905092915050565b7f496e76616c69642063616d706169676e20494400000000000000000000000000600082015250565b60006200164c60138362000ec0565b9150620016598262001614565b602082019050919050565b600060208201905081810360008301526200167f816200163d565b9050919050565b7f4e487b7100000000000000000000000000000000000000000000000000000000600052603260045260246000fd5b7f4e487b7100000000000000000000000000000000000000000000000000000000600052602260045260246000fd5b60006002820490506001821680620016fd57607f821691505b602082108103620017135762001712620016b5565b5b50919050565b600081519050919050565b600082825260208201905092915050565b6000819050602082019050919050565b60006200175383836200103c565b905092915050565b6000602082019050919050565b6000620017758262001719565b62001781818562001724565b935083602082028501620017958562001735565b8060005b85811015620017d75784840389528151620017b5858262001745565b9450620017c2836200175b565b925060208a0199505060018101905062001799565b50829750879550505050505092915050565b600061010082019050818103600083015262001806818b62001768565b905062001817602083018a62000ea4565b62001826604083018962000e76565b62001835606083018862000ea4565b818103608083015262001849818762000f0e565b905081810360a08301526200185f818662000f0e565b90506200187060c083018562000ea4565b81810360e083015262001884818462000f0e565b90509998505050505050505050565b7f4e487b7100000000000000000000000000000000000000000000000000000000600052601160045260246000fd5b6000620018cf8262000c5b565b91507fffffffffffffffffffffffffffffffffffffffffffffffffffffffffffffffff820362001904576200190362001893565b5b600182019050919050565b60008190508160005260206000209050919050565b60006020601f8301049050919050565b600082821b905092915050565b600060088302620019737fffffffffffffffffffffffffffffffffffffffffffffffffffffffffffffffff8262001934565b6200197f868362001934565b95508019841693508086168417925050509392505050565b6000620019b8620019b2620019ac8462000c5b565b62000ce8565b62000c5b565b9050919050565b6000819050919050565b620019d48362001997565b620019ec620019e382620019bf565b84845462001941565b825550505050565b600090565b62001a03620019f4565b62001a10818484620019c9565b505050565b5b8181101562001a385762001a2c600082620019f9565b60018101905062001a16565b5050565b601f82111562001a875762001a51816200190f565b62001a5c8462001924565b8101602085101562001a6c578190505b62001a8462001a7b8562001924565b83018262001a15565b50505b505050565b600082821c905092915050565b600062001aac6000198460080262001a8c565b1980831691505092915050565b600062001ac7838362001a99565b9150826002028217905092915050565b62001ae28262000eb5565b67ffffffffffffffff81111562001afe5762001afd620011ed565b5b62001b0a8254620016e4565b62001b1782828562001a3c565b600060209050601f83116001811462001b4f576000841562001b3a578287015190505b62001b46858262001ab9565b86555062001bb6565b601f19841662001b5f866200190f565b60005b8281101562001b895784890151825560018201915060208501945060208101905062001b62565b8683101562001ba9578489015162001ba5601f89168262001a99565b8355505b6001600288020188555050505b505050505050565b600060408201905062001bd5600083018562000e76565b62001be4602083018462000e76565b939250505056fe608060405260006005556040518060400160405280600d81526020017f43616d706169676e204e616d6500000000000000000000000000000000000000815250600690816200004f91906200054a565b506040518060400160405280601481526020017f43616d706169676e204465736372697074696f6e000000000000000000000000815250600790816200009691906200054a565b5060006008556040518060400160405280600481526020017f446174650000000000000000000000000000000000000000000000000000000081525060099081620000e291906200054a565b50348015620000f057600080fd5b506040516200293138038062002931833981810160405281019062000116919062000927565b60005b8851811015620001bb57600060405180604001604052808b848151811062000146576200014562000a6c565b5b602002602001015181526020016000815250908060018154018082558091505060019003906000526020600020906002020160009091909190915060008201518160000190816200019891906200054a565b506020820151816001015550508080620001b29062000aca565b91505062000119565b50846005819055508360069081620001d491906200054a565b508260079081620001e691906200054a565b508660088190555085600160006101000a81548173ffffffffffffffffffffffffffffffffffffffff021916908373ffffffffffffffffffffffffffffffffffffffff16021790555081600381905550603c8762000245919062000b17565b8262000252919062000b62565b60048190555080600990816200026991906200054a565b506001600260008873ffffffffffffffffffffffffffffffffffffffff1673ffffffffffffffffffffffffffffffffffffffff16815260200190815260200160002060006101000a81548160ff021916908315150217905550505050505050505062000b9d565b600081519050919050565b7f4e487b7100000000000000000000000000000000000000000000000000000000600052604160045260246000fd5b7f4e487b7100000000000000000000000000000000000000000000000000000000600052602260045260246000fd5b600060028204905060018216806200035257607f821691505b6020821081036200036857620003676200030a565b5b50919050565b60008190508160005260206000209050919050565b60006020601f8301049050919050565b600082821b905092915050565b600060088302620003d27fffffffffffffffffffffffffffffffffffffffffffffffffffffffffffffffff8262000393565b620003de868362000393565b95508019841693508086168417925050509392505050565b6000819050919050565b6000819050919050565b60006200042b620004256200041f84620003f6565b62000400565b620003f6565b9050919050565b6000819050919050565b62000447836200040a565b6200045f620004568262000432565b848454620003a0565b825550505050565b600090565b6200047662000467565b620004838184846200043c565b505050565b5b81811015620004ab576200049f6000826200046c565b60018101905062000489565b5050565b601f821115620004fa57620004c4816200036e565b620004cf8462000383565b81016020851015620004df578190505b620004f7620004ee8562000383565b83018262000488565b50505b505050565b600082821c905092915050565b60006200051f60001984600802620004ff565b1980831691505092915050565b60006200053a83836200050c565b9150826002028217905092915050565b6200055582620002d0565b67ffffffffffffffff811115620005715762000570620002db565b5b6200057d825462000339565b6200058a828285620004af565b600060209050601f831160018114620005c25760008415620005ad578287015190505b620005b985826200052c565b86555062000629565b601f198416620005d2866200036e565b60005b82811015620005fc57848901518255600182019150602085019450602081019050620005d5565b868310156200061c578489015162000618601f8916826200050c565b8355505b6001600288020188555050505b505050505050565b6000604051905090565b600080fd5b600080fd5b600080fd5b6000601f19601f8301169050919050565b62000666826200064a565b810181811067ffffffffffffffff82111715620006885762000687620002db565b5b80604052505050565b60006200069d62000631565b9050620006ab82826200065b565b919050565b600067ffffffffffffffff821115620006ce57620006cd620002db565b5b602082029050602081019050919050565b600080fd5b600080fd5b600067ffffffffffffffff821115620007075762000706620002db565b5b62000712826200064a565b9050602081019050919050565b60005b838110156200073f57808201518184015260208101905062000722565b60008484015250505050565b6000620007626200075c84620006e9565b62000691565b905082815260208101848484011115620007815762000780620006e4565b5b6200078e8482856200071f565b509392505050565b600082601f830112620007ae57620007ad62000645565b5b8151620007c08482602086016200074b565b91505092915050565b6000620007e0620007da84620006b0565b62000691565b90508083825260208201905060208402830185811115620008065762000805620006df565b5b835b818110156200085457805167ffffffffffffffff8111156200082f576200082e62000645565b5b8086016200083e898262000796565b8552602085019450505060208101905062000808565b5050509392505050565b600082601f83011262000876576200087562000645565b5b815162000888848260208601620007c9565b91505092915050565b6200089c81620003f6565b8114620008a857600080fd5b50565b600081519050620008bc8162000891565b92915050565b600073ffffffffffffffffffffffffffffffffffffffff82169050919050565b6000620008ef82620008c2565b9050919050565b6200090181620008e2565b81146200090d57600080fd5b50565b6000815190506200092181620008f6565b92915050565b600080600080600080600080610100898b0312156200094b576200094a6200063b565b5b600089015167ffffffffffffffff8111156200096c576200096b62000640565b5b6200097a8b828c016200085e565b98505060206200098d8b828c01620008ab565b9750506040620009a08b828c0162000910565b9650506060620009b38b828c01620008ab565b955050608089015167ffffffffffffffff811115620009d757620009d662000640565b5b620009e58b828c0162000796565b94505060a089015167ffffffffffffffff81111562000a095762000a0862000640565b5b62000a178b828c0162000796565b93505060c062000a2a8b828c01620008ab565b92505060e089015167ffffffffffffffff81111562000a4e5762000a4d62000640565b5b62000a5c8b828c0162000796565b9150509295985092959890939650565b7f4e487b7100000000000000000000000000000000000000000000000000000000600052603260045260246000fd5b7f4e487b7100000000000000000000000000000000000000000000000000000000600052601160045260246000fd5b600062000ad782620003f6565b91507fffffffffffffffffffffffffffffffffffffffffffffffffffffffffffffffff820362000b0c5762000b0b62000a9b565b5b600182019050919050565b600062000b2482620003f6565b915062000b3183620003f6565b925082820262000b4181620003f6565b9150828204841483151762000b5b5762000b5a62000a9b565b5b5092915050565b600062000b6f82620003f6565b915062000b7c83620003f6565b925082820190508082111562000b975762000b9662000a9b565b5b92915050565b611d848062000bad6000396000f3fe608060405234801561001057600080fd5b50600436106101c45760003560e01c80637bc25483116100f9578063ac0a42fd11610097578063c0f2a77711610071578063c0f2a777146104df578063c828371e146104fd578063cbff75cb1461051b578063efb98bcf1461054b576101c4565b8063ac0a42fd14610485578063bb9aa28f146104a3578063c094f585146104c1576101c4565b8063885e7c62116100d3578063885e7c62146103fb5780638da5cb5b1461041957806390a9ab9014610437578063a3ec138d14610455576101c4565b80637bc25483146103a15780637cd9eb4b146103bf57806385a38635146103dd576101c4565b806335b8e82011610166578063462e91ec11610140578063462e91ec1461032b578063581c281c146103475780635e06280b1461036557806374d8c64314610383576101c4565b806335b8e820146102be5780634137e733146102ef578063439f5ac21461030d576101c4565b8063101158af116101a2578063101158af146102215780632f54bf6e1461023f578063323046b11461026f5780633477ee2e1461028d576101c4565b80630121b93f146101c957806304098338146101e55780630574f59014610203575b600080fd5b6101e360048036038101906101de919061116f565b610569565b005b6101ed6107ba565b6040516101fa91906111ab565b60405180910390f35b61020b6107c0565b6040516102189190611256565b60405180910390f35b61022961084e565b60405161023691906111ab565b60405180910390f35b610259600480360381019061025491906112d6565b610854565b604051610266919061131e565b60405180910390f35b6102776108ae565b6040516102849190611256565b60405180910390f35b6102a760048036038101906102a2919061116f565b61093c565b6040516102b5929190611339565b60405180910390f35b6102d860048036038101906102d3919061116f565b6109f8565b6040516102e6929190611339565b60405180910390f35b6102f7610b22565b6040516103049190611256565b60405180910390f35b610315610bb0565b60405161032291906111ab565b60405180910390f35b6103456004803603810190610340919061149e565b610bba565b005b61034f610cb0565b60405161035c919061131e565b60405180910390f35b61036d610cca565b60405161037a91906114f6565b60405180910390f35b61038b610cf4565b6040516103989190611256565b60405180910390f35b6103a9610d86565b6040516103b691906111ab565b60405180910390f35b6103c7610d90565b6040516103d49190611256565b60405180910390f35b6103e5610e22565b6040516103f291906111ab565b60405180910390f35b610403610e28565b6040516104109190611256565b60405180910390f35b610421610eba565b60405161042e91906114f6565b60405180910390f35b61043f610ee0565b60405161044c9190611669565b60405180910390f35b61046f600480360381019061046a91906112d6565b610fdb565b60405161047c919061131e565b60405180910390f35b61048d610ffb565b60405161049a91906111ab565b60405180910390f35b6104ab611001565b6040516104b891906111ab565b60405180910390f35b6104c961100d565b6040516104d691906111ab565b60405180910390f35b6104e7611017565b6040516104f491906111ab565b60405180910390f35b61050561107c565b60405161051291906111ab565b60405180910390f35b610535600480360381019061053091906112d6565b611086565b604051610542919061131e565b60405180910390f35b6105536110dc565b60405161056091906111ab565b60405180910390f35b6003544210156105ae576040517f08c379a00000000000000000000000000000000000000000000000000000000081526004016105a5906116d7565b60405180910390fd5b60045442106105f2576040517f08c379a00000000000000000000000000000000000000000000000000000000081526004016105e990611743565b60405180910390fd5b600260003373ffffffffffffffffffffffffffffffffffffffff1673ffffffffffffffffffffffffffffffffffffffff16815260200190815260200160002060009054906101000a900460ff161561067f576040517f08c379a0000000000000000000000000000000000000000000000000000000008152600401610676906117af565b60405180910390fd5b60008054905081106106c6576040517f08c379a00000000000000000000000000000000000000000000000000000000081526004016106bd9061181b565b60405180910390fd5b600081815481106106da576106d961183b565b5b906000526020600020906002020160010160008154809291906106fc90611899565b91905055506001600260003373ffffffffffffffffffffffffffffffffffffffff1673ffffffffffffffffffffffffffffffffffffffff16815260200190815260200160002060006101000a81548160ff0219169083151502179055507fc31875ef3ed5138b71a0c1da7e494bc4d2ba4f567084ea481ec9c45f3a93948b816000838154811061078f5761078e61183b565b5b9060005260206000209060020201600101546040516107af9291906118e1565b60405180910390a150565b60085481565b600780546107cd90611939565b80601f01602080910402602001604051908101604052809291908181526020018280546107f990611939565b80156108465780601f1061081b57610100808354040283529160200191610846565b820191906000526020600020905b81548152906001019060200180831161082957829003601f168201915b505050505081565b60035481565b6000600160009054906101000a900473ffffffffffffffffffffffffffffffffffffffff1673ffffffffffffffffffffffffffffffffffffffff168273ffffffffffffffffffffffffffffffffffffffff16149050919050565b600980546108bb90611939565b80601f01602080910402602001604051908101604052809291908181526020018280546108e790611939565b80156109345780601f1061090957610100808354040283529160200191610934565b820191906000526020600020905b81548152906001019060200180831161091757829003601f168201915b505050505081565b6000818154811061094c57600080fd5b906000526020600020906002020160009150905080600001805461096f90611939565b80601f016020809104026020016040519081016040528092919081815260200182805461099b90611939565b80156109e85780601f106109bd576101008083540402835291602001916109e8565b820191906000526020600020905b8154815290600101906020018083116109cb57829003601f168201915b5050505050908060010154905082565b6060600080805490508310610a42576040517f08c379a0000000000000000000000000000000000000000000000000000000008152600401610a39906119b6565b60405180910390fd5b60008381548110610a5657610a5561183b565b5b906000526020600020906002020160000160008481548110610a7b57610a7a61183b565b5b906000526020600020906002020160010154818054610a9990611939565b80601f0160208091040260200160405190810160405280929190818152602001828054610ac590611939565b8015610b125780601f10610ae757610100808354040283529160200191610b12565b820191906000526020600020905b815481529060010190602001808311610af557829003601f168201915b5050505050915091509150915091565b60068054610b2f90611939565b80601f0160208091040260200160405190810160405280929190818152602001828054610b5b90611939565b8015610ba85780601f10610b7d57610100808354040283529160200191610ba8565b820191906000526020600020905b815481529060010190602001808311610b8b57829003601f168201915b505050505081565b6000600454905090565b600160009054906101000a900473ffffffffffffffffffffffffffffffffffffffff1673ffffffffffffffffffffffffffffffffffffffff163373ffffffffffffffffffffffffffffffffffffffff1614610c4a576040517f08c379a0000000000000000000000000000000000000000000000000000000008152600401610c4190611a48565b60405180910390fd5b60006040518060400160405280838152602001600081525090806001815401808255809150506001900390600052602060002090600202016000909190919091506000820151816000019081610ca09190611c14565b5060208201518160010155505050565b60006003544210158015610cc5575060045442105b905090565b6000600160009054906101000a900473ffffffffffffffffffffffffffffffffffffffff16905090565b606060078054610d0390611939565b80601f0160208091040260200160405190810160405280929190818152602001828054610d2f90611939565b8015610d7c5780601f10610d5157610100808354040283529160200191610d7c565b820191906000526020600020905b815481529060010190602001808311610d5f57829003601f168201915b5050505050905090565b6000600854905090565b606060098054610d9f90611939565b80601f0160208091040260200160405190810160405280929190818152602001828054610dcb90611939565b8015610e185780601f10610ded57610100808354040283529160200191610e18565b820191906000526020600020905b815481529060010190602001808311610dfb57829003601f168201915b5050505050905090565b60045481565b606060068054610e3790611939565b80601f0160208091040260200160405190810160405280929190818152602001828054610e6390611939565b8015610eb05780601f10610e8557610100808354040283529160200191610eb0565b820191906000526020600020905b815481529060010190602001808311610e9357829003601f168201915b5050505050905090565b600160009054906101000a900473ffffffffffffffffffffffffffffffffffffffff1681565b60606000805480602002602001604051908101604052809291908181526020016000905b82821015610fd25783829060005260206000209060020201604051806040016040529081600082018054610f3790611939565b80601f0160208091040260200160405190810160405280929190818152602001828054610f6390611939565b8015610fb05780601f10610f8557610100808354040283529160200191610fb0565b820191906000526020600020905b815481529060010190602001808311610f9357829003601f168201915b5050505050815260200160018201548152505081526020019060010190610f04565b50505050905090565b60026020528060005260406000206000915054906101000a900460ff1681565b60055481565b60008080549050905090565b6000600554905090565b6000806000905060005b60008054905081101561107457600081815481106110425761104161183b565b5b9060005260206000209060020201600101548261105f9190611ce6565b9150808061106c90611899565b915050611021565b508091505090565b6000600354905090565b6000600260008373ffffffffffffffffffffffffffffffffffffffff1673ffffffffffffffffffffffffffffffffffffffff16815260200190815260200160002060009054906101000a900460ff169050919050565b600060045442106110f05760009050611122565b6003544210156111115760035460045461110a9190611d1a565b9050611122565b4260045461111f9190611d1a565b90505b90565b6000604051905090565b600080fd5b600080fd5b6000819050919050565b61114c81611139565b811461115757600080fd5b50565b60008135905061116981611143565b92915050565b6000602082840312156111855761118461112f565b5b60006111938482850161115a565b91505092915050565b6111a581611139565b82525050565b60006020820190506111c0600083018461119c565b92915050565b600081519050919050565b600082825260208201905092915050565b60005b838110156112005780820151818401526020810190506111e5565b60008484015250505050565b6000601f19601f8301169050919050565b6000611228826111c6565b61123281856111d1565b93506112428185602086016111e2565b61124b8161120c565b840191505092915050565b60006020820190508181036000830152611270818461121d565b905092915050565b600073ffffffffffffffffffffffffffffffffffffffff82169050919050565b60006112a382611278565b9050919050565b6112b381611298565b81146112be57600080fd5b50565b6000813590506112d0816112aa565b92915050565b6000602082840312156112ec576112eb61112f565b5b60006112fa848285016112c1565b91505092915050565b60008115159050919050565b61131881611303565b82525050565b6000602082019050611333600083018461130f565b92915050565b60006040820190508181036000830152611353818561121d565b9050611362602083018461119c565b9392505050565b600080fd5b600080fd5b7f4e487b7100000000000000000000000000000000000000000000000000000000600052604160045260246000fd5b6113ab8261120c565b810181811067ffffffffffffffff821117156113ca576113c9611373565b5b80604052505050565b60006113dd611125565b90506113e982826113a2565b919050565b600067ffffffffffffffff82111561140957611408611373565b5b6114128261120c565b9050602081019050919050565b82818337600083830152505050565b600061144161143c846113ee565b6113d3565b90508281526020810184848401111561145d5761145c61136e565b5b61146884828561141f565b509392505050565b600082601f83011261148557611484611369565b5b813561149584826020860161142e565b91505092915050565b6000602082840312156114b4576114b361112f565b5b600082013567ffffffffffffffff8111156114d2576114d1611134565b5b6114de84828501611470565b91505092915050565b6114f081611298565b82525050565b600060208201905061150b60008301846114e7565b92915050565b600081519050919050565b600082825260208201905092915050565b6000819050602082019050919050565b600082825260208201905092915050565b6000611559826111c6565b611563818561153d565b93506115738185602086016111e2565b61157c8161120c565b840191505092915050565b61159081611139565b82525050565b600060408301600083015184820360008601526115b3828261154e565b91505060208301516115c86020860182611587565b508091505092915050565b60006115df8383611596565b905092915050565b6000602082019050919050565b60006115ff82611511565b611609818561151c565b93508360208202850161161b8561152d565b8060005b85811015611657578484038952815161163885826115d3565b9450611643836115e7565b925060208a0199505060018101905061161f565b50829750879550505050505092915050565b6000602082019050818103600083015261168381846115f4565b905092915050565b7f566f74696e6720686173206e6f742073746172746564207965742e0000000000600082015250565b60006116c1601b836111d1565b91506116cc8261168b565b602082019050919050565b600060208201905081810360008301526116f0816116b4565b9050919050565b7f566f74696e672068617320656e6465642e000000000000000000000000000000600082015250565b600061172d6011836111d1565b9150611738826116f7565b602082019050919050565b6000602082019050818103600083015261175c81611720565b9050919050565b7f596f75206861766520616c726561647920766f7465642e000000000000000000600082015250565b60006117996017836111d1565b91506117a482611763565b602082019050919050565b600060208201905081810360008301526117c88161178c565b9050919050565b7f496e76616c69642063616e64696461746520696e6465782e0000000000000000600082015250565b60006118056018836111d1565b9150611810826117cf565b602082019050919050565b60006020820190508181036000830152611834816117f8565b9050919050565b7f4e487b7100000000000000000000000000000000000000000000000000000000600052603260045260246000fd5b7f4e487b7100000000000000000000000000000000000000000000000000000000600052601160045260246000fd5b60006118a482611139565b91507fffffffffffffffffffffffffffffffffffffffffffffffffffffffffffffffff82036118d6576118d561186a565b5b600182019050919050565b60006040820190506118f6600083018561119c565b611903602083018461119c565b9392505050565b7f4e487b7100000000000000000000000000000000000000000000000000000000600052602260045260246000fd5b6000600282049050600182168061195157607f821691505b6020821081036119645761196361190a565b5b50919050565b7f496e76616c696420696e64657800000000000000000000000000000000000000600082015250565b60006119a0600d836111d1565b91506119ab8261196a565b602082019050919050565b600060208201905081810360008301526119cf81611993565b9050919050565b7f4f6e6c79206f776e65722063616e2063616c6c20746869732066756e6374696f60008201527f6e00000000000000000000000000000000000000000000000000000000000000602082015250565b6000611a326021836111d1565b9150611a3d826119d6565b604082019050919050565b60006020820190508181036000830152611a6181611a25565b9050919050565b60008190508160005260206000209050919050565b60006020601f8301049050919050565b600082821b905092915050565b600060088302611aca7fffffffffffffffffffffffffffffffffffffffffffffffffffffffffffffffff82611a8d565b611ad48683611a8d565b95508019841693508086168417925050509392505050565b6000819050919050565b6000611b11611b0c611b0784611139565b611aec565b611139565b9050919050565b6000819050919050565b611b2b83611af6565b611b3f611b3782611b18565b848454611a9a565b825550505050565b600090565b611b54611b47565b611b5f818484611b22565b505050565b5b81811015611b8357611b78600082611b4c565b600181019050611b65565b5050565b601f821115611bc857611b9981611a68565b611ba284611a7d565b81016020851015611bb1578190505b611bc5611bbd85611a7d565b830182611b64565b50505b505050565b600082821c905092915050565b6000611beb60001984600802611bcd565b1980831691505092915050565b6000611c048383611bda565b9150826002028217905092915050565b611c1d826111c6565b67ffffffffffffffff811115611c3657611c35611373565b5b611c408254611939565b611c4b828285611b87565b600060209050601f831160018114611c7e5760008415611c6c578287015190505b611c768582611bf8565b865550611cde565b601f198416611c8c86611a68565b60005b82811015611cb457848901518255600182019150602085019450602081019050611c8f565b86831015611cd15784890151611ccd601f891682611bda565b8355505b6001600288020188555050505b505050505050565b6000611cf182611139565b9150611cfc83611139565b9250828201905080821115611d1457611d1361186a565b5b92915050565b6000611d2582611139565b9150611d3083611139565b9250828203905081811115611d4857611d4761186a565b5b9291505056fea2646970667358221220c258ee3f1751e31c89fdc744e0fb6edf4d597a0d20964227bc185d0e2539924f64736f6c63430008110033a264697066735822122073b388d4e6cb7cc1753281aacfa6db89cb5d71bc97b648947375603658acbbbf64736f6c63430008110033",
  "linkReferences": {},
  "deployedLinkReferences": {}
}