{
    "_format": "hh-sol-artifact-1",
    "contractName": "Campaign",
    "sourceName": "contracts/Campaign.sol",
    "abi": [
        {
            "inputs": [
                {
                    "internalType": "string[]",
                    "name": "_candidateNames",
                    "type": "string[]"
                },
                {
                    "internalType": "uint256",
                    "name": "_durationInMinutes",
                    "type": "uint256"
                },
                {
                    "internalType": "address",
                    "name": "_creator",
                    "type": "address"
                },
                {
                    "internalType": "uint256",
                    "name": "_campaign_number",
                    "type": "uint256"
                },
                {
                    "internalType": "string",
                    "name": "_campaign_name",
                    "type": "string"
                },
                {
                    "internalType": "string",
                    "name": "_campaign_description",
                    "type": "string"
                },
                {
                    "internalType": "uint256",
                    "name": "startTime",
                    "type": "uint256"
                }
            ],
            "stateMutability": "nonpayable",
            "type": "constructor"
        },
        {
            "inputs": [
                {
                    "internalType": "string",
                    "name": "_name",
                    "type": "string"
                }
            ],
            "name": "addCandidate",
            "outputs": [],
            "stateMutability": "nonpayable",
            "type": "function"
        },
        {
            "inputs": [],
            "name": "campaign_description",
            "outputs": [
                {
                    "internalType": "string",
                    "name": "",
                    "type": "string"
                }
            ],
            "stateMutability": "view",
            "type": "function"
        },
        {
            "inputs": [],
            "name": "campaign_duration",
            "outputs": [
                {
                    "internalType": "uint256",
                    "name": "",
                    "type": "uint256"
                }
            ],
            "stateMutability": "view",
            "type": "function"
        },
        {
            "inputs": [],
            "name": "campaign_name",
            "outputs": [
                {
                    "internalType": "string",
                    "name": "",
                    "type": "string"
                }
            ],
            "stateMutability": "view",
            "type": "function"
        },
        {
            "inputs": [],
            "name": "campaign_number",
            "outputs": [
                {
                    "internalType": "uint256",
                    "name": "",
                    "type": "uint256"
                }
            ],
            "stateMutability": "view",
            "type": "function"
        },
        {
            "inputs": [
                {
                    "internalType": "uint256",
                    "name": "",
                    "type": "uint256"
                }
            ],
            "name": "candidates",
            "outputs": [
                {
                    "internalType": "string",
                    "name": "name",
                    "type": "string"
                },
                {
                    "internalType": "uint256",
                    "name": "voteCount",
                    "type": "uint256"
                }
            ],
            "stateMutability": "view",
            "type": "function"
        },
        {
            "inputs": [],
            "name": "getAllVotesOfCandidates",
            "outputs": [
                {
                    "components": [
                        {
                            "internalType": "string",
                            "name": "name",
                            "type": "string"
                        },
                        {
                            "internalType": "uint256",
                            "name": "voteCount",
                            "type": "uint256"
                        }
                    ],
                    "internalType": "struct Campaign.Candidate[]",
                    "name": "",
                    "type": "tuple[]"
                }
            ],
            "stateMutability": "view",
            "type": "function"
        },
        {
            "inputs": [],
            "name": "getEndTime",
            "outputs": [
                {
                    "internalType": "uint256",
                    "name": "",
                    "type": "uint256"
                }
            ],
            "stateMutability": "view",
            "type": "function"
        },
        {
            "inputs": [],
            "name": "getRemainingTime",
            "outputs": [
                {
                    "internalType": "uint256",
                    "name": "",
                    "type": "uint256"
                }
            ],
            "stateMutability": "view",
            "type": "function"
        },
        {
            "inputs": [],
            "name": "getStartTime",
            "outputs": [
                {
                    "internalType": "uint256",
                    "name": "",
                    "type": "uint256"
                }
            ],
            "stateMutability": "view",
            "type": "function"
        },
        {
            "inputs": [],
            "name": "getVotingStatus",
            "outputs": [
                {
                    "internalType": "bool",
                    "name": "",
                    "type": "bool"
                }
            ],
            "stateMutability": "view",
            "type": "function"
        },
        {
            "inputs": [],
            "name": "owner",
            "outputs": [
                {
                    "internalType": "address",
                    "name": "",
                    "type": "address"
                }
            ],
            "stateMutability": "view",
            "type": "function"
        },
        {
            "inputs": [
                {
                    "internalType": "uint256",
                    "name": "_candidateIndex",
                    "type": "uint256"
                }
            ],
            "name": "vote",
            "outputs": [],
            "stateMutability": "nonpayable",
            "type": "function"
        },
        {
            "inputs": [
                {
                    "internalType": "address",
                    "name": "",
                    "type": "address"
                }
            ],
            "name": "voters",
            "outputs": [
                {
                    "internalType": "bool",
                    "name": "",
                    "type": "bool"
                }
            ],
            "stateMutability": "view",
            "type": "function"
        },
        {
            "inputs": [],
            "name": "votingEnd",
            "outputs": [
                {
                    "internalType": "uint256",
                    "name": "",
                    "type": "uint256"
                }
            ],
            "stateMutability": "view",
            "type": "function"
        },
        {
            "inputs": [],
            "name": "votingStart",
            "outputs": [
                {
                    "internalType": "uint256",
                    "name": "",
                    "type": "uint256"
                }
            ],
            "stateMutability": "view",
            "type": "function"
        }
    ],
    "bytecode": "0x608060405260006005556040518060400160405280600d81526020017f43616d706169676e204e616d6500000000000000000000000000000000000000815250600690816200004f919062000498565b506040518060400160405280601481526020017f43616d706169676e204465736372697074696f6e0000000000000000000000008152506007908162000096919062000498565b506000600855348015620000a957600080fd5b5060405162001ff338038062001ff38339818101604052810190620000cf919062000875565b60005b87518110156200017457600060405180604001604052808a8481518110620000ff57620000fe62000985565b5b6020026020010151815260200160008152509080600181540180825580915050600190039060005260206000209060020201600090919091909150600082015181600001908162000151919062000498565b5060208201518160010155505080806200016b90620009e3565b915050620000d2565b508360058190555082600690816200018d919062000498565b5081600790816200019f919062000498565b508560088190555084600160006101000a81548173ffffffffffffffffffffffffffffffffffffffff021916908373ffffffffffffffffffffffffffffffffffffffff16021790555080600381905550603c86620001fe919062000a30565b816200020b919062000a7b565b6004819055505050505050505062000ab6565b600081519050919050565b7f4e487b7100000000000000000000000000000000000000000000000000000000600052604160045260246000fd5b7f4e487b7100000000000000000000000000000000000000000000000000000000600052602260045260246000fd5b60006002820490506001821680620002a057607f821691505b602082108103620002b657620002b562000258565b5b50919050565b60008190508160005260206000209050919050565b60006020601f8301049050919050565b600082821b905092915050565b600060088302620003207fffffffffffffffffffffffffffffffffffffffffffffffffffffffffffffffff82620002e1565b6200032c8683620002e1565b95508019841693508086168417925050509392505050565b6000819050919050565b6000819050919050565b600062000379620003736200036d8462000344565b6200034e565b62000344565b9050919050565b6000819050919050565b620003958362000358565b620003ad620003a48262000380565b848454620002ee565b825550505050565b600090565b620003c4620003b5565b620003d18184846200038a565b505050565b5b81811015620003f957620003ed600082620003ba565b600181019050620003d7565b5050565b601f82111562000448576200041281620002bc565b6200041d84620002d1565b810160208510156200042d578190505b620004456200043c85620002d1565b830182620003d6565b50505b505050565b600082821c905092915050565b60006200046d600019846008026200044d565b1980831691505092915050565b60006200048883836200045a565b9150826002028217905092915050565b620004a3826200021e565b67ffffffffffffffff811115620004bf57620004be62000229565b5b620004cb825462000287565b620004d8828285620003fd565b600060209050601f831160018114620005105760008415620004fb578287015190505b6200050785826200047a565b86555062000577565b601f1984166200052086620002bc565b60005b828110156200054a5784890151825560018201915060208501945060208101905062000523565b868310156200056a578489015162000566601f8916826200045a565b8355505b6001600288020188555050505b505050505050565b6000604051905090565b600080fd5b600080fd5b600080fd5b6000601f19601f8301169050919050565b620005b48262000598565b810181811067ffffffffffffffff82111715620005d657620005d562000229565b5b80604052505050565b6000620005eb6200057f565b9050620005f98282620005a9565b919050565b600067ffffffffffffffff8211156200061c576200061b62000229565b5b602082029050602081019050919050565b600080fd5b600080fd5b600067ffffffffffffffff82111562000655576200065462000229565b5b620006608262000598565b9050602081019050919050565b60005b838110156200068d57808201518184015260208101905062000670565b60008484015250505050565b6000620006b0620006aa8462000637565b620005df565b905082815260208101848484011115620006cf57620006ce62000632565b5b620006dc8482856200066d565b509392505050565b600082601f830112620006fc57620006fb62000593565b5b81516200070e84826020860162000699565b91505092915050565b60006200072e6200072884620005fe565b620005df565b905080838252602082019050602084028301858111156200075457620007536200062d565b5b835b81811015620007a257805167ffffffffffffffff8111156200077d576200077c62000593565b5b8086016200078c8982620006e4565b8552602085019450505060208101905062000756565b5050509392505050565b600082601f830112620007c457620007c362000593565b5b8151620007d684826020860162000717565b91505092915050565b620007ea8162000344565b8114620007f657600080fd5b50565b6000815190506200080a81620007df565b92915050565b600073ffffffffffffffffffffffffffffffffffffffff82169050919050565b60006200083d8262000810565b9050919050565b6200084f8162000830565b81146200085b57600080fd5b50565b6000815190506200086f8162000844565b92915050565b600080600080600080600060e0888a03121562000897576200089662000589565b5b600088015167ffffffffffffffff811115620008b857620008b76200058e565b5b620008c68a828b01620007ac565b9750506020620008d98a828b01620007f9565b9650506040620008ec8a828b016200085e565b9550506060620008ff8a828b01620007f9565b945050608088015167ffffffffffffffff8111156200092357620009226200058e565b5b620009318a828b01620006e4565b93505060a088015167ffffffffffffffff8111156200095557620009546200058e565b5b620009638a828b01620006e4565b92505060c0620009768a828b01620007f9565b91505092959891949750929550565b7f4e487b7100000000000000000000000000000000000000000000000000000000600052603260045260246000fd5b7f4e487b7100000000000000000000000000000000000000000000000000000000600052601160045260246000fd5b6000620009f08262000344565b91507fffffffffffffffffffffffffffffffffffffffffffffffffffffffffffffffff820362000a255762000a24620009b4565b5b600182019050919050565b600062000a3d8262000344565b915062000a4a8362000344565b925082820262000a5a8162000344565b9150828204841483151762000a745762000a73620009b4565b5b5092915050565b600062000a888262000344565b915062000a958362000344565b925082820190508082111562000ab05762000aaf620009b4565b5b92915050565b61152d8062000ac66000396000f3fe608060405234801561001057600080fd5b50600436106101005760003560e01c8063581c281c11610097578063a3ec138d11610066578063a3ec138d1461027c578063ac0a42fd146102ac578063c828371e146102ca578063efb98bcf146102e857610100565b8063581c281c1461020457806385a38635146102225780638da5cb5b1461024057806390a9ab901461025e57610100565b80633477ee2e116100d35780633477ee2e1461017b5780634137e733146101ac578063439f5ac2146101ca578063462e91ec146101e857610100565b80630121b93f1461010557806304098338146101215780630574f5901461013f578063101158af1461015d575b600080fd5b61011f600480360381019061011a91906109e1565b610306565b005b6101296104f9565b6040516101369190610a1d565b60405180910390f35b6101476104ff565b6040516101549190610ac8565b60405180910390f35b61016561058d565b6040516101729190610a1d565b60405180910390f35b610195600480360381019061019091906109e1565b610593565b6040516101a3929190610aea565b60405180910390f35b6101b461064f565b6040516101c19190610ac8565b60405180910390f35b6101d26106dd565b6040516101df9190610a1d565b60405180910390f35b61020260048036038101906101fd9190610c4f565b6106e7565b005b61020c6107dd565b6040516102199190610cb3565b60405180910390f35b61022a6107f7565b6040516102379190610a1d565b60405180910390f35b6102486107fd565b6040516102559190610d0f565b60405180910390f35b610266610823565b6040516102739190610e82565b60405180910390f35b61029660048036038101906102919190610ed0565b61091e565b6040516102a39190610cb3565b60405180910390f35b6102b461093e565b6040516102c19190610a1d565b60405180910390f35b6102d2610944565b6040516102df9190610a1d565b60405180910390f35b6102f061094e565b6040516102fd9190610a1d565b60405180910390f35b60035442101561034b576040517f08c379a000000000000000000000000000000000000000000000000000000000815260040161034290610f49565b60405180910390fd5b600454421061038f576040517f08c379a000000000000000000000000000000000000000000000000000000000815260040161038690610fb5565b60405180910390fd5b600260003373ffffffffffffffffffffffffffffffffffffffff1673ffffffffffffffffffffffffffffffffffffffff16815260200190815260200160002060009054906101000a900460ff161561041c576040517f08c379a000000000000000000000000000000000000000000000000000000000815260040161041390611021565b60405180910390fd5b6000805490508110610463576040517f08c379a000000000000000000000000000000000000000000000000000000000815260040161045a9061108d565b60405180910390fd5b60008181548110610477576104766110ad565b5b906000526020600020906002020160010160008154809291906104999061110b565b91905055506001600260003373ffffffffffffffffffffffffffffffffffffffff1673ffffffffffffffffffffffffffffffffffffffff16815260200190815260200160002060006101000a81548160ff02191690831515021790555050565b60085481565b6007805461050c90611182565b80601f016020809104026020016040519081016040528092919081815260200182805461053890611182565b80156105855780601f1061055a57610100808354040283529160200191610585565b820191906000526020600020905b81548152906001019060200180831161056857829003601f168201915b505050505081565b60035481565b600081815481106105a357600080fd5b90600052602060002090600202016000915090508060000180546105c690611182565b80601f01602080910402602001604051908101604052809291908181526020018280546105f290611182565b801561063f5780601f106106145761010080835404028352916020019161063f565b820191906000526020600020905b81548152906001019060200180831161062257829003601f168201915b5050505050908060010154905082565b6006805461065c90611182565b80601f016020809104026020016040519081016040528092919081815260200182805461068890611182565b80156106d55780601f106106aa576101008083540402835291602001916106d5565b820191906000526020600020905b8154815290600101906020018083116106b857829003601f168201915b505050505081565b6000600454905090565b600160009054906101000a900473ffffffffffffffffffffffffffffffffffffffff1673ffffffffffffffffffffffffffffffffffffffff163373ffffffffffffffffffffffffffffffffffffffff1614610777576040517f08c379a000000000000000000000000000000000000000000000000000000000815260040161076e90611225565b60405180910390fd5b600060405180604001604052808381526020016000815250908060018154018082558091505060019003906000526020600020906002020160009091909190915060008201518160000190816107cd91906113f1565b5060208201518160010155505050565b600060035442101580156107f2575060045442105b905090565b60045481565b600160009054906101000a900473ffffffffffffffffffffffffffffffffffffffff1681565b60606000805480602002602001604051908101604052809291908181526020016000905b82821015610915578382906000526020600020906002020160405180604001604052908160008201805461087a90611182565b80601f01602080910402602001604051908101604052809291908181526020018280546108a690611182565b80156108f35780601f106108c8576101008083540402835291602001916108f3565b820191906000526020600020905b8154815290600101906020018083116108d657829003601f168201915b5050505050815260200160018201548152505081526020019060010190610847565b50505050905090565b60026020528060005260406000206000915054906101000a900460ff1681565b60055481565b6000600354905090565b600060045442106109625760009050610994565b6003544210156109835760035460045461097c91906114c3565b9050610994565b4260045461099191906114c3565b90505b90565b6000604051905090565b600080fd5b600080fd5b6000819050919050565b6109be816109ab565b81146109c957600080fd5b50565b6000813590506109db816109b5565b92915050565b6000602082840312156109f7576109f66109a1565b5b6000610a05848285016109cc565b91505092915050565b610a17816109ab565b82525050565b6000602082019050610a326000830184610a0e565b92915050565b600081519050919050565b600082825260208201905092915050565b60005b83811015610a72578082015181840152602081019050610a57565b60008484015250505050565b6000601f19601f8301169050919050565b6000610a9a82610a38565b610aa48185610a43565b9350610ab4818560208601610a54565b610abd81610a7e565b840191505092915050565b60006020820190508181036000830152610ae28184610a8f565b905092915050565b60006040820190508181036000830152610b048185610a8f565b9050610b136020830184610a0e565b9392505050565b600080fd5b600080fd5b7f4e487b7100000000000000000000000000000000000000000000000000000000600052604160045260246000fd5b610b5c82610a7e565b810181811067ffffffffffffffff82111715610b7b57610b7a610b24565b5b80604052505050565b6000610b8e610997565b9050610b9a8282610b53565b919050565b600067ffffffffffffffff821115610bba57610bb9610b24565b5b610bc382610a7e565b9050602081019050919050565b82818337600083830152505050565b6000610bf2610bed84610b9f565b610b84565b905082815260208101848484011115610c0e57610c0d610b1f565b5b610c19848285610bd0565b509392505050565b600082601f830112610c3657610c35610b1a565b5b8135610c46848260208601610bdf565b91505092915050565b600060208284031215610c6557610c646109a1565b5b600082013567ffffffffffffffff811115610c8357610c826109a6565b5b610c8f84828501610c21565b91505092915050565b60008115159050919050565b610cad81610c98565b82525050565b6000602082019050610cc86000830184610ca4565b92915050565b600073ffffffffffffffffffffffffffffffffffffffff82169050919050565b6000610cf982610cce565b9050919050565b610d0981610cee565b82525050565b6000602082019050610d246000830184610d00565b92915050565b600081519050919050565b600082825260208201905092915050565b6000819050602082019050919050565b600082825260208201905092915050565b6000610d7282610a38565b610d7c8185610d56565b9350610d8c818560208601610a54565b610d9581610a7e565b840191505092915050565b610da9816109ab565b82525050565b60006040830160008301518482036000860152610dcc8282610d67565b9150506020830151610de16020860182610da0565b508091505092915050565b6000610df88383610daf565b905092915050565b6000602082019050919050565b6000610e1882610d2a565b610e228185610d35565b935083602082028501610e3485610d46565b8060005b85811015610e705784840389528151610e518582610dec565b9450610e5c83610e00565b925060208a01995050600181019050610e38565b50829750879550505050505092915050565b60006020820190508181036000830152610e9c8184610e0d565b905092915050565b610ead81610cee565b8114610eb857600080fd5b50565b600081359050610eca81610ea4565b92915050565b600060208284031215610ee657610ee56109a1565b5b6000610ef484828501610ebb565b91505092915050565b7f566f74696e6720686173206e6f742073746172746564207965742e0000000000600082015250565b6000610f33601b83610a43565b9150610f3e82610efd565b602082019050919050565b60006020820190508181036000830152610f6281610f26565b9050919050565b7f566f74696e672068617320656e6465642e000000000000000000000000000000600082015250565b6000610f9f601183610a43565b9150610faa82610f69565b602082019050919050565b60006020820190508181036000830152610fce81610f92565b9050919050565b7f596f75206861766520616c726561647920766f7465642e000000000000000000600082015250565b600061100b601783610a43565b915061101682610fd5565b602082019050919050565b6000602082019050818103600083015261103a81610ffe565b9050919050565b7f496e76616c69642063616e64696461746520696e6465782e0000000000000000600082015250565b6000611077601883610a43565b915061108282611041565b602082019050919050565b600060208201905081810360008301526110a68161106a565b9050919050565b7f4e487b7100000000000000000000000000000000000000000000000000000000600052603260045260246000fd5b7f4e487b7100000000000000000000000000000000000000000000000000000000600052601160045260246000fd5b6000611116826109ab565b91507fffffffffffffffffffffffffffffffffffffffffffffffffffffffffffffffff8203611148576111476110dc565b5b600182019050919050565b7f4e487b7100000000000000000000000000000000000000000000000000000000600052602260045260246000fd5b6000600282049050600182168061119a57607f821691505b6020821081036111ad576111ac611153565b5b50919050565b7f4f6e6c79206f776e65722063616e2063616c6c20746869732066756e6374696f60008201527f6e00000000000000000000000000000000000000000000000000000000000000602082015250565b600061120f602183610a43565b915061121a826111b3565b604082019050919050565b6000602082019050818103600083015261123e81611202565b9050919050565b60008190508160005260206000209050919050565b60006020601f8301049050919050565b600082821b905092915050565b6000600883026112a77fffffffffffffffffffffffffffffffffffffffffffffffffffffffffffffffff8261126a565b6112b1868361126a565b95508019841693508086168417925050509392505050565b6000819050919050565b60006112ee6112e96112e4846109ab565b6112c9565b6109ab565b9050919050565b6000819050919050565b611308836112d3565b61131c611314826112f5565b848454611277565b825550505050565b600090565b611331611324565b61133c8184846112ff565b505050565b5b8181101561136057611355600082611329565b600181019050611342565b5050565b601f8211156113a55761137681611245565b61137f8461125a565b8101602085101561138e578190505b6113a261139a8561125a565b830182611341565b50505b505050565b600082821c905092915050565b60006113c8600019846008026113aa565b1980831691505092915050565b60006113e183836113b7565b9150826002028217905092915050565b6113fa82610a38565b67ffffffffffffffff81111561141357611412610b24565b5b61141d8254611182565b611428828285611364565b600060209050601f83116001811461145b5760008415611449578287015190505b61145385826113d5565b8655506114bb565b601f19841661146986611245565b60005b828110156114915784890151825560018201915060208501945060208101905061146c565b868310156114ae57848901516114aa601f8916826113b7565b8355505b6001600288020188555050505b505050505050565b60006114ce826109ab565b91506114d9836109ab565b92508282039050818111156114f1576114f06110dc565b5b9291505056fea2646970667358221220f9c0b17ce3d962acbd2311ed8469187020725aabc5346bb29d6bcc23e00aad8d64736f6c63430008110033",
    "linkReferences": {},
    "deployedLinkReferences": {}
}