{
  "_format": "hh-sol-artifact-1",
  "contractName": "Campaign",
  "sourceName": "contracts/Campaign.sol",
  "abi": [
    {
      "inputs": [
        {
          "internalType": "string[]",
          "name": "_candidateNames",
          "type": "string[]"
        },
        {
          "internalType": "uint256",
          "name": "_durationInMinutes",
          "type": "uint256"
        },
        {
          "internalType": "address",
          "name": "_creator",
          "type": "address"
        },
        {
          "internalType": "uint256",
          "name": "_campaign_number",
          "type": "uint256"
        },
        {
          "internalType": "string",
          "name": "_campaign_name",
          "type": "string"
        },
        {
          "internalType": "string",
          "name": "_campaign_description",
          "type": "string"
        },
        {
          "internalType": "uint256",
          "name": "startTime",
          "type": "uint256"
        },
        {
          "internalType": "string",
          "name": "_date",
          "type": "string"
        }
      ],
      "stateMutability": "nonpayable",
      "type": "constructor"
    },
    {
      "anonymous": false,
      "inputs": [
        {
          "indexed": false,
          "internalType": "uint256",
          "name": "candidateIndex",
          "type": "uint256"
        },
        {
          "indexed": false,
          "internalType": "uint256",
          "name": "newVoteCount",
          "type": "uint256"
        }
      ],
      "name": "VoteCast",
      "type": "event"
    },
    {
      "inputs": [
        {
          "internalType": "string",
          "name": "_name",
          "type": "string"
        }
      ],
      "name": "addCandidate",
      "outputs": [],
      "stateMutability": "nonpayable",
      "type": "function"
    },
    {
      "inputs": [],
      "name": "campaign_description",
      "outputs": [
        {
          "internalType": "string",
          "name": "",
          "type": "string"
        }
      ],
      "stateMutability": "view",
      "type": "function"
    },
    {
      "inputs": [],
      "name": "campaign_duration",
      "outputs": [
        {
          "internalType": "uint256",
          "name": "",
          "type": "uint256"
        }
      ],
      "stateMutability": "view",
      "type": "function"
    },
    {
      "inputs": [],
      "name": "campaign_name",
      "outputs": [
        {
          "internalType": "string",
          "name": "",
          "type": "string"
        }
      ],
      "stateMutability": "view",
      "type": "function"
    },
    {
      "inputs": [],
      "name": "campaign_number",
      "outputs": [
        {
          "internalType": "uint256",
          "name": "",
          "type": "uint256"
        }
      ],
      "stateMutability": "view",
      "type": "function"
    },
    {
      "inputs": [
        {
          "internalType": "uint256",
          "name": "",
          "type": "uint256"
        }
      ],
      "name": "candidates",
      "outputs": [
        {
          "internalType": "string",
          "name": "name",
          "type": "string"
        },
        {
          "internalType": "uint256",
          "name": "voteCount",
          "type": "uint256"
        }
      ],
      "stateMutability": "view",
      "type": "function"
    },
    {
      "inputs": [],
      "name": "date",
      "outputs": [
        {
          "internalType": "string",
          "name": "",
          "type": "string"
        }
      ],
      "stateMutability": "view",
      "type": "function"
    },
    {
      "inputs": [],
      "name": "getAllVotesOfCandidates",
      "outputs": [
        {
          "components": [
            {
              "internalType": "string",
              "name": "name",
              "type": "string"
            },
            {
              "internalType": "uint256",
              "name": "voteCount",
              "type": "uint256"
            }
          ],
          "internalType": "struct Campaign.Candidate[]",
          "name": "",
          "type": "tuple[]"
        }
      ],
      "stateMutability": "view",
      "type": "function"
    },
    {
      "inputs": [],
      "name": "getCampaignDate",
      "outputs": [
        {
          "internalType": "string",
          "name": "",
          "type": "string"
        }
      ],
      "stateMutability": "view",
      "type": "function"
    },
    {
      "inputs": [],
      "name": "getCampaignDescription",
      "outputs": [
        {
          "internalType": "string",
          "name": "",
          "type": "string"
        }
      ],
      "stateMutability": "view",
      "type": "function"
    },
    {
      "inputs": [],
      "name": "getCampaignDuration",
      "outputs": [
        {
          "internalType": "uint256",
          "name": "",
          "type": "uint256"
        }
      ],
      "stateMutability": "view",
      "type": "function"
    },
    {
      "inputs": [],
      "name": "getCampaignName",
      "outputs": [
        {
          "internalType": "string",
          "name": "",
          "type": "string"
        }
      ],
      "stateMutability": "view",
      "type": "function"
    },
    {
      "inputs": [],
      "name": "getCampaignNumber",
      "outputs": [
        {
          "internalType": "uint256",
          "name": "",
          "type": "uint256"
        }
      ],
      "stateMutability": "view",
      "type": "function"
    },
    {
      "inputs": [],
      "name": "getCampaignOwner",
      "outputs": [
        {
          "internalType": "address",
          "name": "",
          "type": "address"
        }
      ],
      "stateMutability": "view",
      "type": "function"
    },
    {
      "inputs": [
        {
          "internalType": "uint256",
          "name": "index",
          "type": "uint256"
        }
      ],
      "name": "getCandidate",
      "outputs": [
        {
          "internalType": "string",
          "name": "",
          "type": "string"
        },
        {
          "internalType": "uint256",
          "name": "",
          "type": "uint256"
        }
      ],
      "stateMutability": "view",
      "type": "function"
    },
    {
      "inputs": [],
      "name": "getCandidatesCount",
      "outputs": [
        {
          "internalType": "uint256",
          "name": "",
          "type": "uint256"
        }
      ],
      "stateMutability": "view",
      "type": "function"
    },
    {
      "inputs": [],
      "name": "getEndTime",
      "outputs": [
        {
          "internalType": "uint256",
          "name": "",
          "type": "uint256"
        }
      ],
      "stateMutability": "view",
      "type": "function"
    },
    {
      "inputs": [],
      "name": "getRemainingTime",
      "outputs": [
        {
          "internalType": "uint256",
          "name": "",
          "type": "uint256"
        }
      ],
      "stateMutability": "view",
      "type": "function"
    },
    {
      "inputs": [],
      "name": "getStartTime",
      "outputs": [
        {
          "internalType": "uint256",
          "name": "",
          "type": "uint256"
        }
      ],
      "stateMutability": "view",
      "type": "function"
    },
    {
      "inputs": [],
      "name": "getVotersCount",
      "outputs": [
        {
          "internalType": "uint256",
          "name": "",
          "type": "uint256"
        }
      ],
      "stateMutability": "view",
      "type": "function"
    },
    {
      "inputs": [],
      "name": "getVotingStatus",
      "outputs": [
        {
          "internalType": "bool",
          "name": "",
          "type": "bool"
        }
      ],
      "stateMutability": "view",
      "type": "function"
    },
    {
      "inputs": [
        {
          "internalType": "address",
          "name": "_address",
          "type": "address"
        }
      ],
      "name": "isOwner",
      "outputs": [
        {
          "internalType": "bool",
          "name": "",
          "type": "bool"
        }
      ],
      "stateMutability": "view",
      "type": "function"
    },
    {
      "inputs": [
        {
          "internalType": "address",
          "name": "_address",
          "type": "address"
        }
      ],
      "name": "isVoted",
      "outputs": [
        {
          "internalType": "bool",
          "name": "",
          "type": "bool"
        }
      ],
      "stateMutability": "view",
      "type": "function"
    },
    {
      "inputs": [],
      "name": "owner",
      "outputs": [
        {
          "internalType": "address",
          "name": "",
          "type": "address"
        }
      ],
      "stateMutability": "view",
      "type": "function"
    },
    {
      "inputs": [
        {
          "internalType": "uint256",
          "name": "_candidateIndex",
          "type": "uint256"
        }
      ],
      "name": "vote",
      "outputs": [],
      "stateMutability": "nonpayable",
      "type": "function"
    },
    {
      "inputs": [
        {
          "internalType": "address",
          "name": "",
          "type": "address"
        }
      ],
      "name": "voters",
      "outputs": [
        {
          "internalType": "bool",
          "name": "",
          "type": "bool"
        }
      ],
      "stateMutability": "view",
      "type": "function"
    },
    {
      "inputs": [],
      "name": "votingEnd",
      "outputs": [
        {
          "internalType": "uint256",
          "name": "",
          "type": "uint256"
        }
      ],
      "stateMutability": "view",
      "type": "function"
    },
    {
      "inputs": [],
      "name": "votingStart",
      "outputs": [
        {
          "internalType": "uint256",
          "name": "",
          "type": "uint256"
        }
      ],
      "stateMutability": "view",
      "type": "function"
    }
  ],
  "bytecode": "0x608060405260006005556040518060400160405280600d81526020017f43616d706169676e204e616d6500000000000000000000000000000000000000815250600690816200004f91906200054a565b506040518060400160405280601481526020017f43616d706169676e204465736372697074696f6e000000000000000000000000815250600790816200009691906200054a565b5060006008556040518060400160405280600481526020017f446174650000000000000000000000000000000000000000000000000000000081525060099081620000e291906200054a565b50348015620000f057600080fd5b506040516200293138038062002931833981810160405281019062000116919062000927565b60005b8851811015620001bb57600060405180604001604052808b848151811062000146576200014562000a6c565b5b602002602001015181526020016000815250908060018154018082558091505060019003906000526020600020906002020160009091909190915060008201518160000190816200019891906200054a565b506020820151816001015550508080620001b29062000aca565b91505062000119565b50846005819055508360069081620001d491906200054a565b508260079081620001e691906200054a565b508660088190555085600160006101000a81548173ffffffffffffffffffffffffffffffffffffffff021916908373ffffffffffffffffffffffffffffffffffffffff16021790555081600381905550603c8762000245919062000b17565b8262000252919062000b62565b60048190555080600990816200026991906200054a565b506001600260008873ffffffffffffffffffffffffffffffffffffffff1673ffffffffffffffffffffffffffffffffffffffff16815260200190815260200160002060006101000a81548160ff021916908315150217905550505050505050505062000b9d565b600081519050919050565b7f4e487b7100000000000000000000000000000000000000000000000000000000600052604160045260246000fd5b7f4e487b7100000000000000000000000000000000000000000000000000000000600052602260045260246000fd5b600060028204905060018216806200035257607f821691505b6020821081036200036857620003676200030a565b5b50919050565b60008190508160005260206000209050919050565b60006020601f8301049050919050565b600082821b905092915050565b600060088302620003d27fffffffffffffffffffffffffffffffffffffffffffffffffffffffffffffffff8262000393565b620003de868362000393565b95508019841693508086168417925050509392505050565b6000819050919050565b6000819050919050565b60006200042b620004256200041f84620003f6565b62000400565b620003f6565b9050919050565b6000819050919050565b62000447836200040a565b6200045f620004568262000432565b848454620003a0565b825550505050565b600090565b6200047662000467565b620004838184846200043c565b505050565b5b81811015620004ab576200049f6000826200046c565b60018101905062000489565b5050565b601f821115620004fa57620004c4816200036e565b620004cf8462000383565b81016020851015620004df578190505b620004f7620004ee8562000383565b83018262000488565b50505b505050565b600082821c905092915050565b60006200051f60001984600802620004ff565b1980831691505092915050565b60006200053a83836200050c565b9150826002028217905092915050565b6200055582620002d0565b67ffffffffffffffff811115620005715762000570620002db565b5b6200057d825462000339565b6200058a828285620004af565b600060209050601f831160018114620005c25760008415620005ad578287015190505b620005b985826200052c565b86555062000629565b601f198416620005d2866200036e565b60005b82811015620005fc57848901518255600182019150602085019450602081019050620005d5565b868310156200061c578489015162000618601f8916826200050c565b8355505b6001600288020188555050505b505050505050565b6000604051905090565b600080fd5b600080fd5b600080fd5b6000601f19601f8301169050919050565b62000666826200064a565b810181811067ffffffffffffffff82111715620006885762000687620002db565b5b80604052505050565b60006200069d62000631565b9050620006ab82826200065b565b919050565b600067ffffffffffffffff821115620006ce57620006cd620002db565b5b602082029050602081019050919050565b600080fd5b600080fd5b600067ffffffffffffffff821115620007075762000706620002db565b5b62000712826200064a565b9050602081019050919050565b60005b838110156200073f57808201518184015260208101905062000722565b60008484015250505050565b6000620007626200075c84620006e9565b62000691565b905082815260208101848484011115620007815762000780620006e4565b5b6200078e8482856200071f565b509392505050565b600082601f830112620007ae57620007ad62000645565b5b8151620007c08482602086016200074b565b91505092915050565b6000620007e0620007da84620006b0565b62000691565b90508083825260208201905060208402830185811115620008065762000805620006df565b5b835b818110156200085457805167ffffffffffffffff8111156200082f576200082e62000645565b5b8086016200083e898262000796565b8552602085019450505060208101905062000808565b5050509392505050565b600082601f83011262000876576200087562000645565b5b815162000888848260208601620007c9565b91505092915050565b6200089c81620003f6565b8114620008a857600080fd5b50565b600081519050620008bc8162000891565b92915050565b600073ffffffffffffffffffffffffffffffffffffffff82169050919050565b6000620008ef82620008c2565b9050919050565b6200090181620008e2565b81146200090d57600080fd5b50565b6000815190506200092181620008f6565b92915050565b600080600080600080600080610100898b0312156200094b576200094a6200063b565b5b600089015167ffffffffffffffff8111156200096c576200096b62000640565b5b6200097a8b828c016200085e565b98505060206200098d8b828c01620008ab565b9750506040620009a08b828c0162000910565b9650506060620009b38b828c01620008ab565b955050608089015167ffffffffffffffff811115620009d757620009d662000640565b5b620009e58b828c0162000796565b94505060a089015167ffffffffffffffff81111562000a095762000a0862000640565b5b62000a178b828c0162000796565b93505060c062000a2a8b828c01620008ab565b92505060e089015167ffffffffffffffff81111562000a4e5762000a4d62000640565b5b62000a5c8b828c0162000796565b9150509295985092959890939650565b7f4e487b7100000000000000000000000000000000000000000000000000000000600052603260045260246000fd5b7f4e487b7100000000000000000000000000000000000000000000000000000000600052601160045260246000fd5b600062000ad782620003f6565b91507fffffffffffffffffffffffffffffffffffffffffffffffffffffffffffffffff820362000b0c5762000b0b62000a9b565b5b600182019050919050565b600062000b2482620003f6565b915062000b3183620003f6565b925082820262000b4181620003f6565b9150828204841483151762000b5b5762000b5a62000a9b565b5b5092915050565b600062000b6f82620003f6565b915062000b7c83620003f6565b925082820190508082111562000b975762000b9662000a9b565b5b92915050565b611d848062000bad6000396000f3fe608060405234801561001057600080fd5b50600436106101c45760003560e01c80637bc25483116100f9578063ac0a42fd11610097578063c0f2a77711610071578063c0f2a777146104df578063c828371e146104fd578063cbff75cb1461051b578063efb98bcf1461054b576101c4565b8063ac0a42fd14610485578063bb9aa28f146104a3578063c094f585146104c1576101c4565b8063885e7c62116100d3578063885e7c62146103fb5780638da5cb5b1461041957806390a9ab9014610437578063a3ec138d14610455576101c4565b80637bc25483146103a15780637cd9eb4b146103bf57806385a38635146103dd576101c4565b806335b8e82011610166578063462e91ec11610140578063462e91ec1461032b578063581c281c146103475780635e06280b1461036557806374d8c64314610383576101c4565b806335b8e820146102be5780634137e733146102ef578063439f5ac21461030d576101c4565b8063101158af116101a2578063101158af146102215780632f54bf6e1461023f578063323046b11461026f5780633477ee2e1461028d576101c4565b80630121b93f146101c957806304098338146101e55780630574f59014610203575b600080fd5b6101e360048036038101906101de919061116f565b610569565b005b6101ed6107ba565b6040516101fa91906111ab565b60405180910390f35b61020b6107c0565b6040516102189190611256565b60405180910390f35b61022961084e565b60405161023691906111ab565b60405180910390f35b610259600480360381019061025491906112d6565b610854565b604051610266919061131e565b60405180910390f35b6102776108ae565b6040516102849190611256565b60405180910390f35b6102a760048036038101906102a2919061116f565b61093c565b6040516102b5929190611339565b60405180910390f35b6102d860048036038101906102d3919061116f565b6109f8565b6040516102e6929190611339565b60405180910390f35b6102f7610b22565b6040516103049190611256565b60405180910390f35b610315610bb0565b60405161032291906111ab565b60405180910390f35b6103456004803603810190610340919061149e565b610bba565b005b61034f610cb0565b60405161035c919061131e565b60405180910390f35b61036d610cca565b60405161037a91906114f6565b60405180910390f35b61038b610cf4565b6040516103989190611256565b60405180910390f35b6103a9610d86565b6040516103b691906111ab565b60405180910390f35b6103c7610d90565b6040516103d49190611256565b60405180910390f35b6103e5610e22565b6040516103f291906111ab565b60405180910390f35b610403610e28565b6040516104109190611256565b60405180910390f35b610421610eba565b60405161042e91906114f6565b60405180910390f35b61043f610ee0565b60405161044c9190611669565b60405180910390f35b61046f600480360381019061046a91906112d6565b610fdb565b60405161047c919061131e565b60405180910390f35b61048d610ffb565b60405161049a91906111ab565b60405180910390f35b6104ab611001565b6040516104b891906111ab565b60405180910390f35b6104c961100d565b6040516104d691906111ab565b60405180910390f35b6104e7611017565b6040516104f491906111ab565b60405180910390f35b61050561107c565b60405161051291906111ab565b60405180910390f35b610535600480360381019061053091906112d6565b611086565b604051610542919061131e565b60405180910390f35b6105536110dc565b60405161056091906111ab565b60405180910390f35b6003544210156105ae576040517f08c379a00000000000000000000000000000000000000000000000000000000081526004016105a5906116d7565b60405180910390fd5b60045442106105f2576040517f08c379a00000000000000000000000000000000000000000000000000000000081526004016105e990611743565b60405180910390fd5b600260003373ffffffffffffffffffffffffffffffffffffffff1673ffffffffffffffffffffffffffffffffffffffff16815260200190815260200160002060009054906101000a900460ff161561067f576040517f08c379a0000000000000000000000000000000000000000000000000000000008152600401610676906117af565b60405180910390fd5b60008054905081106106c6576040517f08c379a00000000000000000000000000000000000000000000000000000000081526004016106bd9061181b565b60405180910390fd5b600081815481106106da576106d961183b565b5b906000526020600020906002020160010160008154809291906106fc90611899565b91905055506001600260003373ffffffffffffffffffffffffffffffffffffffff1673ffffffffffffffffffffffffffffffffffffffff16815260200190815260200160002060006101000a81548160ff0219169083151502179055507fc31875ef3ed5138b71a0c1da7e494bc4d2ba4f567084ea481ec9c45f3a93948b816000838154811061078f5761078e61183b565b5b9060005260206000209060020201600101546040516107af9291906118e1565b60405180910390a150565b60085481565b600780546107cd90611939565b80601f01602080910402602001604051908101604052809291908181526020018280546107f990611939565b80156108465780601f1061081b57610100808354040283529160200191610846565b820191906000526020600020905b81548152906001019060200180831161082957829003601f168201915b505050505081565b60035481565b6000600160009054906101000a900473ffffffffffffffffffffffffffffffffffffffff1673ffffffffffffffffffffffffffffffffffffffff168273ffffffffffffffffffffffffffffffffffffffff16149050919050565b600980546108bb90611939565b80601f01602080910402602001604051908101604052809291908181526020018280546108e790611939565b80156109345780601f1061090957610100808354040283529160200191610934565b820191906000526020600020905b81548152906001019060200180831161091757829003601f168201915b505050505081565b6000818154811061094c57600080fd5b906000526020600020906002020160009150905080600001805461096f90611939565b80601f016020809104026020016040519081016040528092919081815260200182805461099b90611939565b80156109e85780601f106109bd576101008083540402835291602001916109e8565b820191906000526020600020905b8154815290600101906020018083116109cb57829003601f168201915b5050505050908060010154905082565b6060600080805490508310610a42576040517f08c379a0000000000000000000000000000000000000000000000000000000008152600401610a39906119b6565b60405180910390fd5b60008381548110610a5657610a5561183b565b5b906000526020600020906002020160000160008481548110610a7b57610a7a61183b565b5b906000526020600020906002020160010154818054610a9990611939565b80601f0160208091040260200160405190810160405280929190818152602001828054610ac590611939565b8015610b125780601f10610ae757610100808354040283529160200191610b12565b820191906000526020600020905b815481529060010190602001808311610af557829003601f168201915b5050505050915091509150915091565b60068054610b2f90611939565b80601f0160208091040260200160405190810160405280929190818152602001828054610b5b90611939565b8015610ba85780601f10610b7d57610100808354040283529160200191610ba8565b820191906000526020600020905b815481529060010190602001808311610b8b57829003601f168201915b505050505081565b6000600454905090565b600160009054906101000a900473ffffffffffffffffffffffffffffffffffffffff1673ffffffffffffffffffffffffffffffffffffffff163373ffffffffffffffffffffffffffffffffffffffff1614610c4a576040517f08c379a0000000000000000000000000000000000000000000000000000000008152600401610c4190611a48565b60405180910390fd5b60006040518060400160405280838152602001600081525090806001815401808255809150506001900390600052602060002090600202016000909190919091506000820151816000019081610ca09190611c14565b5060208201518160010155505050565b60006003544210158015610cc5575060045442105b905090565b6000600160009054906101000a900473ffffffffffffffffffffffffffffffffffffffff16905090565b606060078054610d0390611939565b80601f0160208091040260200160405190810160405280929190818152602001828054610d2f90611939565b8015610d7c5780601f10610d5157610100808354040283529160200191610d7c565b820191906000526020600020905b815481529060010190602001808311610d5f57829003601f168201915b5050505050905090565b6000600854905090565b606060098054610d9f90611939565b80601f0160208091040260200160405190810160405280929190818152602001828054610dcb90611939565b8015610e185780601f10610ded57610100808354040283529160200191610e18565b820191906000526020600020905b815481529060010190602001808311610dfb57829003601f168201915b5050505050905090565b60045481565b606060068054610e3790611939565b80601f0160208091040260200160405190810160405280929190818152602001828054610e6390611939565b8015610eb05780601f10610e8557610100808354040283529160200191610eb0565b820191906000526020600020905b815481529060010190602001808311610e9357829003601f168201915b5050505050905090565b600160009054906101000a900473ffffffffffffffffffffffffffffffffffffffff1681565b60606000805480602002602001604051908101604052809291908181526020016000905b82821015610fd25783829060005260206000209060020201604051806040016040529081600082018054610f3790611939565b80601f0160208091040260200160405190810160405280929190818152602001828054610f6390611939565b8015610fb05780601f10610f8557610100808354040283529160200191610fb0565b820191906000526020600020905b815481529060010190602001808311610f9357829003601f168201915b5050505050815260200160018201548152505081526020019060010190610f04565b50505050905090565b60026020528060005260406000206000915054906101000a900460ff1681565b60055481565b60008080549050905090565b6000600554905090565b6000806000905060005b60008054905081101561107457600081815481106110425761104161183b565b5b9060005260206000209060020201600101548261105f9190611ce6565b9150808061106c90611899565b915050611021565b508091505090565b6000600354905090565b6000600260008373ffffffffffffffffffffffffffffffffffffffff1673ffffffffffffffffffffffffffffffffffffffff16815260200190815260200160002060009054906101000a900460ff169050919050565b600060045442106110f05760009050611122565b6003544210156111115760035460045461110a9190611d1a565b9050611122565b4260045461111f9190611d1a565b90505b90565b6000604051905090565b600080fd5b600080fd5b6000819050919050565b61114c81611139565b811461115757600080fd5b50565b60008135905061116981611143565b92915050565b6000602082840312156111855761118461112f565b5b60006111938482850161115a565b91505092915050565b6111a581611139565b82525050565b60006020820190506111c0600083018461119c565b92915050565b600081519050919050565b600082825260208201905092915050565b60005b838110156112005780820151818401526020810190506111e5565b60008484015250505050565b6000601f19601f8301169050919050565b6000611228826111c6565b61123281856111d1565b93506112428185602086016111e2565b61124b8161120c565b840191505092915050565b60006020820190508181036000830152611270818461121d565b905092915050565b600073ffffffffffffffffffffffffffffffffffffffff82169050919050565b60006112a382611278565b9050919050565b6112b381611298565b81146112be57600080fd5b50565b6000813590506112d0816112aa565b92915050565b6000602082840312156112ec576112eb61112f565b5b60006112fa848285016112c1565b91505092915050565b60008115159050919050565b61131881611303565b82525050565b6000602082019050611333600083018461130f565b92915050565b60006040820190508181036000830152611353818561121d565b9050611362602083018461119c565b9392505050565b600080fd5b600080fd5b7f4e487b7100000000000000000000000000000000000000000000000000000000600052604160045260246000fd5b6113ab8261120c565b810181811067ffffffffffffffff821117156113ca576113c9611373565b5b80604052505050565b60006113dd611125565b90506113e982826113a2565b919050565b600067ffffffffffffffff82111561140957611408611373565b5b6114128261120c565b9050602081019050919050565b82818337600083830152505050565b600061144161143c846113ee565b6113d3565b90508281526020810184848401111561145d5761145c61136e565b5b61146884828561141f565b509392505050565b600082601f83011261148557611484611369565b5b813561149584826020860161142e565b91505092915050565b6000602082840312156114b4576114b361112f565b5b600082013567ffffffffffffffff8111156114d2576114d1611134565b5b6114de84828501611470565b91505092915050565b6114f081611298565b82525050565b600060208201905061150b60008301846114e7565b92915050565b600081519050919050565b600082825260208201905092915050565b6000819050602082019050919050565b600082825260208201905092915050565b6000611559826111c6565b611563818561153d565b93506115738185602086016111e2565b61157c8161120c565b840191505092915050565b61159081611139565b82525050565b600060408301600083015184820360008601526115b3828261154e565b91505060208301516115c86020860182611587565b508091505092915050565b60006115df8383611596565b905092915050565b6000602082019050919050565b60006115ff82611511565b611609818561151c565b93508360208202850161161b8561152d565b8060005b85811015611657578484038952815161163885826115d3565b9450611643836115e7565b925060208a0199505060018101905061161f565b50829750879550505050505092915050565b6000602082019050818103600083015261168381846115f4565b905092915050565b7f566f74696e6720686173206e6f742073746172746564207965742e0000000000600082015250565b60006116c1601b836111d1565b91506116cc8261168b565b602082019050919050565b600060208201905081810360008301526116f0816116b4565b9050919050565b7f566f74696e672068617320656e6465642e000000000000000000000000000000600082015250565b600061172d6011836111d1565b9150611738826116f7565b602082019050919050565b6000602082019050818103600083015261175c81611720565b9050919050565b7f596f75206861766520616c726561647920766f7465642e000000000000000000600082015250565b60006117996017836111d1565b91506117a482611763565b602082019050919050565b600060208201905081810360008301526117c88161178c565b9050919050565b7f496e76616c69642063616e64696461746520696e6465782e0000000000000000600082015250565b60006118056018836111d1565b9150611810826117cf565b602082019050919050565b60006020820190508181036000830152611834816117f8565b9050919050565b7f4e487b7100000000000000000000000000000000000000000000000000000000600052603260045260246000fd5b7f4e487b7100000000000000000000000000000000000000000000000000000000600052601160045260246000fd5b60006118a482611139565b91507fffffffffffffffffffffffffffffffffffffffffffffffffffffffffffffffff82036118d6576118d561186a565b5b600182019050919050565b60006040820190506118f6600083018561119c565b611903602083018461119c565b9392505050565b7f4e487b7100000000000000000000000000000000000000000000000000000000600052602260045260246000fd5b6000600282049050600182168061195157607f821691505b6020821081036119645761196361190a565b5b50919050565b7f496e76616c696420696e64657800000000000000000000000000000000000000600082015250565b60006119a0600d836111d1565b91506119ab8261196a565b602082019050919050565b600060208201905081810360008301526119cf81611993565b9050919050565b7f4f6e6c79206f776e65722063616e2063616c6c20746869732066756e6374696f60008201527f6e00000000000000000000000000000000000000000000000000000000000000602082015250565b6000611a326021836111d1565b9150611a3d826119d6565b604082019050919050565b60006020820190508181036000830152611a6181611a25565b9050919050565b60008190508160005260206000209050919050565b60006020601f8301049050919050565b600082821b905092915050565b600060088302611aca7fffffffffffffffffffffffffffffffffffffffffffffffffffffffffffffffff82611a8d565b611ad48683611a8d565b95508019841693508086168417925050509392505050565b6000819050919050565b6000611b11611b0c611b0784611139565b611aec565b611139565b9050919050565b6000819050919050565b611b2b83611af6565b611b3f611b3782611b18565b848454611a9a565b825550505050565b600090565b611b54611b47565b611b5f818484611b22565b505050565b5b81811015611b8357611b78600082611b4c565b600181019050611b65565b5050565b601f821115611bc857611b9981611a68565b611ba284611a7d565b81016020851015611bb1578190505b611bc5611bbd85611a7d565b830182611b64565b50505b505050565b600082821c905092915050565b6000611beb60001984600802611bcd565b1980831691505092915050565b6000611c048383611bda565b9150826002028217905092915050565b611c1d826111c6565b67ffffffffffffffff811115611c3657611c35611373565b5b611c408254611939565b611c4b828285611b87565b600060209050601f831160018114611c7e5760008415611c6c578287015190505b611c768582611bf8565b865550611cde565b601f198416611c8c86611a68565b60005b82811015611cb457848901518255600182019150602085019450602081019050611c8f565b86831015611cd15784890151611ccd601f891682611bda565b8355505b6001600288020188555050505b505050505050565b6000611cf182611139565b9150611cfc83611139565b9250828201905080821115611d1457611d1361186a565b5b92915050565b6000611d2582611139565b9150611d3083611139565b9250828203905081811115611d4857611d4761186a565b5b9291505056fea2646970667358221220c258ee3f1751e31c89fdc744e0fb6edf4d597a0d20964227bc185d0e2539924f64736f6c63430008110033",
  "linkReferences": {},
  "deployedLinkReferences": {}
}