{
  "_format": "hh-sol-artifact-1",
  "contractName": "CampaignFactory",
  "sourceName": "contracts/CampaignFactory.sol",
  "abi": [
    {
      "anonymous": false,
      "inputs": [
        {
          "indexed": false,
          "internalType": "address",
          "name": "campaignAddress",
          "type": "address"
        },
        {
          "indexed": false,
          "internalType": "address",
          "name": "creator",
          "type": "address"
        }
      ],
      "name": "CampaignCreated",
      "type": "event"
    },
    {
      "inputs": [
        {
          "internalType": "uint256",
          "name": "",
          "type": "uint256"
        }
      ],
      "name": "campaignMetadata",
      "outputs": [
        {
          "internalType": "uint256",
          "name": "durationInMinutes",
          "type": "uint256"
        },
        {
          "internalType": "string",
          "name": "campaignName",
          "type": "string"
        },
        {
          "internalType": "string",
          "name": "campaignDescription",
          "type": "string"
        },
        {
          "internalType": "uint256",
          "name": "startTime",
          "type": "uint256"
        },
        {
          "internalType": "string",
          "name": "date",
          "type": "string"
        },
        {
          "internalType": "uint256",
          "name": "campaignId",
          "type": "uint256"
        }
      ],
      "stateMutability": "view",
      "type": "function"
    },
    {
      "inputs": [
        {
          "internalType": "string[]",
          "name": "_candidateNames",
          "type": "string[]"
        },
        {
          "internalType": "uint256",
          "name": "_durationInMinutes",
          "type": "uint256"
        },
        {
          "internalType": "string",
          "name": "_campaign_name",
          "type": "string"
        },
        {
          "internalType": "string",
          "name": "_campaign_description",
          "type": "string"
        },
        {
          "internalType": "uint256",
          "name": "startTime",
          "type": "uint256"
        },
        {
          "internalType": "string",
          "name": "date",
          "type": "string"
        },
        {
          "internalType": "address[]",
          "name": "_eligible",
          "type": "address[]"
        }
      ],
      "name": "createCampaign",
      "outputs": [],
      "stateMutability": "nonpayable",
      "type": "function"
    },
    {
      "inputs": [
        {
          "internalType": "uint256",
          "name": "",
          "type": "uint256"
        }
      ],
      "name": "deployedCampaigns",
      "outputs": [
        {
          "internalType": "contract Campaign",
          "name": "",
          "type": "address"
        }
      ],
      "stateMutability": "view",
      "type": "function"
    },
    {
      "inputs": [],
      "name": "getAllCampaigns",
      "outputs": [
        {
          "components": [
            {
              "internalType": "uint256",
              "name": "durationInMinutes",
              "type": "uint256"
            },
            {
              "internalType": "string",
              "name": "campaignName",
              "type": "string"
            },
            {
              "internalType": "string",
              "name": "campaignDescription",
              "type": "string"
            },
            {
              "internalType": "uint256",
              "name": "startTime",
              "type": "uint256"
            },
            {
              "internalType": "string",
              "name": "date",
              "type": "string"
            },
            {
              "internalType": "uint256",
              "name": "campaignId",
              "type": "uint256"
            }
          ],
          "internalType": "struct CampaignFactory.CampaignMetadata[]",
          "name": "",
          "type": "tuple[]"
        }
      ],
      "stateMutability": "view",
      "type": "function"
    },
    {
      "inputs": [
        {
          "internalType": "uint256",
          "name": "_campaignId",
          "type": "uint256"
        }
      ],
      "name": "getCampaignAddressById",
      "outputs": [
        {
          "internalType": "address",
          "name": "",
          "type": "address"
        }
      ],
      "stateMutability": "view",
      "type": "function"
    },
    {
      "inputs": [
        {
          "internalType": "uint256",
          "name": "_campaignId",
          "type": "uint256"
        }
      ],
      "name": "getCampaignById",
      "outputs": [
        {
          "components": [
            {
              "internalType": "uint256",
              "name": "durationInMinutes",
              "type": "uint256"
            },
            {
              "internalType": "string",
              "name": "campaignName",
              "type": "string"
            },
            {
              "internalType": "string",
              "name": "campaignDescription",
              "type": "string"
            },
            {
              "internalType": "uint256",
              "name": "startTime",
              "type": "uint256"
            },
            {
              "internalType": "string",
              "name": "date",
              "type": "string"
            },
            {
              "internalType": "uint256",
              "name": "campaignId",
              "type": "uint256"
            }
          ],
          "internalType": "struct CampaignFactory.CampaignMetadata",
          "name": "",
          "type": "tuple"
        }
      ],
      "stateMutability": "view",
      "type": "function"
    },
    {
      "inputs": [],
      "name": "getCampaignCount",
      "outputs": [
        {
          "internalType": "uint256",
          "name": "",
          "type": "uint256"
        }
      ],
      "stateMutability": "view",
      "type": "function"
    },
    {
      "inputs": [
        {
          "internalType": "address",
          "name": "voter",
          "type": "address"
        }
      ],
      "name": "getCampaignsForVoter",
      "outputs": [
        {
          "internalType": "address[]",
          "name": "",
          "type": "address[]"
        }
      ],
      "stateMutability": "view",
      "type": "function"
    },
    {
      "inputs": [],
      "name": "getDeployedCampaigns",
      "outputs": [
        {
          "internalType": "contract Campaign[]",
          "name": "",
          "type": "address[]"
        }
      ],
      "stateMutability": "view",
      "type": "function"
    }
  ],
  "bytecode": "0x6080604052600060025534801561001557600080fd5b50614e71806100256000396000f3fe60806040523480156200001157600080fd5b5060043610620000a05760003560e01c80635e8c25e2116200006f5780635e8c25e21462000153578063606965c614620001895780636caa921814620001c457806386cdf60414620001e6578063e6ffcaa1146200020857620000a0565b8063059b5a2a14620000a55780630d1b5ad514620000db578063339d50a514620000fb5780634acb9d4f1462000131575b600080fd5b620000c36004803603810190620000bd919062000ff5565b6200023e565b604051620000d29190620010f5565b60405180910390f35b620000f96004803603810190620000f3919062001488565b6200052e565b005b620001196004803603810190620001139190620015d6565b62000707565b60405162000128919062001673565b60405180910390f35b6200013b62000747565b6040516200014a91906200174d565b60405180910390f35b6200017160048036038101906200016b9190620015d6565b620007d7565b60405162000180919062001782565b60405180910390f35b620001a76004803603810190620001a19190620015d6565b6200086b565b604051620001bb9695949392919062001839565b60405180910390f35b620001ce62000a68565b604051620001dd9190620018bb565b60405180910390f35b620001f062000a74565b604051620001ff919062001aae565b60405180910390f35b620002266004803603810190620002209190620015d6565b62000cc1565b60405162000235919062001b75565b60405180910390f35b60606000805b6000805490508110156200033f576000818154811062000269576200026862001b99565b5b9060005260206000200160009054906101000a900473ffffffffffffffffffffffffffffffffffffffff1673ffffffffffffffffffffffffffffffffffffffff16634225e7f4856040518263ffffffff1660e01b8152600401620002ce919062001782565b602060405180830381865afa158015620002ec573d6000803e3d6000fd5b505050506040513d601f19601f8201168201806040525081019062000312919062001c05565b1562000329578180620003259062001c66565b9250505b8080620003369062001c66565b91505062000244565b5060008167ffffffffffffffff8111156200035f576200035e6200112f565b5b6040519080825280602002602001820160405280156200038e5781602001602082028036833780820191505090505b5090506000805b600080549050811015620005225760008181548110620003ba57620003b962001b99565b5b9060005260206000200160009054906101000a900473ffffffffffffffffffffffffffffffffffffffff1673ffffffffffffffffffffffffffffffffffffffff16634225e7f4876040518263ffffffff1660e01b81526004016200041f919062001782565b602060405180830381865afa1580156200043d573d6000803e3d6000fd5b505050506040513d601f19601f8201168201806040525081019062000463919062001c05565b156200050c576000818154811062000480576200047f62001b99565b5b9060005260206000200160009054906101000a900473ffffffffffffffffffffffffffffffffffffffff16838381518110620004c157620004c062001b99565b5b602002602001019073ffffffffffffffffffffffffffffffffffffffff16908173ffffffffffffffffffffffffffffffffffffffff16815250508180620005089062001c66565b9250505b8080620005199062001c66565b91505062000395565b50819350505050919050565b60008787336002548989898989604051620005499062000f38565b6200055d9998979695949392919062001d83565b604051809103906000f0801580156200057a573d6000803e3d6000fd5b50905060006040518060c00160405280898152602001888152602001878152602001868152602001858152602001600254815250905060026000815480929190620005c59062001c66565b91905055506000829080600181540180825580915050600190039060005260206000200160009091909190916101000a81548173ffffffffffffffffffffffffffffffffffffffff021916908373ffffffffffffffffffffffffffffffffffffffff16021790555060018190806001815401808255809150506001900390600052602060002090600602016000909190919091506000820151816000015560208201518160010190816200067a919062002071565b50604082015181600201908162000692919062002071565b50606082015181600301556080820151816004019081620006b4919062002071565b5060a0820151816005015550507f6056366dba45431fd6a8854ad9f2594942b02c4f2c3f6fbc329b3079b027b8b48233604051620006f492919062002158565b60405180910390a1505050505050505050565b600081815481106200071857600080fd5b906000526020600020016000915054906101000a900473ffffffffffffffffffffffffffffffffffffffff1681565b60606000805480602002602001604051908101604052809291908181526020018280548015620007cd57602002820191906000526020600020905b8160009054906101000a900473ffffffffffffffffffffffffffffffffffffffff1673ffffffffffffffffffffffffffffffffffffffff168152602001906001019080831162000782575b5050505050905090565b60008080549050821062000822576040517f08c379a00000000000000000000000000000000000000000000000000000000081526004016200081990620021d5565b60405180910390fd5b6000828154811062000839576200083862001b99565b5b9060005260206000200160009054906101000a900473ffffffffffffffffffffffffffffffffffffffff169050919050565b600181815481106200087c57600080fd5b9060005260206000209060060201600091509050806000015490806001018054620008a79062001e74565b80601f0160208091040260200160405190810160405280929190818152602001828054620008d59062001e74565b8015620009265780601f10620008fa5761010080835404028352916020019162000926565b820191906000526020600020905b8154815290600101906020018083116200090857829003601f168201915b5050505050908060020180546200093d9062001e74565b80601f01602080910402602001604051908101604052809291908181526020018280546200096b9062001e74565b8015620009bc5780601f106200099057610100808354040283529160200191620009bc565b820191906000526020600020905b8154815290600101906020018083116200099e57829003601f168201915b505050505090806003015490806004018054620009d99062001e74565b80601f016020809104026020016040519081016040528092919081815260200182805462000a079062001e74565b801562000a585780601f1062000a2c5761010080835404028352916020019162000a58565b820191906000526020600020905b81548152906001019060200180831162000a3a57829003601f168201915b5050505050908060050154905086565b60008080549050905090565b60606001805480602002602001604051908101604052809291908181526020016000905b8282101562000cb857838290600052602060002090600602016040518060c00160405290816000820154815260200160018201805462000ad89062001e74565b80601f016020809104026020016040519081016040528092919081815260200182805462000b069062001e74565b801562000b575780601f1062000b2b5761010080835404028352916020019162000b57565b820191906000526020600020905b81548152906001019060200180831162000b3957829003601f168201915b5050505050815260200160028201805462000b729062001e74565b80601f016020809104026020016040519081016040528092919081815260200182805462000ba09062001e74565b801562000bf15780601f1062000bc55761010080835404028352916020019162000bf1565b820191906000526020600020905b81548152906001019060200180831162000bd357829003601f168201915b505050505081526020016003820154815260200160048201805462000c169062001e74565b80601f016020809104026020016040519081016040528092919081815260200182805462000c449062001e74565b801562000c955780601f1062000c695761010080835404028352916020019162000c95565b820191906000526020600020905b81548152906001019060200180831162000c7757829003601f168201915b505050505081526020016005820154815250508152602001906001019062000a98565b50505050905090565b62000ccb62000f46565b600180549050821062000d15576040517f08c379a000000000000000000000000000000000000000000000000000000000815260040162000d0c90620021d5565b60405180910390fd5b6001828154811062000d2c5762000d2b62001b99565b5b90600052602060002090600602016040518060c00160405290816000820154815260200160018201805462000d619062001e74565b80601f016020809104026020016040519081016040528092919081815260200182805462000d8f9062001e74565b801562000de05780601f1062000db45761010080835404028352916020019162000de0565b820191906000526020600020905b81548152906001019060200180831162000dc257829003601f168201915b5050505050815260200160028201805462000dfb9062001e74565b80601f016020809104026020016040519081016040528092919081815260200182805462000e299062001e74565b801562000e7a5780601f1062000e4e5761010080835404028352916020019162000e7a565b820191906000526020600020905b81548152906001019060200180831162000e5c57829003601f168201915b505050505081526020016003820154815260200160048201805462000e9f9062001e74565b80601f016020809104026020016040519081016040528092919081815260200182805462000ecd9062001e74565b801562000f1e5780601f1062000ef25761010080835404028352916020019162000f1e565b820191906000526020600020905b81548152906001019060200180831162000f0057829003601f168201915b505050505081526020016005820154815250509050919050565b612c4480620021f883390190565b6040518060c001604052806000815260200160608152602001606081526020016000815260200160608152602001600081525090565b6000604051905090565b600080fd5b600080fd5b600073ffffffffffffffffffffffffffffffffffffffff82169050919050565b600062000fbd8262000f90565b9050919050565b62000fcf8162000fb0565b811462000fdb57600080fd5b50565b60008135905062000fef8162000fc4565b92915050565b6000602082840312156200100e576200100d62000f86565b5b60006200101e8482850162000fde565b91505092915050565b600081519050919050565b600082825260208201905092915050565b6000819050602082019050919050565b6200105e8162000fb0565b82525050565b600062001072838362001053565b60208301905092915050565b6000602082019050919050565b6000620010988262001027565b620010a4818562001032565b9350620010b18362001043565b8060005b83811015620010e8578151620010cc888262001064565b9750620010d9836200107e565b925050600181019050620010b5565b5085935050505092915050565b600060208201905081810360008301526200111181846200108b565b905092915050565b600080fd5b6000601f19601f8301169050919050565b7f4e487b7100000000000000000000000000000000000000000000000000000000600052604160045260246000fd5b62001169826200111e565b810181811067ffffffffffffffff821117156200118b576200118a6200112f565b5b80604052505050565b6000620011a062000f7c565b9050620011ae82826200115e565b919050565b600067ffffffffffffffff821115620011d157620011d06200112f565b5b602082029050602081019050919050565b600080fd5b600080fd5b600067ffffffffffffffff8211156200120a57620012096200112f565b5b62001215826200111e565b9050602081019050919050565b82818337600083830152505050565b6000620012486200124284620011ec565b62001194565b905082815260208101848484011115620012675762001266620011e7565b5b6200127484828562001222565b509392505050565b600082601f83011262001294576200129362001119565b5b8135620012a684826020860162001231565b91505092915050565b6000620012c6620012c084620011b3565b62001194565b90508083825260208201905060208402830185811115620012ec57620012eb620011e2565b5b835b818110156200133a57803567ffffffffffffffff81111562001315576200131462001119565b5b8086016200132489826200127c565b85526020850194505050602081019050620012ee565b5050509392505050565b600082601f8301126200135c576200135b62001119565b5b81356200136e848260208601620012af565b91505092915050565b6000819050919050565b6200138c8162001377565b81146200139857600080fd5b50565b600081359050620013ac8162001381565b92915050565b600067ffffffffffffffff821115620013d057620013cf6200112f565b5b602082029050602081019050919050565b6000620013f8620013f284620013b2565b62001194565b905080838252602082019050602084028301858111156200141e576200141d620011e2565b5b835b818110156200144b578062001436888262000fde565b84526020840193505060208101905062001420565b5050509392505050565b600082601f8301126200146d576200146c62001119565b5b81356200147f848260208601620013e1565b91505092915050565b600080600080600080600060e0888a031215620014aa57620014a962000f86565b5b600088013567ffffffffffffffff811115620014cb57620014ca62000f8b565b5b620014d98a828b0162001344565b9750506020620014ec8a828b016200139b565b965050604088013567ffffffffffffffff81111562001510576200150f62000f8b565b5b6200151e8a828b016200127c565b955050606088013567ffffffffffffffff81111562001542576200154162000f8b565b5b620015508a828b016200127c565b9450506080620015638a828b016200139b565b93505060a088013567ffffffffffffffff81111562001587576200158662000f8b565b5b620015958a828b016200127c565b92505060c088013567ffffffffffffffff811115620015b957620015b862000f8b565b5b620015c78a828b0162001455565b91505092959891949750929550565b600060208284031215620015ef57620015ee62000f86565b5b6000620015ff848285016200139b565b91505092915050565b6000819050919050565b6000620016336200162d620016278462000f90565b62001608565b62000f90565b9050919050565b6000620016478262001612565b9050919050565b60006200165b826200163a565b9050919050565b6200166d816200164e565b82525050565b60006020820190506200168a600083018462001662565b92915050565b600081519050919050565b6000819050602082019050919050565b620016b6816200164e565b82525050565b6000620016ca8383620016ab565b60208301905092915050565b6000602082019050919050565b6000620016f08262001690565b620016fc818562001032565b935062001709836200169b565b8060005b8381101562001740578151620017248882620016bc565b97506200173183620016d6565b9250506001810190506200170d565b5085935050505092915050565b60006020820190508181036000830152620017698184620016e3565b905092915050565b6200177c8162000fb0565b82525050565b600060208201905062001799600083018462001771565b92915050565b620017aa8162001377565b82525050565b600081519050919050565b600082825260208201905092915050565b60005b83811015620017ec578082015181840152602081019050620017cf565b60008484015250505050565b60006200180582620017b0565b620018118185620017bb565b935062001823818560208601620017cc565b6200182e816200111e565b840191505092915050565b600060c0820190506200185060008301896200179f565b8181036020830152620018648188620017f8565b905081810360408301526200187a8187620017f8565b90506200188b60608301866200179f565b81810360808301526200189f8185620017f8565b9050620018b060a08301846200179f565b979650505050505050565b6000602082019050620018d260008301846200179f565b92915050565b600081519050919050565b600082825260208201905092915050565b6000819050602082019050919050565b6200190f8162001377565b82525050565b600082825260208201905092915050565b60006200193382620017b0565b6200193f818562001915565b935062001951818560208601620017cc565b6200195c816200111e565b840191505092915050565b600060c08301600083015162001981600086018262001904565b50602083015184820360208601526200199b828262001926565b91505060408301518482036040860152620019b7828262001926565b9150506060830151620019ce606086018262001904565b5060808301518482036080860152620019e8828262001926565b91505060a0830151620019ff60a086018262001904565b508091505092915050565b600062001a18838362001967565b905092915050565b6000602082019050919050565b600062001a3a82620018d8565b62001a468185620018e3565b93508360208202850162001a5a85620018f4565b8060005b8581101562001a9c578484038952815162001a7a858262001a0a565b945062001a878362001a20565b925060208a0199505060018101905062001a5e565b50829750879550505050505092915050565b6000602082019050818103600083015262001aca818462001a2d565b905092915050565b600060c08301600083015162001aec600086018262001904565b506020830151848203602086015262001b06828262001926565b9150506040830151848203604086015262001b22828262001926565b915050606083015162001b39606086018262001904565b506080830151848203608086015262001b53828262001926565b91505060a083015162001b6a60a086018262001904565b508091505092915050565b6000602082019050818103600083015262001b91818462001ad2565b905092915050565b7f4e487b7100000000000000000000000000000000000000000000000000000000600052603260045260246000fd5b60008115159050919050565b62001bdf8162001bc8565b811462001beb57600080fd5b50565b60008151905062001bff8162001bd4565b92915050565b60006020828403121562001c1e5762001c1d62000f86565b5b600062001c2e8482850162001bee565b91505092915050565b7f4e487b7100000000000000000000000000000000000000000000000000000000600052601160045260246000fd5b600062001c738262001377565b91507fffffffffffffffffffffffffffffffffffffffffffffffffffffffffffffffff820362001ca85762001ca762001c37565b5b600182019050919050565b600081519050919050565b600082825260208201905092915050565b6000819050602082019050919050565b600062001ced838362001926565b905092915050565b6000602082019050919050565b600062001d0f8262001cb3565b62001d1b818562001cbe565b93508360208202850162001d2f8562001ccf565b8060005b8581101562001d71578484038952815162001d4f858262001cdf565b945062001d5c8362001cf5565b925060208a0199505060018101905062001d33565b50829750879550505050505092915050565b600061012082019050818103600083015262001da0818c62001d02565b905062001db1602083018b6200179f565b62001dc0604083018a62001771565b62001dcf60608301896200179f565b818103608083015262001de38188620017f8565b905081810360a083015262001df98187620017f8565b905062001e0a60c08301866200179f565b81810360e083015262001e1e8185620017f8565b905081810361010083015262001e3581846200108b565b90509a9950505050505050505050565b7f4e487b7100000000000000000000000000000000000000000000000000000000600052602260045260246000fd5b6000600282049050600182168062001e8d57607f821691505b60208210810362001ea35762001ea262001e45565b5b50919050565b60008190508160005260206000209050919050565b60006020601f8301049050919050565b600082821b905092915050565b60006008830262001f0d7fffffffffffffffffffffffffffffffffffffffffffffffffffffffffffffffff8262001ece565b62001f19868362001ece565b95508019841693508086168417925050509392505050565b600062001f5262001f4c62001f468462001377565b62001608565b62001377565b9050919050565b6000819050919050565b62001f6e8362001f31565b62001f8662001f7d8262001f59565b84845462001edb565b825550505050565b600090565b62001f9d62001f8e565b62001faa81848462001f63565b505050565b5b8181101562001fd25762001fc660008262001f93565b60018101905062001fb0565b5050565b601f821115620020215762001feb8162001ea9565b62001ff68462001ebe565b8101602085101562002006578190505b6200201e620020158562001ebe565b83018262001faf565b50505b505050565b600082821c905092915050565b6000620020466000198460080262002026565b1980831691505092915050565b600062002061838362002033565b9150826002028217905092915050565b6200207c82620017b0565b67ffffffffffffffff8111156200209857620020976200112f565b5b620020a4825462001e74565b620020b182828562001fd6565b600060209050601f831160018114620020e95760008415620020d4578287015190505b620020e0858262002053565b86555062002150565b601f198416620020f98662001ea9565b60005b828110156200212357848901518255600182019150602085019450602081019050620020fc565b868310156200214357848901516200213f601f89168262002033565b8355505b6001600288020188555050505b505050505050565b60006040820190506200216f600083018562001771565b6200217e602083018462001771565b9392505050565b7f496e76616c69642063616d706169676e20494400000000000000000000000000600082015250565b6000620021bd601383620017bb565b9150620021ca8262002185565b602082019050919050565b60006020820190508181036000830152620021f081620021ae565b905091905056fe608060405260006005556040518060400160405280600d81526020017f43616d706169676e204e616d6500000000000000000000000000000000000000815250600690816200004f9190620005ef565b506040518060400160405280601481526020017f43616d706169676e204465736372697074696f6e00000000000000000000000081525060079081620000969190620005ef565b5060006008556040518060400160405280600481526020017f446174650000000000000000000000000000000000000000000000000000000081525060099081620000e29190620005ef565b50348015620000f057600080fd5b5060405162002c4438038062002c44833981810160405281019062000116919062000aa2565b60005b8951811015620001bb57600060405180604001604052808c848151811062000146576200014562000c1c565b5b60200260200101518152602001600081525090806001815401808255809150506001900390600052602060002090600202016000909190919091506000820151816000019081620001989190620005ef565b506020820151816001015550508080620001b29062000c7a565b91505062000119565b50856005819055508460069081620001d49190620005ef565b508360079081620001e69190620005ef565b508760088190555086600160006101000a81548173ffffffffffffffffffffffffffffffffffffffff021916908373ffffffffffffffffffffffffffffffffffffffff16021790555082600381905550603c8862000245919062000cc7565b8362000252919062000d12565b6004819055508160099081620002699190620005ef565b506001600260008973ffffffffffffffffffffffffffffffffffffffff1673ffffffffffffffffffffffffffffffffffffffff16815260200190815260200160002060006101000a81548160ff02191690831515021790555060005b81518110156200036557600a828281518110620002e757620002e662000c1c565b5b60200260200101519080600181540180825580915050600190039060005260206000200160009091909190916101000a81548173ffffffffffffffffffffffffffffffffffffffff021916908373ffffffffffffffffffffffffffffffffffffffff16021790555080806200035c9062000c7a565b915050620002c5565b5050505050505050505062000d4d565b600081519050919050565b7f4e487b7100000000000000000000000000000000000000000000000000000000600052604160045260246000fd5b7f4e487b7100000000000000000000000000000000000000000000000000000000600052602260045260246000fd5b60006002820490506001821680620003f757607f821691505b6020821081036200040d576200040c620003af565b5b50919050565b60008190508160005260206000209050919050565b60006020601f8301049050919050565b600082821b905092915050565b600060088302620004777fffffffffffffffffffffffffffffffffffffffffffffffffffffffffffffffff8262000438565b62000483868362000438565b95508019841693508086168417925050509392505050565b6000819050919050565b6000819050919050565b6000620004d0620004ca620004c4846200049b565b620004a5565b6200049b565b9050919050565b6000819050919050565b620004ec83620004af565b62000504620004fb82620004d7565b84845462000445565b825550505050565b600090565b6200051b6200050c565b62000528818484620004e1565b505050565b5b8181101562000550576200054460008262000511565b6001810190506200052e565b5050565b601f8211156200059f57620005698162000413565b620005748462000428565b8101602085101562000584578190505b6200059c620005938562000428565b8301826200052d565b50505b505050565b600082821c905092915050565b6000620005c460001984600802620005a4565b1980831691505092915050565b6000620005df8383620005b1565b9150826002028217905092915050565b620005fa8262000375565b67ffffffffffffffff81111562000616576200061562000380565b5b620006228254620003de565b6200062f82828562000554565b600060209050601f83116001811462000667576000841562000652578287015190505b6200065e8582620005d1565b865550620006ce565b601f198416620006778662000413565b60005b82811015620006a1578489015182556001820191506020850194506020810190506200067a565b86831015620006c15784890151620006bd601f891682620005b1565b8355505b6001600288020188555050505b505050505050565b6000604051905090565b600080fd5b600080fd5b600080fd5b6000601f19601f8301169050919050565b6200070b82620006ef565b810181811067ffffffffffffffff821117156200072d576200072c62000380565b5b80604052505050565b600062000742620006d6565b905062000750828262000700565b919050565b600067ffffffffffffffff82111562000773576200077262000380565b5b602082029050602081019050919050565b600080fd5b600080fd5b600067ffffffffffffffff821115620007ac57620007ab62000380565b5b620007b782620006ef565b9050602081019050919050565b60005b83811015620007e4578082015181840152602081019050620007c7565b60008484015250505050565b60006200080762000801846200078e565b62000736565b90508281526020810184848401111562000826576200082562000789565b5b62000833848285620007c4565b509392505050565b600082601f830112620008535762000852620006ea565b5b815162000865848260208601620007f0565b91505092915050565b6000620008856200087f8462000755565b62000736565b90508083825260208201905060208402830185811115620008ab57620008aa62000784565b5b835b81811015620008f957805167ffffffffffffffff811115620008d457620008d3620006ea565b5b808601620008e389826200083b565b85526020850194505050602081019050620008ad565b5050509392505050565b600082601f8301126200091b576200091a620006ea565b5b81516200092d8482602086016200086e565b91505092915050565b62000941816200049b565b81146200094d57600080fd5b50565b600081519050620009618162000936565b92915050565b600073ffffffffffffffffffffffffffffffffffffffff82169050919050565b6000620009948262000967565b9050919050565b620009a68162000987565b8114620009b257600080fd5b50565b600081519050620009c6816200099b565b92915050565b600067ffffffffffffffff821115620009ea57620009e962000380565b5b602082029050602081019050919050565b600062000a1262000a0c84620009cc565b62000736565b9050808382526020820190506020840283018581111562000a385762000a3762000784565b5b835b8181101562000a65578062000a508882620009b5565b84526020840193505060208101905062000a3a565b5050509392505050565b600082601f83011262000a875762000a86620006ea565b5b815162000a99848260208601620009fb565b91505092915050565b60008060008060008060008060006101208a8c03121562000ac85762000ac7620006e0565b5b60008a015167ffffffffffffffff81111562000ae95762000ae8620006e5565b5b62000af78c828d0162000903565b995050602062000b0a8c828d0162000950565b985050604062000b1d8c828d01620009b5565b975050606062000b308c828d0162000950565b96505060808a015167ffffffffffffffff81111562000b545762000b53620006e5565b5b62000b628c828d016200083b565b95505060a08a015167ffffffffffffffff81111562000b865762000b85620006e5565b5b62000b948c828d016200083b565b94505060c062000ba78c828d0162000950565b93505060e08a015167ffffffffffffffff81111562000bcb5762000bca620006e5565b5b62000bd98c828d016200083b565b9250506101008a015167ffffffffffffffff81111562000bfe5762000bfd620006e5565b5b62000c0c8c828d0162000a6f565b9150509295985092959850929598565b7f4e487b7100000000000000000000000000000000000000000000000000000000600052603260045260246000fd5b7f4e487b7100000000000000000000000000000000000000000000000000000000600052601160045260246000fd5b600062000c87826200049b565b91507fffffffffffffffffffffffffffffffffffffffffffffffffffffffffffffffff820362000cbc5762000cbb62000c4b565b5b600182019050919050565b600062000cd4826200049b565b915062000ce1836200049b565b925082820262000cf1816200049b565b9150828204841483151762000d0b5762000d0a62000c4b565b5b5092915050565b600062000d1f826200049b565b915062000d2c836200049b565b925082820190508082111562000d475762000d4662000c4b565b5b92915050565b611ee78062000d5d6000396000f3fe608060405234801561001057600080fd5b50600436106101da5760003560e01c8063776898c811610104578063a3ec138d116100a2578063c0f2a77711610071578063c0f2a77714610555578063c828371e14610573578063cbff75cb14610591578063efb98bcf146105c1576101da565b8063a3ec138d146104cb578063ac0a42fd146104fb578063bb9aa28f14610519578063c094f58514610537576101da565b806385a38635116100de57806385a3863514610453578063885e7c62146104715780638da5cb5b1461048f57806390a9ab90146104ad576101da565b8063776898c8146103e75780637bc25483146104175780637cd9eb4b14610435576101da565b806335b8e8201161017c578063462e91ec1161014b578063462e91ec14610371578063581c281c1461038d5780635e06280b146103ab57806374d8c643146103c9576101da565b806335b8e820146102d45780634137e733146103055780634225e7f414610323578063439f5ac214610353576101da565b8063101158af116101b8578063101158af146102375780632f54bf6e14610255578063323046b1146102855780633477ee2e146102a3576101da565b80630121b93f146101df57806304098338146101fb5780630574f59014610219575b600080fd5b6101f960048036038101906101f491906112d2565b6105df565b005b610203610830565b604051610210919061130e565b60405180910390f35b610221610836565b60405161022e91906113b9565b60405180910390f35b61023f6108c4565b60405161024c919061130e565b60405180910390f35b61026f600480360381019061026a9190611439565b6108ca565b60405161027c9190611481565b60405180910390f35b61028d610924565b60405161029a91906113b9565b60405180910390f35b6102bd60048036038101906102b891906112d2565b6109b2565b6040516102cb92919061149c565b60405180910390f35b6102ee60048036038101906102e991906112d2565b610a6e565b6040516102fc92919061149c565b60405180910390f35b61030d610b98565b60405161031a91906113b9565b60405180910390f35b61033d60048036038101906103389190611439565b610c26565b60405161034a9190611481565b60405180910390f35b61035b610cd4565b604051610368919061130e565b60405180910390f35b61038b60048036038101906103869190611601565b610cde565b005b610395610dd4565b6040516103a29190611481565b60405180910390f35b6103b3610dee565b6040516103c09190611659565b60405180910390f35b6103d1610e18565b6040516103de91906113b9565b60405180910390f35b61040160048036038101906103fc91906112d2565b610eaa565b60405161040e9190611659565b60405180910390f35b61041f610ee9565b60405161042c919061130e565b60405180910390f35b61043d610ef3565b60405161044a91906113b9565b60405180910390f35b61045b610f85565b604051610468919061130e565b60405180910390f35b610479610f8b565b60405161048691906113b9565b60405180910390f35b61049761101d565b6040516104a49190611659565b60405180910390f35b6104b5611043565b6040516104c291906117cc565b60405180910390f35b6104e560048036038101906104e09190611439565b61113e565b6040516104f29190611481565b60405180910390f35b61050361115e565b604051610510919061130e565b60405180910390f35b610521611164565b60405161052e919061130e565b60405180910390f35b61053f611170565b60405161054c919061130e565b60405180910390f35b61055d61117a565b60405161056a919061130e565b60405180910390f35b61057b6111df565b604051610588919061130e565b60405180910390f35b6105ab60048036038101906105a69190611439565b6111e9565b6040516105b89190611481565b60405180910390f35b6105c961123f565b6040516105d6919061130e565b60405180910390f35b600354421015610624576040517f08c379a000000000000000000000000000000000000000000000000000000000815260040161061b9061183a565b60405180910390fd5b6004544210610668576040517f08c379a000000000000000000000000000000000000000000000000000000000815260040161065f906118a6565b60405180910390fd5b600260003373ffffffffffffffffffffffffffffffffffffffff1673ffffffffffffffffffffffffffffffffffffffff16815260200190815260200160002060009054906101000a900460ff16156106f5576040517f08c379a00000000000000000000000000000000000000000000000000000000081526004016106ec90611912565b60405180910390fd5b600080549050811061073c576040517f08c379a00000000000000000000000000000000000000000000000000000000081526004016107339061197e565b60405180910390fd5b600081815481106107505761074f61199e565b5b90600052602060002090600202016001016000815480929190610772906119fc565b91905055506001600260003373ffffffffffffffffffffffffffffffffffffffff1673ffffffffffffffffffffffffffffffffffffffff16815260200190815260200160002060006101000a81548160ff0219169083151502179055507fc31875ef3ed5138b71a0c1da7e494bc4d2ba4f567084ea481ec9c45f3a93948b81600083815481106108055761080461199e565b5b906000526020600020906002020160010154604051610825929190611a44565b60405180910390a150565b60085481565b6007805461084390611a9c565b80601f016020809104026020016040519081016040528092919081815260200182805461086f90611a9c565b80156108bc5780601f10610891576101008083540402835291602001916108bc565b820191906000526020600020905b81548152906001019060200180831161089f57829003601f168201915b505050505081565b60035481565b6000600160009054906101000a900473ffffffffffffffffffffffffffffffffffffffff1673ffffffffffffffffffffffffffffffffffffffff168273ffffffffffffffffffffffffffffffffffffffff16149050919050565b6009805461093190611a9c565b80601f016020809104026020016040519081016040528092919081815260200182805461095d90611a9c565b80156109aa5780601f1061097f576101008083540402835291602001916109aa565b820191906000526020600020905b81548152906001019060200180831161098d57829003601f168201915b505050505081565b600081815481106109c257600080fd5b90600052602060002090600202016000915090508060000180546109e590611a9c565b80601f0160208091040260200160405190810160405280929190818152602001828054610a1190611a9c565b8015610a5e5780601f10610a3357610100808354040283529160200191610a5e565b820191906000526020600020905b815481529060010190602001808311610a4157829003601f168201915b5050505050908060010154905082565b6060600080805490508310610ab8576040517f08c379a0000000000000000000000000000000000000000000000000000000008152600401610aaf90611b19565b60405180910390fd5b60008381548110610acc57610acb61199e565b5b906000526020600020906002020160000160008481548110610af157610af061199e565b5b906000526020600020906002020160010154818054610b0f90611a9c565b80601f0160208091040260200160405190810160405280929190818152602001828054610b3b90611a9c565b8015610b885780601f10610b5d57610100808354040283529160200191610b88565b820191906000526020600020905b815481529060010190602001808311610b6b57829003601f168201915b5050505050915091509150915091565b60068054610ba590611a9c565b80601f0160208091040260200160405190810160405280929190818152602001828054610bd190611a9c565b8015610c1e5780601f10610bf357610100808354040283529160200191610c1e565b820191906000526020600020905b815481529060010190602001808311610c0157829003601f168201915b505050505081565b600080600090505b600a80549050811015610cc9578273ffffffffffffffffffffffffffffffffffffffff16600a8281548110610c6657610c6561199e565b5b9060005260206000200160009054906101000a900473ffffffffffffffffffffffffffffffffffffffff1673ffffffffffffffffffffffffffffffffffffffff1603610cb6576001915050610ccf565b8080610cc1906119fc565b915050610c2e565b50600090505b919050565b6000600454905090565b600160009054906101000a900473ffffffffffffffffffffffffffffffffffffffff1673ffffffffffffffffffffffffffffffffffffffff163373ffffffffffffffffffffffffffffffffffffffff1614610d6e576040517f08c379a0000000000000000000000000000000000000000000000000000000008152600401610d6590611bab565b60405180910390fd5b60006040518060400160405280838152602001600081525090806001815401808255809150506001900390600052602060002090600202016000909190919091506000820151816000019081610dc49190611d77565b5060208201518160010155505050565b60006003544210158015610de9575060045442105b905090565b6000600160009054906101000a900473ffffffffffffffffffffffffffffffffffffffff16905090565b606060078054610e2790611a9c565b80601f0160208091040260200160405190810160405280929190818152602001828054610e5390611a9c565b8015610ea05780601f10610e7557610100808354040283529160200191610ea0565b820191906000526020600020905b815481529060010190602001808311610e8357829003601f168201915b5050505050905090565b600a8181548110610eba57600080fd5b906000526020600020016000915054906101000a900473ffffffffffffffffffffffffffffffffffffffff1681565b6000600854905090565b606060098054610f0290611a9c565b80601f0160208091040260200160405190810160405280929190818152602001828054610f2e90611a9c565b8015610f7b5780601f10610f5057610100808354040283529160200191610f7b565b820191906000526020600020905b815481529060010190602001808311610f5e57829003601f168201915b5050505050905090565b60045481565b606060068054610f9a90611a9c565b80601f0160208091040260200160405190810160405280929190818152602001828054610fc690611a9c565b80156110135780601f10610fe857610100808354040283529160200191611013565b820191906000526020600020905b815481529060010190602001808311610ff657829003601f168201915b5050505050905090565b600160009054906101000a900473ffffffffffffffffffffffffffffffffffffffff1681565b60606000805480602002602001604051908101604052809291908181526020016000905b82821015611135578382906000526020600020906002020160405180604001604052908160008201805461109a90611a9c565b80601f01602080910402602001604051908101604052809291908181526020018280546110c690611a9c565b80156111135780601f106110e857610100808354040283529160200191611113565b820191906000526020600020905b8154815290600101906020018083116110f657829003601f168201915b5050505050815260200160018201548152505081526020019060010190611067565b50505050905090565b60026020528060005260406000206000915054906101000a900460ff1681565b60055481565b60008080549050905090565b6000600554905090565b6000806000905060005b6000805490508110156111d757600081815481106111a5576111a461199e565b5b906000526020600020906002020160010154826111c29190611e49565b915080806111cf906119fc565b915050611184565b508091505090565b6000600354905090565b6000600260008373ffffffffffffffffffffffffffffffffffffffff1673ffffffffffffffffffffffffffffffffffffffff16815260200190815260200160002060009054906101000a900460ff169050919050565b600060045442106112535760009050611285565b6003544210156112745760035460045461126d9190611e7d565b9050611285565b426004546112829190611e7d565b90505b90565b6000604051905090565b600080fd5b600080fd5b6000819050919050565b6112af8161129c565b81146112ba57600080fd5b50565b6000813590506112cc816112a6565b92915050565b6000602082840312156112e8576112e7611292565b5b60006112f6848285016112bd565b91505092915050565b6113088161129c565b82525050565b600060208201905061132360008301846112ff565b92915050565b600081519050919050565b600082825260208201905092915050565b60005b83811015611363578082015181840152602081019050611348565b60008484015250505050565b6000601f19601f8301169050919050565b600061138b82611329565b6113958185611334565b93506113a5818560208601611345565b6113ae8161136f565b840191505092915050565b600060208201905081810360008301526113d38184611380565b905092915050565b600073ffffffffffffffffffffffffffffffffffffffff82169050919050565b6000611406826113db565b9050919050565b611416816113fb565b811461142157600080fd5b50565b6000813590506114338161140d565b92915050565b60006020828403121561144f5761144e611292565b5b600061145d84828501611424565b91505092915050565b60008115159050919050565b61147b81611466565b82525050565b60006020820190506114966000830184611472565b92915050565b600060408201905081810360008301526114b68185611380565b90506114c560208301846112ff565b9392505050565b600080fd5b600080fd5b7f4e487b7100000000000000000000000000000000000000000000000000000000600052604160045260246000fd5b61150e8261136f565b810181811067ffffffffffffffff8211171561152d5761152c6114d6565b5b80604052505050565b6000611540611288565b905061154c8282611505565b919050565b600067ffffffffffffffff82111561156c5761156b6114d6565b5b6115758261136f565b9050602081019050919050565b82818337600083830152505050565b60006115a461159f84611551565b611536565b9050828152602081018484840111156115c0576115bf6114d1565b5b6115cb848285611582565b509392505050565b600082601f8301126115e8576115e76114cc565b5b81356115f8848260208601611591565b91505092915050565b60006020828403121561161757611616611292565b5b600082013567ffffffffffffffff81111561163557611634611297565b5b611641848285016115d3565b91505092915050565b611653816113fb565b82525050565b600060208201905061166e600083018461164a565b92915050565b600081519050919050565b600082825260208201905092915050565b6000819050602082019050919050565b600082825260208201905092915050565b60006116bc82611329565b6116c681856116a0565b93506116d6818560208601611345565b6116df8161136f565b840191505092915050565b6116f38161129c565b82525050565b6000604083016000830151848203600086015261171682826116b1565b915050602083015161172b60208601826116ea565b508091505092915050565b600061174283836116f9565b905092915050565b6000602082019050919050565b600061176282611674565b61176c818561167f565b93508360208202850161177e85611690565b8060005b858110156117ba578484038952815161179b8582611736565b94506117a68361174a565b925060208a01995050600181019050611782565b50829750879550505050505092915050565b600060208201905081810360008301526117e68184611757565b905092915050565b7f566f74696e6720686173206e6f742073746172746564207965742e0000000000600082015250565b6000611824601b83611334565b915061182f826117ee565b602082019050919050565b6000602082019050818103600083015261185381611817565b9050919050565b7f566f74696e672068617320656e6465642e000000000000000000000000000000600082015250565b6000611890601183611334565b915061189b8261185a565b602082019050919050565b600060208201905081810360008301526118bf81611883565b9050919050565b7f596f75206861766520616c726561647920766f7465642e000000000000000000600082015250565b60006118fc601783611334565b9150611907826118c6565b602082019050919050565b6000602082019050818103600083015261192b816118ef565b9050919050565b7f496e76616c69642063616e64696461746520696e6465782e0000000000000000600082015250565b6000611968601883611334565b915061197382611932565b602082019050919050565b600060208201905081810360008301526119978161195b565b9050919050565b7f4e487b7100000000000000000000000000000000000000000000000000000000600052603260045260246000fd5b7f4e487b7100000000000000000000000000000000000000000000000000000000600052601160045260246000fd5b6000611a078261129c565b91507fffffffffffffffffffffffffffffffffffffffffffffffffffffffffffffffff8203611a3957611a386119cd565b5b600182019050919050565b6000604082019050611a5960008301856112ff565b611a6660208301846112ff565b9392505050565b7f4e487b7100000000000000000000000000000000000000000000000000000000600052602260045260246000fd5b60006002820490506001821680611ab457607f821691505b602082108103611ac757611ac6611a6d565b5b50919050565b7f496e76616c696420696e64657800000000000000000000000000000000000000600082015250565b6000611b03600d83611334565b9150611b0e82611acd565b602082019050919050565b60006020820190508181036000830152611b3281611af6565b9050919050565b7f4f6e6c79206f776e65722063616e2063616c6c20746869732066756e6374696f60008201527f6e00000000000000000000000000000000000000000000000000000000000000602082015250565b6000611b95602183611334565b9150611ba082611b39565b604082019050919050565b60006020820190508181036000830152611bc481611b88565b9050919050565b60008190508160005260206000209050919050565b60006020601f8301049050919050565b600082821b905092915050565b600060088302611c2d7fffffffffffffffffffffffffffffffffffffffffffffffffffffffffffffffff82611bf0565b611c378683611bf0565b95508019841693508086168417925050509392505050565b6000819050919050565b6000611c74611c6f611c6a8461129c565b611c4f565b61129c565b9050919050565b6000819050919050565b611c8e83611c59565b611ca2611c9a82611c7b565b848454611bfd565b825550505050565b600090565b611cb7611caa565b611cc2818484611c85565b505050565b5b81811015611ce657611cdb600082611caf565b600181019050611cc8565b5050565b601f821115611d2b57611cfc81611bcb565b611d0584611be0565b81016020851015611d14578190505b611d28611d2085611be0565b830182611cc7565b50505b505050565b600082821c905092915050565b6000611d4e60001984600802611d30565b1980831691505092915050565b6000611d678383611d3d565b9150826002028217905092915050565b611d8082611329565b67ffffffffffffffff811115611d9957611d986114d6565b5b611da38254611a9c565b611dae828285611cea565b600060209050601f831160018114611de15760008415611dcf578287015190505b611dd98582611d5b565b865550611e41565b601f198416611def86611bcb565b60005b82811015611e1757848901518255600182019150602085019450602081019050611df2565b86831015611e345784890151611e30601f891682611d3d565b8355505b6001600288020188555050505b505050505050565b6000611e548261129c565b9150611e5f8361129c565b9250828201905080821115611e7757611e766119cd565b5b92915050565b6000611e888261129c565b9150611e938361129c565b9250828203905081811115611eab57611eaa6119cd565b5b9291505056fea2646970667358221220656eb5b5da732889129dcbfba74757d111a4711117c517ea5e98f8ee07a57c6a64736f6c63430008110033a26469706673582212206bd8a9713bc0c985479dd7543bda09e0d26bb9eebdcd3117281d03a726086af364736f6c63430008110033",
  "linkReferences": {},
  "deployedLinkReferences": {}
}